:100000000C9434000C9451000C9451000C94510049
:100010000C9451000C9451000C9451000C9451001C
:100020000C9451000C9451000C9451000C9451000C
:100030000C9451000C9451000C9451000C945100FC
:100040000C9451000C9451000C9451000C945100EC
:100050000C9451000C9451000C9451000C945100DC
:100060000C9451000C94510011241FBECFEFD8E026
:10007000DEBFCDBF11E0A0E0B1E0E0EBFCE002C0EC
:1000800005900D92A838B107D9F722E0A8E8B1E0B1
:1000900001C01D92A232B207E1F70E9489010C94BF
:1000A00056060C940000CF93DF9300D0CDB7DEB797
:1000B000CE0109969A83898329813A818F81988517
:1000C000AC0168E770E089E891E00E94FC0289E8F1
:1000D00091E00E94AF000F900F90DF91CF910895B3
:1000E000CF93DF9300D0CDB7DEB783E390E09A8360
:1000F000898385EC90E029813A81232F3327FC0105
:10010000208384EC90E02981FC01208381EC90E045
:1001100028E1FC01208382EC90E026E0FC012083B2
:100120000F900F90DF91CF910895CF93DF931F929F
:10013000CDB7DEB78983000080EC90E0FC018081C0
:10014000882F90E080729927892BB1F386EC90E09C
:100150002981FC0120830F90DF91CF910895CF93E7
:10016000DF9300D0CDB7DEB79A8389830BC0898136
:100170009A819C012F5F3F4F3A832983FC01808144
:100180000E94950089819A81FC018081882379F7FA
:100190000F900F90DF91CF910895CF93DF93CDB75C
:1001A000DEB780EC90E0FC018081882314F481E0CC
:1001B00001C080E0DF91CF910895CF93DF93CDB759
:1001C000DEB700000E94CD008823E1F386EC90E0CA
:1001D000FC018081DF91CF910895CF93DF93CDB75C
:1001E000DEB780918801882349F480E090E00E9486
:1001F000A6050E94EA0281E080938801DF91CF91F9
:1002000008950F931F93CF93DF931F92CDB7DEB75F
:100210000E94ED0019820EC08981082F10E00E9413
:10022000E502282FC8018F5F9D4FFC012083898143
:100230008F5F89838981803178F30F90DF91CF912F
:100240001F910F910895CF93DF9300D0CDB7DEB704
:1002500040E150E060E070E081E192E00E94F50250
:10026000198216C00E94DD008A838A818D3009F4CC
:100270000CC08A818A3009F40EC08981882F90E0F1
:100280008F5E9D4F2A81FC01208389818F5F898346
:100290008981803138F30F900F90DF91CF910895CD
:1002A000CF93DF93CDB7DEB727970FB6F894DEBFB5
:1002B0000FBECDBF9C838B837E836D834F831A8259
:1002C000198219C08B819C81FC0120818D819E81C6
:1002D000FC01808182279A81892B8A838B819C8172
:1002E00001969C838B838D819E8101969E838D8355
:1002F00089818F5F898399818F81981718F38A810B
:1003000027960FB6F894DEBF0FBECDBFDF91CF9119
:100310000895CF93DF9300D0CDB7DEB719820E9446
:1003200070000E94010100000000000000000000B9
:1003300000000000000000000000000000000000BD
:1003400000000000000000000000000000000000AD
:10035000000000000000000000000000000000009D
:10036000000000000000000000000000000000008D
:10037000000000000000000000000000000000007D
:10038000000000000000000000000E94010184E065
:1003900091E0892F8F9384E091E08F930E94530026
:1003A0000F900F9084E18A8319828AE191E0892F6E
:1003B0008F938AE191E08F930E9453000F900F90EA
:1003C0000E94230140E161E072E081E192E00E943D
:1003D0005001882311F081E089838981882311F3FA
:1003E000000000000000000000000000000000000D
:1003F00000000000000000000000000000000000FD
:1004000000000000000000000000000000000000EC
:1004100000000000000000000000000000000000DC
:1004200000000000000000000000000000000000CC
:1004300000000000000000000000000000000000BC
:10044000000000008A81880F8D5F8A830000000011
:10045000000000000000000000000000000000009C
:10046000000000000000000000000000000000008C
:10047000000000000000000000000000000000007C
:10048000000000000000000000000000000000006C
:10049000000000000000000000000000000000005C
:1004A000000000000000000000000000000000004C
:1004B00040E161E072E081E192E00E945001882316
:1004C00061F084E491E0892F8F9384E491E08F932D
:1004D0000E9453000F900F9065CF89E591E0892F1E
:1004E0008F9389E591E08F930E9453000F900F90B6
:1004F00089E691E0892F8F9389E691E08F930E949E
:1005000053000F900F908A818B3261F084E491E068
:10051000892F8F9384E491E08F930E9453000F9072
:100520000F9040CF80E090E00F900F90DF91CF913F
:1005300008958F929F92AF92BF92CF92DF92EF92E7
:10054000FF92CF93DF93EC01688179818A819B814F
:10055000611571058105910521F464E279ED8BE562
:1005600097E02DE133EF41E050E00E94BC054901E6
:100570005A019B01AC01A7EAB1E40E94DB056B01C3
:100580007C01ACEEB4EFA50194010E94E905DC0109
:10059000CB018C0D9D1DAE1DBF1DB7FF03C0019784
:1005A000A109B04888839983AA83BB839F77DF9191
:1005B000CF91FF90EF90DF90CF90BF90AF909F9042
:1005C0008F9008950E949902089580E091E00E9422
:1005D00099020895A0E0B0E080930001909301019A
:1005E000A0930201B09303010895DC0101C06D9353
:1005F00041505040E0F70895AEE0B0E0E2E0F3E0B3
:100600000C94FC058C01CA0146E04C831A830983D3
:1006100077FF02C060E070E8FB013197FE83ED8355
:10062000A901BC01CE0101960E9428034D815E8183
:1006300057FD0AC02F813885421753070CF49A01E1
:10064000F801E20FF31F10822E96E4E00C941806D6
:10065000ACE0B0E0EEE2F3E00C94EE057C016B015F
:100660008A01FC0117821682838181FFBDC1CE0100
:1006700001964C01F7019381F60193FD859193FF5B
:1006800081916F01882309F4ABC1853239F493FD60
:10069000859193FF81916F01853229F4B70190E034
:1006A0000E941005E7CF512C312C20E02032A0F41D
:1006B0008B3269F030F4803259F0833269F4206172
:1006C0002CC08D3239F0803339F4216026C022608D
:1006D000246023C0286021C027FD27C030ED380FDB
:1006E0003A3078F426FF06C0FAE05F9E300D112400
:1006F000532E13C08AE0389E300D1124332E206211
:100700000CC08E3221F426FD6BC1206406C08C36ED
:1007100011F4206802C0883641F4F60193FD8591FA
:1007200093FF81916F018111C1CF982F9F7D9554C7
:10073000933028F40C5F1F4FFFE3F9830DC083361D
:1007400031F0833771F0833509F05BC022C0F801C6
:10075000808189830E5F1F4F44244394512C5401A0
:1007600015C03801F2E06F0E711CF801A080B18055
:1007700026FF03C0652D70E002C06FEF7FEFC5015B
:100780002C870E9405052C0183012C852F77222EB2
:1007900017C03801F2E06F0E711CF801A080B18023
:1007A00026FF03C0652D70E002C06FEF7FEFC5012B
:1007B0002C870E94FA042C012C852068222E8301AC
:1007C00023FC1BC0832D90E048165906B0F4B701F6
:1007D00080E290E00E9410053A94F4CFF50127FCE6
:1007E000859127FE81915F01B70190E00E9410057D
:1007F00031103A94F1E04F1A51084114510471F745
:10080000E5C0843611F0893639F5F80127FF07C0B5
:1008100060817181828193810C5F1F4F08C060816C
:100820007181072E000C880B990B0E5F1F4F2F76DE
:10083000722E97FF09C090958095709561957F4FB6
:100840008F4F9F4F2068722E2AE030E0A4010E9453
:100850004805A82EA81844C0853729F42F7EB22E4B
:100860002AE030E025C0F22FF97FBF2E8F36C1F08D
:1008700018F4883579F0B4C0803719F0883721F042
:10088000AFC02F2F2061B22EB4FE0DC08B2D84601F
:10089000B82E09C024FF0AC09F2F9660B92E06C04B
:1008A00028E030E005C020E130E002C020E132E085
:1008B000F801B7FE07C060817181828193810C5F6E
:1008C0001F4F06C06081718180E090E00E5F1F4F76
:1008D000A4010E944805A82EA818FB2DFF777F2EA3
:1008E00076FE0BC0372D3E7FA51450F474FE0AC06F
:1008F00072FC08C0372D3E7E05C0BA2C372D03C0D0
:10090000BA2C01C0B52C34FF0DC0FE01EA0DF11D5B
:100910008081803311F4397E09C032FF06C0B39460
:10092000B39404C0832F867809F0B39433FD13C0C9
:1009300030FF06C05A2CB31418F4530C5B18B32CB8
:10094000B31468F4B70180E290E03C870E94100580
:10095000B3943C85F5CFB31410F43B1801C0312C8F
:1009600034FF12C0B70180E390E03C870E9410057D
:100970003C8532FF17C031FD03C088E790E002C01C
:1009800088E590E0B7010CC0832F867859F031FFDD
:1009900002C08BE201C080E237FD8DE2B70190E03A
:1009A0000E941005A51438F4B70180E390E00E947E
:1009B00010055A94F7CFAA94F401EA0DF11D808135
:1009C000B70190E00E941005A110F5CF332009F483
:1009D00051CEB70180E290E00E9410053A94F6CF24
:1009E000F7018681978102C08FEF9FEF2C96E2E19D
:1009F0000C940A06FC010590615070400110D8F774
:100A0000809590958E0F9F1F0895FC016150704056
:100A100001900110D8F7809590958E0F9F1F089533
:100A20000F931F93CF93DF93FB01238121FD03C01D
:100A30008FEF9FEF28C022FF16C046815781248187
:100A400035814217530744F4A081B1819D012F5F86
:100A50003F4F318320838C93268137812F5F3F4F17
:100A60003783268310C0EB01092F182F0084F185EE
:100A7000E02D0995892BE1F68E819F8101969F8358
:100A80008E83812F902FDF91CF911F910F91089529
:100A9000FA01AA27283051F1203181F1E8946F93AF
:100AA0006E7F6E5F7F4F8F4F9F4FAF4FB1E03ED055
:100AB000B4E03CD0670F781F891F9A1FA11D680FF3
:100AC000791F8A1F911DA11D6A0F711D811D911D26
:100AD000A11D20D009F468943F912AE0269F11249B
:100AE0003019305D3193DEF6CF010895462F4770FF
:100AF000405D4193B3E00FD0C9F7F6CF462F4F705A
:100B0000405D4A3318F0495D31FD4052419302D0B7
:100B1000A9F7EACFB4E0A69597958795779567955D
:100B2000BA95C9F700976105710508959B01AC015D
:100B30000A2E06945795479537952795BA95C9F784
:100B4000620F731F841F951FA01D0895A8E1B0E0D8
:100B500042E050E00C94AE05DC01CB01FC01F999B8
:100B6000FECF06C0F2BDE1BDF89A319600B40D92F9
:100B700041505040B8F70895052E97FB1EF400949D
:100B80000E94D30557FD07D00E94250607FC03D01D
:100B90004EF40C94D30550954095309521953F4FD8
:100BA0004F4F5F4F089590958095709561957F4F59
:100BB0008F4F9F4F08950E944706A59F900DB49FA9
:100BC000900DA49F800D911D11240895B7FF0C94E2
:100BD000DB050E94DB05821B930B08952F923F9249
:100BE0004F925F926F927F928F929F92AF92BF923D
:100BF000CF92DF92EF92FF920F931F93CF93DF93E9
:100C0000CDB7DEB7CA1BDB0B0FB6F894DEBF0FBE45
:100C1000CDBF09942A88398848885F846E847D8492
:100C20008C849B84AA84B984C884DF80EE80FD8094
:100C30000C811B81AA81B981CE0FD11D0FB6F8940A
:100C4000DEBF0FBECDBFED010895A1E21A2EAA1B93
:100C5000BB1BFD010DC0AA1FBB1FEE1FFF1FA2176C
:100C6000B307E407F50720F0A21BB30BE40BF50B69
:100C7000661F771F881F991F1A9469F760957095F2
:100C8000809590959B01AC01BD01CF010895A29F75
:100C9000B001B39FC001A39F700D811D1124911D50
:100CA000B29F700D811D1124911D0895F894FFCFFE
:100CB0000100000052484D4532204649206C6576BF
:100CC000656C20332E0D0A0D0A0043686970206C94
:100CD0006F636B65640D0A506C6561736520777294
:100CE00069746520796F75722070617373776F72A4
:100CF000643A2000476F6F64207472792C20636817
:100D00006561746572210D0A004368697020756E13
:100D10006C6F636B65640D0A00596F757220666CA9
:100D200061672069733A207930555F6D347374655B
:080D30007233645F46492100A3
:00000001FF
