:100000000C94BA000C94D7000C94D7000C94D70031
:100010000C94D7000C94D7000C94D7000C94D70004
:100020000C94D7000C94D7000C94D7000C94D700F4
:100030000C94D7000C94D7000C94D7000C94D700E4
:100040000C94D7000C94D7000C94EF060C94D700B6
:100050000C94D7000C94D7000C94D7000C94D700C4
:100060000C94D7000C94D700637C777BF26B6FC540
:100070003001672BFED7AB76CA82C97DFA5947F0AB
:10008000ADD4A2AF9CA472C0B7FD9326363FF7CC87
:1000900034A5E5F171D8311504C723C31896059A24
:1000A000071280E2EB27B27509832C1A1B6E5AA047
:1000B000523BD6B329E32F8453D100ED20FCB15B32
:1000C0006ACBBE394A4C58CFD0EFAAFB434D33859B
:1000D00045F9027F503C9FA851A3408F929D38F56F
:1000E000BCB6DA2110FFF3D2CD0C13EC5F974417A6
:1000F000C4A77E3D645D197360814FDC222A90881D
:1001000046EEB814DE5E0BDBE0323A0A4906245CA8
:10011000C2D3AC629195E479E7C8376D8DD54EA90D
:100120006C56F4EA657AAE08BA78252E1CA6B4C6D9
:10013000E8DD741F4BBD8B8A703EB5664803F60E32
:10014000613557B986C11D9EE1F8981169D98E9421
:100150009B1E87E9CE5528DF8CA1890DBFE642683A
:1001600041992D0FB054BB168D0102040810204098
:10017000801B366C11241FBECFEFD8E0DEBFCDBF91
:1001800013E0A0E0B1E0E4EEF7E102C005900D92CB
:10019000A235B107D9F723E0A2E5B3E001C01D9273
:1001A000AB36B207E1F70E941B050C94F00B0C94E0
:1001B0000000782F8827769531F008F48627660F9F
:1001C00008F46427F8CF08F486270895CF93DF93C7
:1001D000CDB7DEB76B970FB6F894DEBF0FBECDBFBD
:1001E000998F888F84E08A8384E08B838AE08C8374
:1001F0008B818983A2C08981882F90E08150904CA7
:10020000880F991F880F991F288D398D820F931F92
:10021000FC0180819181A281B3818C8B9D8BAE8BFF
:10022000BF8B89819B81692F0E949509892F882323
:1002300009F050C0CE0144960E94BD018C89882FE0
:1002400090E088599F4F9E838D838D819E81FC0114
:1002500084918F838F818C8B8D89882F90E0885932
:100260009F4F9987888788859985FC0184918A8723
:100270008A858D8B8E89882F90E088599F4F9C8727
:100280008B878B859C85FC0184918D878D858E8BDA
:100290008F89882F90E088599F4F9F878E878E8502
:1002A0009F85FC018491888B88898F8B89819B81B4
:1002B000692F0E949509882F90E088599E4F9A8B4C
:1002C000898B89899A89FC0184918B8B8B899C8984
:1002D00089278C8B8981882F90E0880F991F880F40
:1002E000991F288D398DB901680F791F8981282FB1
:1002F00030E08B81882F90E0A901481B590BCA017F
:10030000880F991F880F991F288D398D820F931F91
:10031000FC0120813181428153818C899D89AE8984
:10032000BF8982279327A427B527FB018083918368
:10033000A283B38389818F5F89838981282F30E0ED
:100340008A81682F70E08C81882F90E0AC014F5F2C
:100350005F4F649FC001659F900D749F900D1124A5
:10036000281739070CF447CF6B960FB6F894DEBF09
:100370000FBECDBFDF91CF910895CF93DF9300D013
:100380001F92CDB7DEB79B838A838A819B81FC0154
:10039000808189838A819B81FC0121818A819B8163
:1003A000FC0120838A819B8101962A813B81F9018E
:1003B0002281FC0120838A819B8102962A813B81D4
:1003C000F9012381FC0120838A819B810396298185
:1003D000FC0120830F900F900F90DF91CF91089533
:1003E000CF93DF9300D000D000D0CDB7DEB79C8391
:1003F0008B837E836D838AE08A8319821FC0898103
:10040000882F90E02B813C81820F931F2981222F1E
:1004100030E04B815C81240F351FF9016081298117
:10042000222F30E04D815E81240F351FF90120819C
:100430002627FC01208389818F5F89838981803110
:10044000F0F281E0898319C08981882F90E082953C
:100450009295907F9827807F98279C018D819E811F
:10046000280F391F8B819C81B9010E945C02898110
:100470008F5F89838A8181508A838A81823020F7C5
:100480008981882F90E082959295907F9827807F30
:1004900098279C018D819E81280F391F8B819C811B
:1004A000B9010E94350426960FB6F894DEBF0FBE40
:1004B000CDBFDF91CF9108950F931F93CF93DF931B
:1004C000CDB7DEB769970FB6F894DEBF0FBECDBFCC
:1004D0009F8B8E8B798F688F198222C08981882F9C
:1004E00090E02981222F30E04E895F89240F351F4B
:1004F000F9012081222F30E028593F4F3B832A8386
:100500002A813B81F90124912C834C819E012A5F31
:100510003F4F820F931FFC01408389818F5F898346
:1005200089818031D8F2CE010696019661E00E9461
:10053000A804CE010696029662E00E94A804CE01AD
:100540000696039663E00E94A80419825BC1898124
:10055000882F90E0880F991F880F991F9E012A5FAE
:100560003F4F820F931FFC0140818981882F90E0CB
:10057000880F991F880F991F01969E012A5F3F4F90
:10058000820F931FFC01808148278981882F90E08A
:10059000880F991F880F991F02969E012A5F3F4F6F
:1005A000820F931FFC01808148278981882F90E06A
:1005B000880F991F880F991F03969E012A5F3F4F4E
:1005C000820F931FFC01808184278D838981882F6E
:1005D00090E0880F991F880F991F9C018E899F8931
:1005E0008C01020F131F8981882F90E0880F991FBB
:1005F000880F991F9E012A5F3F4F820F931FFC01B6
:1006000040818981882F90E0880F991F880F991F5A
:1006100001969E012A5F3F4F820F931FFC0180814C
:1006200084274BE1682F82E00E94D900482F8981FE
:10063000882F90E0880F991F880F991F9E012A5FCD
:100640003F4F820F931FFC018081942F98278D814B
:100650008927F80180838981882F90E0880F991F6E
:10066000880F991F01962E893F898901080F191F4C
:100670008981882F90E0880F991F880F991F019614
:100680009E012A5F3F4F820F931FFC0140818981A9
:10069000882F90E0880F991F880F991F02969E015E
:1006A0002A5F3F4F820F931FFC01808184274BE11B
:1006B000682F82E00E94D900482F8981882F90E01E
:1006C000880F991F880F991F01969E012A5F3F4F3F
:1006D000820F931FFC018081942F98278D81892799
:1006E000F80180838981882F90E0880F991F880FF7
:1006F000991F02962E893F898901080F191F898148
:10070000882F90E0880F991F880F991F02969E01ED
:100710002A5F3F4F820F931FFC0140818981882F00
:1007200090E0880F991F880F991F03969E012A5FFA
:100730003F4F820F931FFC01808184274BE1682F7C
:1007400082E00E94D900482F8981882F90E0880F8D
:10075000991F880F991F02969E012A5F3F4F820FB3
:10076000931FFC018081942F98278D818927F801A0
:1007700080838981882F90E0880F991F880F991FA7
:1007800003962E893F898901080F191F8981882FB7
:1007900090E0880F991F880F991F03969E012A5F8A
:1007A0003F4F820F931FFC0140818981882F90E089
:1007B000880F991F880F991F9E012A5F3F4F820F54
:1007C000931FFC01808184274BE1682F82E00E9407
:1007D000D900482F8981882F90E0880F991F880FB2
:1007E000991F03969E012A5F3F4F820F931FFC01C2
:1007F0008081942F98278D818927F80180838981B2
:100800008F5F89838981843008F4A1CE19821FC04B
:100810008981882F90E02E893F89820F931F29813B
:10082000222F30E04E895F89240F351FF901608146
:100830002981222F30E0488D598D240F351FF90171
:1008400020812627FC01208389818F5F898389810C
:100850008031F0F269960FB6F894DEBF0FBECDBFBF
:10086000DF91CF911F910F910895CF93DF93CDB773
:10087000DEB728970FB6F894DEBF0FBECDBF9E83BC
:100880008D8378876F83198221C08981882F90E0BA
:100890002D813E81820F931F2981222F30E04D81CF
:1008A0005E81240F351FF9012081222F30E0285965
:1008B0003F4F3B832A832A813B81F90124912C837A
:1008C0002C81FC01208389818F5F8983898180311C
:1008D000E0F28D819E81019661E00E94A8048D81E5
:1008E0009E81029662E00E94A8048D819E810396FB
:1008F00063E00E94A80419821FC08981882F90E0BC
:100900002D813E81820F931F2981222F30E04D815E
:100910005E81240F351FF90160812981222F30E08B
:100920004F815885240F351FF90120812627FC01AE
:10093000208389818F5F898389818031F0F22896B5
:100940000FB6F894DEBF0FBECDBFDF91CF910895F3
:10095000CF93DF93CDB7DEB727970FB6F894DEBFFE
:100960000FBECDBF9E838D836F838D819E81FC01E1
:10097000808189838D819E81FC0184818A838D8120
:100980009E81FC0180858B838D819E81FC01848505
:100990008C838F81882F90E0837099279E012F5F31
:1009A0003F4F820F931FFC0120818D819E81FC01AE
:1009B00020838D819E8104962F81222F30E02F5F2E
:1009C0003F4F23703327AE014F5F5F4F240F351F1A
:1009D000F9012081FC0120838D819E8108962F8161
:1009E000222F30E02E5F3F4F23703327AE014F5F41
:1009F0005F4F240F351FF9012081FC0120838D8179
:100A00009E810C962F81222F30E02D5F3F4F237067
:100A10003327AE014F5F5F4F240F351FF90120814F
:100A2000FC01208327960FB6F894DEBF0FBECDBF22
:100A3000DF91CF910895CF93DF93CDB7DEB727979E
:100A40000FB6F894DEBF0FBECDBF0E94730583E0E2
:100A500090E09E838D8380E88F832F818D819E819E
:100A60000FB6F89420936100809361000FBE84E27A
:100A700090E020E2FC012083109266031092640350
:100A8000109265030E94F8050E94C80686EA91E06C
:100A90000E942E0619821A821B821C8211C0898133
:100AA0009A818E5A9C4FFC01108289819A81AB8178
:100AB000BC810196A11DB11D89839A83AB83BC8340
:100AC00089819A81AB81BC814097A105B10538F33A
:100AD00080916603813031F40E942D0786EA91E00F
:100AE0000E942E06F5CFCF93DF93CDB7DEB7A29746
:100AF0000FB6F894DEBF0FBECDBF20E2CE01039645
:100B0000FC01322F11923A95E9F789EA8B838AEE3C
:100B10008C8387E58D8387EA8E838CEE8F838DEFC0
:100B200088878DE489878FE28A8785E58B878CE6C5
:100B30008C8781E88D8787E88E8789E98F878DE3A9
:100B4000888B8BE7898B89E28A8B80EB90E00E940F
:100B5000BC0A90936303809362031A82198218C0BF
:100B6000209162033091630389819A81820F931FE0
:100B7000AE014D5F5F4F29813A81240F351FF90186
:100B80002081FC01208389819A8101969A8389833F
:100B900089819A81803B91051CF3CE01039640E246
:100BA00050E060E070E00E94E90BA2960FB6F89466
:100BB000DEBF0FBECDBFDF91CF910895CF93DF93FE
:100BC0001F92CDB7DEB78983000080EC90E0FC0176
:100BD0008081882F90E080729927892BB1F386EC71
:100BE00090E02981FC0120830F90DF91CF9108953F
:100BF000CF93DF93CDB7DEB785EC90E0FC01108298
:100C000084EC90E02CE0FC01208380EC90E020EC70
:100C100030E0F90120812260FC01208381EC90E02A
:100C200028E1FC01208382EC90E026E0FC01208397
:100C300082EC90E022EC30E0F90120812F7BFC0176
:100C4000208381EC90E021EC30E0F90120812068E4
:100C5000FC0120837894DF91CF910895CF93DF93A7
:100C6000CDB7DEB760970FB6F894DEBF0FBECDBF2D
:100C7000988B8F877DC08F8598899C012F5F3F4F10
:100C8000388B2F87FC0180810E94DE0580E090E098
:100C9000A0E8BFE389839A83AB83BC8320E030E084
:100CA0004AE755E469817A818B819C810E94270AF9
:100CB000DC01CB018D839E83AF83B88720E030E0D9
:100CC00040E85FE36D817E818F8198850E94A10954
:100CD00088232CF481E090E09A8789873FC020E048
:100CE0003FEF4FE757E46D817E818F8198850E94A9
:100CF000220A18164CF520E030E040E251E4698108
:100D00007A818B819C810E94270ADC01CB01BC0186
:100D1000CD010E94A609DC01CB019A8789870FC00B
:100D200080E991E09C878B878B859C850197F1F703
:100D30009C878B8789859A8501979A87898789857A
:100D40009A85892B69F714C06D817E818F81988582
:100D50000E94A609DC01CB019A87898789859A853B
:100D60009E878D878D859E850197F1F79E878D875C
:100D70008F859889FC018081882309F07CCF60965B
:100D80000FB6F894DEBF0FBECDBFDF91CF910895AF
:100D9000CF93DF93CDB7DEB78CEA91E00E942E06A9
:100DA0008BEC91E00E942E068BEF91E00E942E06C4
:100DB00088E392E00E942E068BE792E00E942E06C6
:100DC0008DEB92E00E942E068CEF92E00E942E06A0
:100DD00084E193E00E942E06DF91CF9108951F9247
:100DE0000F9200905F000F9211242F938F939F9387
:100DF000EF93FF93CF93DF931F92CDB7DEB786ECCF
:100E000090E0FC018081898389818A3031F41092DD
:100E1000640381E08093660312C080916403803193
:100E200070F480916403882F90E08E5A9C4F298142
:100E3000FC012083809164038F5F809364030F9093
:100E4000DF91CF91FF91EF919F918F912F910F9013
:100E500000925F000F901F901895CF93DF93CDB74E
:100E6000DEB70E94380710926603DF91CF91089594
:100E7000CF93DF9300D000D000D0CDB7DEB782E5AE
:100E800093E09E838D8380916203909163030E941F
:100E9000E60020916203309163038D819E81B90148
:100EA0000E94F001F89419821A821B821C8215C0DC
:100EB000209162033091630389819A81820F931F8D
:100EC000FC01108289819A81AB81BC810196A11DB0
:100ED000B11D89839A83AB83BC8389819A81AB815D
:100EE000BC81803B9105A105B10510F319821A82DE
:100EF0001B821C8215C089819A812D813E81820FBF
:100F0000931FFC0180810E94C50789819A81AB8172
:100F1000BC810196A11DB11D89839A83AB83BC83DB
:100F200089819A81AB81BC814097A105B10518F3F5
:100F3000789419821A821B821C8215C02091620348
:100F40003091630389819A81820F931FFC01108283
:100F500089819A81AB81BC810196A11DB11D8983D4
:100F60009A83AB83BC8389819A81AB81BC81803BAE
:100F70009105A105B10510F326960FB6F894DEBFD2
:100F80000FBECDBFDF91CF910895CF93DF93CDB743
:100F9000DEB72C970FB6F894DEBF0FBECDBF8C879F
:100FA00084E690E0A0E0B0E08F839887A987BA87B5
:100FB0008C8582958F70882F90E08F709927880F8D
:100FC000991F9C01220F331F220F331F820F931F83
:100FD0008A5F9E4F9A8389839BC089819A81FC0195
:100FE00080818B878B85882F90E08D32910519F059
:100FF0008E97E1F16CC085E290E025E230E0F901E6
:10100000308120E22327FC0120832F813885498508
:101010005A85DA01C901880F991FAA1FBB1F820FC9
:10102000931FA41FB51F8B839C83AD83BE830BC00E
:101030008B819C81AD81BE810197A109B1098B8310
:101040009C83AD83BE838B819C81AD81BE81892BC6
:101050008A2B8B2B69F785E290E025E230E0F901DD
:10106000308120E22327FC01208331C085E290E01B
:1010700025E230E0F901308120E22327FC012083C2
:101080008F819885A985BA858B839C83AD83BE8328
:101090000BC08B819C81AD81BE810197A109B109F3
:1010A0008B839C83AD83BE838B819C81AD81BE810C
:1010B000892B8A2B8B2B69F785E290E025E230E0C3
:1010C000F901308120E22327FC01208300008F8179
:1010D0009885A985BA858B839C83AD83BE830BC01D
:1010E0008B819C81AD81BE810197A109B1098B8360
:1010F0009C83AD83BE838B819C81AD81BE81892B16
:101100008A2B8B2B69F789819A8101969A8389832F
:1011100089819A81FC018081882309F05ECF8F81CB
:101120009885A985BA85880F991FAA1FBB1F880FAC
:10113000991FAA1FBB1F8B839C83AD83BE830BC0EB
:101140008B819C81AD81BE810197A109B1098B83FF
:101150009C83AD83BE838B819C81AD81BE81892BB5
:101160008A2B8B2B69F78C85882F90E08F709927BD
:10117000880F991F9C01220F331F220F331F820FEC
:10118000931F8A5F9E4F9A8389839BC089819A812E
:10119000FC0180818B878B85882F90E08D329105B3
:1011A00019F08E97E1F16CC085E290E025E230E025
:1011B000F901308120E22327FC0120832F8138852B
:1011C00049855A85DA01C901880F991FAA1FBB1FDB
:1011D000820F931FA41FB51F8B839C83AD83BE8397
:1011E0000BC08B819C81AD81BE810197A109B109A2
:1011F0008B839C83AD83BE838B819C81AD81BE81BB
:10120000892B8A2B8B2B69F785E290E025E230E071
:10121000F901308120E22327FC01208331C085E2DF
:1012200090E025E230E0F901308120E22327FC0143
:1012300020838F819885A985BA858B839C83AD8314
:10124000BE830BC08B819C81AD81BE810197A109BA
:10125000B1098B839C83AD83BE838B819C81AD81DF
:10126000BE81892B8A2B8B2B69F785E290E025E2E2
:1012700030E0F901308120E22327FC0120830000C7
:101280008F819885A985BA858B839C83AD83BE8326
:101290000BC08B819C81AD81BE810197A109B109F1
:1012A0008B839C83AD83BE838B819C81AD81BE810A
:1012B000892B8A2B8B2B69F789819A8101969A83D6
:1012C000898389819A81FC018081882309F05ECF1E
:1012D0008F819885A985BA85880F991FAA1FBB1F82
:1012E000880F991FAA1FBB1F8B839C83AD83BE836E
:1012F0000BC08B819C81AD81BE810197A109B10991
:101300008B839C83AD83BE838B819C81AD81BE81A9
:10131000892B8A2B8B2B69F72C960FB6F894DEBF9E
:101320000FBECDBFDF91CF910895991B79E004C026
:10133000991F961708F0961B881F7A95C9F7809514
:1013400008950E94D50908F481E008950E94010AD9
:1013500088F09F5798F0B92F9927B751B0F0E1F076
:10136000660F771F881F991F1AF0BA95C9F714C026
:10137000B13091F00E941B0AB1E008950C941B0A51
:10138000672F782F8827B85F39F0B93FCCF386955F
:1013900077956795B395D9F73EF4909580957095BC
:1013A00061957F4F8F4F9F4F0895990F0008550FFC
:1013B000AA0BE0E8FEEF16161706E807F907C0F0DB
:1013C00012161306E407F50798F0621B730B840BE3
:1013D000950B39F40A2661F0232B242B252B21F4BD
:1013E00008950A2609F4A140A6958FEF811D811D5D
:1013F000089557FD9058440F551F59F05F3F71F005
:101400004795880F97FB991F61F09F3F79F087956B
:101410000895121613061406551FF2CF4695F1DFF4
:1014200008C0161617061806991FF1CF8695710584
:10143000610508940895E894BB2766277727CB01B8
:1014400097F908950E94D50908F48FEF08950E9436
:101450003A0A0C94AB0A0E949D0A38F00E94A40A32
:1014600020F0952311F00C94940A0C949A0A1124FC
:101470000C941C0A0E94F90970F3959FC1F3950F13
:1014800050E0551F629FF001729FBB27F00DB11D08
:10149000639FAA27F00DB11DAA1F649F6627B00D98
:1014A000A11D661F829F2227B00DA11D621F739F81
:1014B000B00DA11D621F839FA00D611D221F749F8F
:1014C0003327A00D611D231F849F600D211D822FD6
:1014D000762F6A2F11249F5750409AF0F1F08823FD
:1014E0004AF0EE0FFF1FBB1F661F771F881F91502A
:1014F0005040A9F79E3F510580F00C94940A0C943B
:101500001C0A5F3FE4F3983ED4F386957795679580
:10151000B795F795E7959F5FC1F7FE2B880F911D53
:101520009695879597F9089597F99F6780E870E0F9
:1015300060E008959FEF80EC089500240A94161649
:10154000170618060906089500240A9412161306B1
:10155000140605060895092E0394000C11F488233F
:1015600052F0BB0F40F4BF2B11F460FF04C06F5F5B
:101570007F4F8F4F9F4F0895CF93DF938230910518
:1015800010F482E090E0E0916903F0916A0320E0BA
:1015900030E0C0E0D0E0309711F140815181481730
:1015A0005907C0F04817590761F482819381209749
:1015B00019F09B838A832BC090936A0380936903FD
:1015C00026C02115310519F04217530718F49A0166
:1015D000BE01DF01EF010280F381E02DDCCF211598
:1015E000310509F1281B390B2430310590F412968E
:1015F0008D919C9113976115710521F0FB019383E7
:10160000828304C090936A0380936903FD0132963C
:1016100044C0FD01E20FF31F8193919322503109E1
:101620002D933C933AC02091670330916803232B9C
:1016300041F420910201309103013093680320931B
:10164000670320910001309101012115310541F41A
:101650002DB73EB74091040150910501241B350B75
:10166000E0916703F0916803E217F307A0F42E1BE3
:101670003F0B2817390778F0AC014E5F5F4F2417F6
:10168000350748F04E0F5F1F509368034093670380
:101690008193919302C0E0E0F0E0CF01DF91CF9120
:1016A00008950F931F93CF93DF93009709F48CC095
:1016B000FC013297138212820091690310916A0330
:1016C0000115110581F420813181820F931F209132
:1016D0006703309168032817390779F5F093680399
:1016E000E093670371C0D80140E050E0AE17BF0738
:1016F00050F412962D913C911397AD0121153105AF
:1017000009F1D901F3CF9D01DA013383228360818E
:101710007181860F971F8217930769F4EC01288166
:101720003981260F371F2E5F3F4F318320838A81F7
:101730009B8193838283452B29F4F0936A03E09382
:10174000690342C01396FC93EE931297ED01499101
:1017500059919E01240F351FE217F30771F4808120
:101760009181840F951F029611969C938E9382818E
:10177000938113969C938E931297E0E0F0E0D8014A
:1017800012968D919C911397009719F0F8018C0196
:10179000F6CF8D919C9198012E5F3F4F820F931F42
:1017A00020916703309168032817390769F430974F
:1017B00029F410926A031092690302C01382128204
:1017C0001093680300936703DF91CF911F910F91EE
:1017D0000895DC0101C06D9341505040E0F7089539
:0417E000F894FFCFAB
:1017E40000006B0320002D202D202D202D202D0006
:1017F4002E202D202D202D202D002E202E202D209A
:101804002D202D002E202E202E202D202D002E20A8
:101814002E202E202E202D002E202E202E202E2075
:101824002E002D202E202E202E202E002D202D2087
:101834002E202E202E002D202D202D202E202E0077
:101844002D202D202D202D202E002E202D002A2A63
:101854002A2A2A002D202E202E202E002A002D2078
:101864002E202D202E002A002D202E202E002A2A64
:101874002A002E002A2A2A2A2A2A2A002E202E204A
:101884002D202E002A000D0A3E3E2000202020207C
:101894002020202020202020202020202020202044
:1018A40020202020202020200D0A003D3D3D3D3DEC
:1018B4003D204A756E676C6520417373697374616A
:1018C4006E63652053797374656D2056312E302014
:1018D4003D3D3D3D3D3D0D0A0D0A005468697320B0
:1018E400626F6172642077696C6C2068656C70202B
:1018F400796F7520676574206F7574206F66207426
:101904006865206A756E676C6520696E206E6F204D
:1019140074696D65210D0A00577269746520612030
:101924006D657373616765206F66206D6178696D9D
:10193400756D2031362062797465732061736B692B
:101944006E6720666F722068656C702C2074686501
:10195400206D6573736167650D0A0077696C6C208F
:101964006265207472616E736D6974746564205F5E
:10197400656E637279707465645F207573696E67F0
:1019840020746865204C454420616E642061207396
:101994006563726574206B65792E0D0A0054686561
:1019A400206B65792077696C6C2072656D61696E56
:1019B40020736563757265206576656E206966209F
:1019C400746865204A41532066616C6C7320696EAB
:1019D400746F20656E656D790D0A0D0068616E6423
:1019E400732028576520686F706520736F292E0D4A
:1019F4000A0D0A00417320746865204C454420692F
:101A040073206E6F7420706F77657266756C2065D5
:101A14006E6F75676820706C656173652061696DB0
:101A2400206361726566756C792E0D0A0020202092
:021A34000000B0
:00000001FF
