:100000000C9434000C9451000C9451000C94510049
:100010000C9451000C9451000C9451000C9451001C
:100020000C9451000C9451000C9451000C9451000C
:100030000C9451000C9451000C9451000C945100FC
:100040000C9451000C9451000C9451000C945100EC
:100050000C9451000C9451000C9451000C945100DC
:100060000C9451000C94510011241FBECFEFD8E026
:10007000DEBFCDBF12E0A0E0B1E0E6E7F1E102C0F3
:1000800005900D92A43DB107D9F723E0A4EDB2E0AD
:1000900001C01D92A335B207E1F70E9453000C94F2
:1000A000B9080C940000CF93DF93CDB7DEB70E9460
:1000B00084020E94D00180E090E0DF91CF9108950A
:1000C000CF93DF9300D0CDB7DEB79A838983898140
:1000D0009A810E94BC039093D6028093D5020F9020
:1000E0000F90DF91CF910895CF93DF9300D01F92AF
:1000F000CDB7DEB789837B836A8380E18F931F92BC
:100100008AE091E0892F8F938AE091E08F930E949B
:1001100063030F900F900F900F90CE01019620E097
:1001200030E1281B390B8A819B81820F931F292F75
:100130002F938F9389E291E0892F8F9389E291E049
:100140008F930E9463030F900F900F900F900F906A
:100150000F900F90DF91CF910895EF920F931F931F
:10016000CF93DF93CDB7DEB729970FB6F894DEBFF4
:100170000FBECDBF8A836B834C833E832D8318874C
:100180000F83E9861F921F9287E491E0892F8F9356
:1001900087E491E08F930E9463030F900F900F907C
:1001A0000F908CE491E0892F8F938CE491E08F93F2
:1001B0000E9463030F900F901A828A81898725C05D
:1001C0008FE491E0892F8F938FE491E08F930E94C9
:1001D00063030F900F90BAC00E94F1028C838C8150
:1001E0008D30C9F08C818A30B1F02D813E818A81B9
:1001F000882F90E0820F931F2C81FC01208389853A
:100200008F5F89878A818F5F8A838A819A818985B6
:10021000981711F3D5CF8B818930B8F08B818F3F40
:10022000A1F08B81882F90E0292F2F938F9389E65F
:1002300091E0892F8F9389E691E08F930E94630369
:100240000F900F900F900F9081C0198251C02D8197
:100250003E818981882F90E0820F931FFC0180816D
:10026000803358F02D813E818981882F90E0820F64
:10027000931FFC0180818A33C0F12D813E818981E9
:10028000882F90E0820F931FFC018081813458F009
:100290002D813E818981882F90E0820F931FFC0180
:1002A00080818B3510F12D813E818981882F90E0EE
:1002B000820F931FFC018081813658F02D813E8191
:1002C0008981882F90E0820F931FFC0180818B37FA
:1002D00060F08BEA91E0892F8F938BEA91E08F9306
:1002E0000E9463030F900F9031C089818F5F8983D3
:1002F0008981883008F4ABCF87EE91E0892F8F9306
:1003000087EE91E08F930E9463030F900F901A8203
:100310000EC02D813E818A81882F90E0820F931F2D
:10032000FC0180810E94A9028A818F5F8A839A8161
:100330008B81981770F38CE491E0892F8F938CE474
:1003400091E08F930E9463030F900F9029960FB650
:10035000F894DEBF0FBECDBFDF91CF911F910F91FB
:10036000EF900895CF93DF93CDB7DEB78091D4029D
:10037000882399F480E090E00E94F6070E943A05F5
:100380000E94350580952EEB9227BC0180E090E01D
:100390000E94FC0781E08093D402DF91CF91089501
:1003A000EF920F931F93CF93DF93CDB7DEB7E39711
:1003B0000FB6F894DEBF0FBECDBF0E94B2010E94FF
:1003C000350524E630E0B9010E94940384569B4F22
:1003D0009A83898389819A810E94600088E08E8354
:1003E0001F821C821B8286E2EDEAF2E0DE01189693
:1003F00001900D928A95E1F78E81882F90E00E94FE
:10040000BC039C838B838B819C8148E050E060E03F
:1004100070E00E94450580EF91E0892F8F9380EF77
:1004200091E08F930E9463030F900F908CEF91E007
:10043000892F8F938CEF91E08F930E9463030F902D
:100440000F90CE018E9663E00E948003CE018E96BF
:10045000FC01208184E192E0FC018081281709F0F1
:1004600041C086E192E0892F8F9386E192E08F93DD
:100470000E9463030F900F908E81882F90E0292FA8
:100480002F938F938EE492E0892F8F938EE492E0E6
:100490008F930E9463030F900F900F900F908E81A7
:1004A000882F90E0292F2F938F9385E792E0892F53
:1004B0008F9385E792E08F930E9463030F900F90D4
:1004C0000F900F9079A94F816E815D819E01285F09
:1004D0003F4F8B819C81E72E89019C01852F0E94D3
:1004E000AD0011C0CE018E96FC0120818BEA92E016
:1004F000FC018081281739F42E818B819C81BC01FD
:10050000822F0E9474007FCFCF93DF9300D0CDB7AE
:10051000DEB783E390E09A83898385EC90E02981BC
:100520003A81232F3327FC01208384EC90E029813A
:10053000FC01208381EC90E028E1FC01208382EC27
:1005400090E026E0FC0120830F900F90DF91CF9187
:100550000895CF93DF931F92CDB7DEB78983000054
:1005600080EC90E0FC018081882F90E080729927D8
:10057000892BB1F386EC90E02981FC0120830F9058
:10058000DF91CF910895CF93DF9300D0CDB7DEB741
:100590009A8389830BC089819A819C012F5F3F4F89
:1005A0003A832983FC0180810E94A90289819A8172
:1005B000FC018081882379F70F900F90DF91CF9114
:1005C0000895CF93DF93CDB7DEB780EC90E0FC01C8
:1005D0008081882314F481E001C080E0DF91CF9115
:1005E0000895CF93DF93CDB7DEB700000E94E102FC
:1005F0008823E1F386EC90E0FC018081DF91CF91CC
:100600000895CF93DF9300D000D000D0CDB7DEB7F0
:100610009D838C836E8319821A8214C00E94F1021A
:100620008B838B818D3019F08B818A3019F481E0B6
:100630008A8308C08C819D812E8149816B810E94B3
:10064000370389838A81882349F38981882F90E041
:100650002C813D81820F931FFC01108226960FB6DC
:10066000F894DEBF0FBECDBFDF91CF910895CF9339
:10067000DF9300D000D01F92CDB7DEB79A83898375
:100680006B834C832D838C81282F30E08D81882FC4
:1006900090E00197281739076CF48C8191E0980F4E
:1006A0009C83882F90E029813A81820F931F2B81B0
:1006B000FC0120838C810F900F900F900F900F9072
:1006C000DF91CF910895CF93DF9300D0CDB7DEB700
:1006D000CE0109969A83898329813A818F819885F1
:1006E000AC0168E770E087ED92E00E944C0587ED71
:1006F00092E00E94C3020F900F90DF91CF91089576
:10070000CF93DF9300D01F92CDB7DEB79A83898352
:100710006B8389819A816B810E9401030F900F90F6
:100720000F90DF91CF91089597FB072E16F4009458
:1007300007D077FD09D00E94A80307FC05D03EF43E
:10074000909581959F4F0895709561957F4F08957D
:10075000AA1BBB1B51E107C0AA1FBB1FA617B707E7
:1007600010F0A61BB70B881F991F5A95A9F7809503
:100770009095BC01CD010895CF93DF938230910510
:1007800010F482E090E0E0915103F091520320E0F8
:1007900030E0C0E0D0E0309711F14081518148173E
:1007A0005907C0F04817590761F482819381209757
:1007B00019F09B838A832BC090935203809351033B
:1007C00026C02115310519F04217530718F49A0174
:1007D000BE01DF01EF010280F381E02DDCCF2115A6
:1007E000310509F1281B390B2430310590F412969C
:1007F0008D919C9113976115710521F0FB019383F5
:10080000828304C09093520380935103FD0132967A
:1008100044C0FD01E20FF31F8193919322503109EF
:100820002D933C933AC020914F0330915003232BDA
:1008300041F4209102013091030130935003209341
:100840004F0320910001309101012115310541F440
:100850002DB73EB74091040150910501241B350B83
:10086000E0914F03F0915003E217F307A0F42E1B21
:100870003F0B2817390778F0AC014E5F5F4F241704
:10088000350748F04E0F5F1F5093500340934F03BE
:100890008193919302C0E0E0F0E0CF01DF91CF912E
:1008A00008950F931F93CF93DF93009709F48CC0A3
:1008B000FC0132971382128200915103109152036E
:1008C0000115110581F420813181820F931F209140
:1008D0004F03309150032817390779F5F0935003EF
:1008E000E0934F0371C0D80140E050E0AE17BF075E
:1008F00050F412962D913C911397AD0121153105BD
:1009000009F1D901F3CF9D01DA013383228360819C
:100910007181860F971F8217930769F4EC01288174
:100920003981260F371F2E5F3F4F318320838A8105
:100930009B8193838283452B29F4F0935203E093A8
:10094000510342C01396FC93EE931297ED01499127
:1009500059919E01240F351FE217F30771F480812E
:100960009181840F951F029611969C938E9382819C
:10097000938113969C938E931297E0E0F0E0D80158
:1009800012968D919C911397009719F0F8018C01A4
:10099000F6CF8D919C9198012E5F3F4F820F931F50
:1009A00020914F03309150032817390769F430978D
:1009B00029F4109252031092510302C01382128242
:1009C0001093500300934F03DF91CF911F910F912C
:1009D00008958F929F92AF92BF92CF92DF92EF9243
:1009E000FF92CF93DF93EC01688179818A819B81AB
:1009F000611571058105910521F464E279ED8BE5BE
:100A000097E02DE133EF41E050E00E941F084901DB
:100A10005A019B01AC01A7EAB1E40E943E086B01B8
:100A20007C01ACEEB4EFA50194010E944C08DC01FE
:100A3000CB018C0D9D1DAE1DBF1DB7FF03C00197DF
:100A4000A109B04888839983AA83BB839F77DF91EC
:100A5000CF91FF90EF90DF90CF90BF90AF909F909D
:100A60008F9008950E94E904089586E091E00E9425
:100A7000E9040895A0E0B0E0809306019093070197
:100A8000A0930801B09309010895DC0101C06D93A2
:100A900041505040E0F70895AEE0B0E0E2E5F5E007
:100AA0000C945F088C01CA0146E04C831A830983C9
:100AB00077FF02C060E070E8FB013197FE83ED83B1
:100AC000A901BC01CE0101960E9478054D815E818D
:100AD00057FD0AC02F813885421753070CF49A013D
:100AE000F801E20FF31F10822E96E4E00C947B08CD
:100AF000ACE0B0E0EEE7F5E00C9451087C016B014E
:100B00008A01FC0117821682838181FFBDC1CE015B
:100B100001964C01F7019381F60193FD859193FFB6
:100B200081916F01882309F4ABC1853239F493FDBB
:100B3000859193FF81916F01853229F4B70190E08F
:100B40000E946007E7CF512C312C20E02032A0F426
:100B50008B3269F030F4803259F0833269F42061CD
:100B60002CC08D3239F0803339F4216026C02260E8
:100B7000246023C0286021C027FD27C030ED380F36
:100B80003A3078F426FF06C0FAE05F9E300D11245B
:100B9000532E13C08AE0389E300D1124332E20626C
:100BA0000CC08E3221F426FD6BC1206406C08C3649
:100BB00011F4206802C0883641F4F60193FD859156
:100BC00093FF81916F018111C1CF982F9F7D955423
:100BD000933028F40C5F1F4FFFE3F9830DC0833679
:100BE00031F0833771F0833509F05BC022C0F80122
:100BF000808189830E5F1F4F44244394512C5401FC
:100C000015C03801F2E06F0E711CF801A080B180B0
:100C100026FF03C0652D70E002C06FEF7FEFC501B6
:100C20002C870E9455072C0183012C852F77222EBB
:100C300017C03801F2E06F0E711CF801A080B1807E
:100C400026FF03C0652D70E002C06FEF7FEFC50186
:100C50002C870E944A072C012C852068222E8301B4
:100C600023FC1BC0832D90E048165906B0F4B70151
:100C700080E290E00E9460073A94F4CFF50127FCEF
:100C8000859127FE81915F01B70190E00E94600786
:100C900031103A94F1E04F1A51084114510471F7A0
:100CA000E5C0843611F0893639F5F80127FF07C011
:100CB00060817181828193810C5F1F4F08C06081C8
:100CC0007181072E000C880B990B0E5F1F4F2F763A
:100CD000722E97FF09C090958095709561957F4F12
:100CE0008F4F9F4F2068722E2AE030E0A4010E94AF
:100CF0009807A82EA81844C0853729F42F7EB22E55
:100D00002AE030E025C0F22FF97FBF2E8F36C1F0E8
:100D100018F4883579F0B4C0803719F0883721F09D
:100D2000AFC02F2F2061B22EB4FE0DC08B2D84607A
:100D3000B82E09C024FF0AC09F2F9660B92E06C0A6
:100D400028E030E005C020E130E002C020E132E0E0
:100D5000F801B7FE07C060817181828193810C5FC9
:100D60001F4F06C06081718180E090E00E5F1F4FD1
:100D7000A4010E949807A82EA818FB2DFF777F2EAC
:100D800076FE0BC0372D3E7FA51450F474FE0AC0CA
:100D900072FC08C0372D3E7E05C0BA2C372D03C02B
:100DA000BA2C01C0B52C34FF0DC0FE01EA0DF11DB7
:100DB0008081803311F4397E09C032FF06C0B394BC
:100DC000B39404C0832F867809F0B39433FD13C025
:100DD00030FF06C05A2CB31418F4530C5B18B32C14
:100DE000B31468F4B70180E290E03C870E9460078A
:100DF000B3943C85F5CFB31410F43B1801C0312CEB
:100E000034FF12C0B70180E390E03C870E94600786
:100E10003C8532FF17C031FD03C088E790E002C077
:100E200088E590E0B7010CC0832F867859F031FF38
:100E300002C08BE201C080E237FD8DE2B70190E095
:100E40000E946007A51438F4B70180E390E00E9487
:100E500060075A94F7CFAA94F401EA0DF11D80813E
:100E6000B70190E00E946007A110F5CF332009F48C
:100E700051CEB70180E290E00E9460073A94F6CF2D
:100E8000F7018681978102C08FEF9FEF2C96E2E1F8
:100E90000C946D08FC010590615070400110D8F76A
:100EA000809590958E0F9F1F0895FC0161507040B2
:100EB00001900110D8F7809590958E0F9F1F08958F
:100EC0000F931F93CF93DF93FB01238121FD03C079
:100ED0008FEF9FEF28C022FF16C0468157812481E3
:100EE00035814217530744F4A081B1819D012F5FE2
:100EF0003F4F318320838C93268137812F5F3F4F73
:100F00003783268310C0EB01092F182F0084F18549
:100F1000E02D0995892BE1F68E819F8101969F83B3
:100F20008E83812F902FDF91CF911F910F91089584
:100F3000FA01AA27283051F1203181F1E8946F930A
:100F40006E7F6E5F7F4F8F4F9F4FAF4FB1E03ED0B0
:100F5000B4E03CD0670F781F891F9A1FA11D680F4E
:100F6000791F8A1F911DA11D6A0F711D811D911D81
:100F7000A11D20D009F468943F912AE0269F1124F6
:100F80003019305D3193DEF6CF010895462F47705A
:100F9000405D4193B3E00FD0C9F7F6CF462F4F70B5
:100FA000405D4A3318F0495D31FD4052419302D013
:100FB000A9F7EACFB4E0A6959795879577956795B9
:100FC000BA95C9F700976105710508959B01AC01B9
:100FD0000A2E06945795479537952795BA95C9F7E0
:100FE000620F731F841F951FA01D0895A8E1B0E034
:100FF00042E050E00C9403080E941108272F0C9443
:101000001208DC01CB01FC01F999FECF06C0F2BD4C
:10101000E1BDF89A319600B40D9241505040B8F7B6
:101020000895262FF999FECF1FBA92BD81BD20BD2C
:101030000FB6F894FA9AF99A0FBE01960895052E04
:1010400097FB1EF400940E94360857FD07D00E94BB
:10105000880807FC03D04EF40C9436085095409550
:10106000309521953F4F4F4F5F4F08959095809554
:10107000709561957F4F8F4F9F4F08950E94AA08EA
:10108000A59F900DB49F900DA49F800D911D1124DC
:101090000895B7FF0C943E080E943E08821B930BF4
:1010A00008952F923F924F925F926F927F928F920C
:1010B0009F92AF92BF92CF92DF92EF92FF920F93E7
:1010C0001F93CF93DF93CDB7DEB7CA1BDB0B0FB6F1
:1010D000F894DEBF0FBECDBF09942A8839884888AE
:1010E0005F846E847D848C849B84AA84B984C88444
:1010F000DF80EE80FD800C811B81AA81B981CE0F3B
:10110000D11D0FB6F894DEBF0FBECDBFED0108951F
:10111000A1E21A2EAA1BBB1BFD010DC0AA1FBB1FFB
:10112000EE1FFF1FA217B307E407F50720F0A21B6D
:10113000B30BE40BF50B661F771F881F991F1A94DA
:1011400069F760957095809590959B01AC01BD0104
:10115000CF010895A29FB001B39FC001A39F700D5E
:10116000811D1124911DB29F700D811D1124911DAF
:061170000895F894FFCF82
:1011760000005303200001000000546F74616C20CE
:101186006D656D6F72792073706163653A202564B1
:101196002062797465730D0A004D656D6F72792052
:1011A600737061636520757365643A2025642062F7
:1011B600797465730D0A0025630D0A000D0A005344
:1011C6007461636B20636F6F6B696520636F727206
:1011D60075707465642E0D0A00546865206C656E22
:1011E600677468206973206E6F7420657175616C11
:1011F60020746F203820616E796D6F72652E2049DC
:101206007420697320666F756E6420746F20626542
:10121600202564206E6F772E0D0A00486172647770
:1012260061726520746F6B656E7320617265206EE6
:101236006F74206F6620676976656E204153434957
:1012460049207375622D7365742E2041626F727426
:10125600696E672E0D0A0057656C636F6D65200019
:101266005B315D204C6F67696E0D0A005B325D2055
:101276004D656D6F7279206D616E6167656D656E26
:10128600740D0A003100506C6561736520617574D8
:1012960068656E74696361746520796F75727365CC
:1012A6006C66207769746820796F75722068617240
:1012B600647761726520746F6B656E0D0A00506C01
:1012C6006561736520696E7365727420746F6B65F2
:1012D6006E2E2028256420636861726163746572CE
:1012E60073290D0A00546F6B656E2063616E206F63
:1012F6006E6C7920636F6E7461696E207468652008
:1013060063686172616374657273205B412D5A2F45
:10131600612D7A2F302D395D0D0A003200464C4181
:10132600473A4431645F7930755F736D3473685F33
:101336006D795F737461636B5F62726F3F2020200B
:041346002020000063
:00000001FF
