:100000000C94BA000C94D7000C94D7000C94D70031
:100010000C94D7000C94D7000C94D7000C94D70004
:100020000C94D7000C94D7000C94D7000C94D700F4
:100030000C94D7000C94D7000C94D7000C94D700E4
:100040000C94D7000C94D7000C94D7000C94D700D4
:100050000C94D7000C94D7000C94D7000C94D700C4
:100060000C94D7000C94D700637C777BF26B6FC540
:100070003001672BFED7AB76CA82C97DFA5947F0AB
:10008000ADD4A2AF9CA472C0B7FD9326363FF7CC87
:1000900034A5E5F171D8311504C723C31896059A24
:1000A000071280E2EB27B27509832C1A1B6E5AA047
:1000B000523BD6B329E32F8453D100ED20FCB15B32
:1000C0006ACBBE394A4C58CFD0EFAAFB434D33859B
:1000D00045F9027F503C9FA851A3408F929D38F56F
:1000E000BCB6DA2110FFF3D2CD0C13EC5F974417A6
:1000F000C4A77E3D645D197360814FDC222A90881D
:1001000046EEB814DE5E0BDBE0323A0A4906245CA8
:10011000C2D3AC629195E479E7C8376D8DD54EA90D
:100120006C56F4EA657AAE08BA78252E1CA6B4C6D9
:10013000E8DD741F4BBD8B8A703EB5664803F60E32
:10014000613557B986C11D9EE1F8981169D98E9421
:100150009B1E87E9CE5528DF8CA1890DBFE642683A
:1001600041992D0FB054BB168D0102040810204098
:10017000801B366C11241FBECFEFD8E0DEBFCDBF91
:1001800012E0A0E0B1E0ECE9FAE202C005900D92C5
:10019000AC3DB107D9F723E0ACEDB2E001C01D9250
:1001A000A835B207E1F70E94530C0C944C150C943F
:1001B0000000782F8827769531F008F48627660F9F
:1001C00008F46427F8CF08F486270895CF93DF93C7
:1001D000CDB7DEB76B970FB6F894DEBF0FBECDBFBD
:1001E000998F888F84E08A8384E08B838AE08C8374
:1001F0008B818983A2C08981882F90E08150904CA7
:10020000880F991F880F991F288D398D820F931F92
:10021000FC0180819181A281B3818C8B9D8BAE8BFF
:10022000BF8B89819B81692F0E940E10892F8823A3
:1002300009F050C0CE0144960E94BD018C89882FE0
:1002400090E088599F4F9E838D838D819E81FC0114
:1002500084918F838F818C8B8D89882F90E0885932
:100260009F4F9987888788859985FC0184918A8723
:100270008A858D8B8E89882F90E088599F4F9C8727
:100280008B878B859C85FC0184918D878D858E8BDA
:100290008F89882F90E088599F4F9F878E878E8502
:1002A0009F85FC018491888B88898F8B89819B81B4
:1002B000692F0E940E10882F90E088599E4F9A8BCC
:1002C000898B89899A89FC0184918B8B8B899C8984
:1002D00089278C8B8981882F90E0880F991F880F40
:1002E000991F288D398DB901680F791F8981282FB1
:1002F00030E08B81882F90E0A901481B590BCA017F
:10030000880F991F880F991F288D398D820F931F91
:10031000FC0120813181428153818C899D89AE8984
:10032000BF8982279327A427B527FB018083918368
:10033000A283B38389818F5F89838981282F30E0ED
:100340008A81682F70E08C81882F90E0AC014F5F2C
:100350005F4F649FC001659F900D749F900D1124A5
:10036000281739070CF447CF6B960FB6F894DEBF09
:100370000FBECDBFDF91CF910895CF93DF9300D013
:100380001F92CDB7DEB79B838A838A819B81FC0154
:10039000808189838A819B81FC0121818A819B8163
:1003A000FC0120838A819B8101962A813B81F9018E
:1003B0002281FC0120838A819B8102962A813B81D4
:1003C000F9012381FC0120838A819B810396298185
:1003D000FC0120830F900F900F90DF91CF91089533
:1003E000CF93DF9300D000D000D0CDB7DEB79C8391
:1003F0008B837E836D838AE08A8319821FC0898103
:10040000882F90E02B813C81820F931F2981222F1E
:1004100030E04B815C81240F351FF9016081298117
:10042000222F30E04D815E81240F351FF90120819C
:100430002627FC01208389818F5F89838981803110
:10044000F0F281E0898319C08981882F90E082953C
:100450009295907F9827807F98279C018D819E811F
:10046000280F391F8B819C81B9010E945C02898110
:100470008F5F89838A8181508A838A81823020F7C5
:100480008981882F90E082959295907F9827807F30
:1004900098279C018D819E81280F391F8B819C811B
:1004A000B9010E94350426960FB6F894DEBF0FBE40
:1004B000CDBFDF91CF9108950F931F93CF93DF931B
:1004C000CDB7DEB769970FB6F894DEBF0FBECDBFCC
:1004D0009F8B8E8B798F688F198222C08981882F9C
:1004E00090E02981222F30E04E895F89240F351F4B
:1004F000F9012081222F30E028593F4F3B832A8386
:100500002A813B81F90124912C834C819E012A5F31
:100510003F4F820F931FFC01408389818F5F898346
:1005200089818031D8F2CE010696019661E00E9461
:10053000A804CE010696029662E00E94A804CE01AD
:100540000696039663E00E94A80419825BC1898124
:10055000882F90E0880F991F880F991F9E012A5FAE
:100560003F4F820F931FFC0140818981882F90E0CB
:10057000880F991F880F991F01969E012A5F3F4F90
:10058000820F931FFC01808148278981882F90E08A
:10059000880F991F880F991F02969E012A5F3F4F6F
:1005A000820F931FFC01808148278981882F90E06A
:1005B000880F991F880F991F03969E012A5F3F4F4E
:1005C000820F931FFC01808184278D838981882F6E
:1005D00090E0880F991F880F991F9C018E899F8931
:1005E0008C01020F131F8981882F90E0880F991FBB
:1005F000880F991F9E012A5F3F4F820F931FFC01B6
:1006000040818981882F90E0880F991F880F991F5A
:1006100001969E012A5F3F4F820F931FFC0180814C
:1006200084274BE1682F82E00E94D900482F8981FE
:10063000882F90E0880F991F880F991F9E012A5FCD
:100640003F4F820F931FFC018081942F98278D814B
:100650008927F80180838981882F90E0880F991F6E
:10066000880F991F01962E893F898901080F191F4C
:100670008981882F90E0880F991F880F991F019614
:100680009E012A5F3F4F820F931FFC0140818981A9
:10069000882F90E0880F991F880F991F02969E015E
:1006A0002A5F3F4F820F931FFC01808184274BE11B
:1006B000682F82E00E94D900482F8981882F90E01E
:1006C000880F991F880F991F01969E012A5F3F4F3F
:1006D000820F931FFC018081942F98278D81892799
:1006E000F80180838981882F90E0880F991F880FF7
:1006F000991F02962E893F898901080F191F898148
:10070000882F90E0880F991F880F991F02969E01ED
:100710002A5F3F4F820F931FFC0140818981882F00
:1007200090E0880F991F880F991F03969E012A5FFA
:100730003F4F820F931FFC01808184274BE1682F7C
:1007400082E00E94D900482F8981882F90E0880F8D
:10075000991F880F991F02969E012A5F3F4F820FB3
:10076000931FFC018081942F98278D818927F801A0
:1007700080838981882F90E0880F991F880F991FA7
:1007800003962E893F898901080F191F8981882FB7
:1007900090E0880F991F880F991F03969E012A5F8A
:1007A0003F4F820F931FFC0140818981882F90E089
:1007B000880F991F880F991F9E012A5F3F4F820F54
:1007C000931FFC01808184274BE1682F82E00E9407
:1007D000D900482F8981882F90E0880F991F880FB2
:1007E000991F03969E012A5F3F4F820F931FFC01C2
:1007F0008081942F98278D818927F80180838981B2
:100800008F5F89838981843008F4A1CE19821FC04B
:100810008981882F90E02E893F89820F931F29813B
:10082000222F30E04E895F89240F351FF901608146
:100830002981222F30E0488D598D240F351FF90171
:1008400020812627FC01208389818F5F898389810C
:100850008031F0F269960FB6F894DEBF0FBECDBFBF
:10086000DF91CF911F910F910895CF93DF93CDB773
:10087000DEB728970FB6F894DEBF0FBECDBF9E83BC
:100880008D8378876F83198221C08981882F90E0BA
:100890002D813E81820F931F2981222F30E04D81CF
:1008A0005E81240F351FF9012081222F30E0285965
:1008B0003F4F3B832A832A813B81F90124912C837A
:1008C0002C81FC01208389818F5F8983898180311C
:1008D000E0F28D819E81019661E00E94A8048D81E5
:1008E0009E81029662E00E94A8048D819E810396FB
:1008F00063E00E94A80419821FC08981882F90E0BC
:100900002D813E81820F931F2981222F30E04D815E
:100910005E81240F351FF90160812981222F30E08B
:100920004F815885240F351FF90120812627FC01AE
:10093000208389818F5F898389818031F0F22896B5
:100940000FB6F894DEBF0FBECDBFDF91CF910895F3
:10095000CF93DF93CDB7DEB727970FB6F894DEBFFE
:100960000FBECDBF9E838D836F838D819E81FC01E1
:10097000808189838D819E81FC0184818A838D8120
:100980009E81FC0180858B838D819E81FC01848505
:100990008C838F81882F90E0837099279E012F5F31
:1009A0003F4F820F931FFC0120818D819E81FC01AE
:1009B00020838D819E8104962F81222F30E02F5F2E
:1009C0003F4F23703327AE014F5F5F4F240F351F1A
:1009D000F9012081FC0120838D819E8108962F8161
:1009E000222F30E02E5F3F4F23703327AE014F5F41
:1009F0005F4F240F351FF9012081FC0120838D8179
:100A00009E810C962F81222F30E02D5F3F4F237067
:100A10003327AE014F5F5F4F240F351FF90120814F
:100A2000FC01208327960FB6F894DEBF0FBECDBF22
:100A3000DF91CF910895CF93DF931F92CDB7DEB7AB
:100A40008983000080EC90E0FC018081882F90E099
:100A500080729927892BB1F386EC90E02981FC0103
:100A600020830F90DF91CF910895CF93DF93CDB77F
:100A7000DEB785EC90E0FC01108284EC90E023E38B
:100A8000FC01208381EC90E028E1FC01208382ECD2
:100A900090E026E0FC01208382EC90E022EC30E044
:100AA000F90120812F7BFC01208381EC90E021EC77
:100AB00030E0F90120812068FC012083DF91CF9193
:100AC0000895CF93DF93CDB7DEB760970FB6F89454
:100AD000DEBF0FBECDBF988B8F877DC08F85988975
:100AE0009C012F5F3F4F388B2F87FC0180810E9434
:100AF0001B0580E090E0A0E8BFE389839A83AB8385
:100B0000BC8320E030E04AE755E469817A818B813B
:100B10009C810E94A010DC01CB018D839E83AF835A
:100B2000B88720E030E040E85FE36D817E818F810F
:100B300098850E941A1088232CF481E090E09A870F
:100B400089873FC020E03FEF4FE757E46D817E810A
:100B50008F8198850E949B1018164CF520E030E09C
:100B600040E251E469817A818B819C810E94A010CE
:100B7000DC01CB01BC01CD010E941F10DC01CB01C7
:100B80009A8789870FC080E991E09C878B878B8546
:100B90009C850197F1F79C878B8789859A850197BA
:100BA0009A87898789859A85892B69F714C06D8111
:100BB0007E818F8198850E941F10DC01CB019A876E
:100BC000898789859A859E878D878D859E850197E2
:100BD000F1F79E878D878F859889FC018081882316
:100BE00009F07CCF60960FB6F894DEBF0FBECDBF84
:100BF000DF91CF910895CF93DF93CDB7DEB780EC2F
:100C000090E0FC018081882314F481E001C080E041
:100C1000DF91CF910895CF93DF93CDB7DEB700007A
:100C20000E94FB058823E1F386EC90E0FC018081C3
:100C3000DF91CF910895CF93DF9300D0CDB7DEB78A
:100C4000CE0109969A83898329813A818F8198857B
:100C5000AC0168E770E08CED92E00E946B128CEDC5
:100C600092E00E9461050F900F90DF91CF9108955F
:100C7000CF93DF9300D000D01F92CDB7DEB79A8319
:100C800089836B834C832D838B810E941B058C8110
:100C9000282F30E08D81882F90E0019728173907A1
:100CA0006CF48C8191E0980F9C83882F90E02981CF
:100CB0003A81820F931F2B81FC0120838C810F903E
:100CC0000F900F900F900F90DF91CF910895CF93D9
:100CD000DF9300D000D000D0CDB7DEB79D838C83EA
:100CE0006E8319821A8214C00E940B068B838B813B
:100CF0008D3019F481E08A830BC08B818A3041F0FA
:100D00008C819D812E8149816B810E943806898367
:100D10008A81882349F38981882F90E02C813D8145
:100D2000820F931FFC011082898126960FB6F894DA
:100D3000DEBF0FBECDBFDF91CF910895CF93DF937C
:100D4000CDB7DEB78CE790E020E4FC0120838AE792
:100D500090E027E8FC012083DF91CF910895CF93A5
:100D6000DF931F92CDB7DEB789838981877089832E
:100D70008CE790E02CE730E0F90130812981232BCA
:100D8000FC0120838AE790E02AE730E0F901208126
:100D90002064FC01208300008AE790E0FC01808150
:100DA000882F90E080719927892BB1F38AE790E032
:100DB0002AE730E0F90120812061FC01208388E7E7
:100DC00090E0FC01808191810F90DF91CF91089597
:100DD0000F931F93CF93DF93CDB7DEB764970FB612
:100DE000F894DEBF0FBECDBF9A8B898B7C8B6B8B4B
:100DF0008B899C89FC0180818D3031F08B899C89A5
:100E0000FC0180818A3029F48B899C8901969C8B16
:100E10008B8B89899A890E9462128C018B899C89AB
:100E20000E9462120817190719F080E090E09BC039
:100E30001A8219828CC080E090E0A0E8BFE38B8327
:100E40009C83AD83BE8320E030E04AE755E46B81AC
:100E50007C818D819E810E94A010DC01CB018F835B
:100E60009887A987BA8720E030E040E85FE36F8188
:100E7000788589859A850E941A1088232CF481E050
:100E800090E09C878B873FC020E03FEF4FE757E41F
:100E90006F81788589859A850E949B1018164CF57C
:100EA00020E030E040E251E46B817C818D819E81C5
:100EB0000E94A010DC01CB01BC01CD010E941F10DB
:100EC000DC01CB019C878B870FC080E991E09E8776
:100ED0008D878D859E850197F1F79E878D878B8500
:100EE0009C8501979C878B878B859C85892B69F7CF
:100EF00014C06F81788589859A850E941F10DC0156
:100F0000CB019C878B878B859C85988B8F878F8562
:100F100098890197F1F7988B8F8789819A81298920
:100F20003A89820F931FFC01408189819A812B8924
:100F30003C89820F931FFC018081481719F080E0E3
:100F400090E011C089819A8101969A8389830981F1
:100F50001A8189899A890E9462120817190708F470
:100F60006ACF81E090E064960FB6F894DEBF0FBEC2
:100F7000CDBFDF91CF911F910F9108950F931F93D4
:100F8000CF93DF93CDB7DEB7C855D1090FB6F8942C
:100F9000DEBF0FBECDBF9E01295A3F4FF90191839D
:100FA000808380EB90E00E9435119A83898383E0EF
:100FB0000E94AF06282F89819A81FC01208380E05E
:100FC00090E0A0E8BFE38B839C83AD83BE8320E0E9
:100FD00030E04AE755E46B817C818D819E810E94DF
:100FE000A010DC01CB018F839887A987BA8720E006
:100FF00030E040E85FE36F81788589859A850E94BB
:101000001A1088232CF481E090E09C878B873FC0E6
:1010100020E03FEF4FE757E46F81788589859A8517
:101020000E949B1018164CF520E030E040E251E49D
:101030006B817C818D819E810E94A010DC01CB019F
:10104000BC01CD010E941F10DC01CB019C878B8766
:101050000FC080E991E09E878D878D859E850197E1
:10106000F1F79E878D878B859C8501979C878B8761
:101070008B859C85892B69F714C06F81788589855C
:101080009A850E941F10DC01CB019C878B878B8582
:101090009C85988B8F878F8598890197F1F7988B1E
:1010A0008F8789819A818C010F5F1F4F83E00E9497
:1010B000AF06F801808380E090E0A0E8BFE3898B71
:1010C0009A8BAB8BBC8B20E030E04AE755E4698912
:1010D0007A898B899C890E94A010DC01CB018D8BC1
:1010E0009E8BAF8BB88F20E030E040E85FE36D89E6
:1010F0007E898F89988D0E941A1088232CF481E0B4
:1011000090E09A8F898F3FC020E03FEF4FE757E490
:101110006D897E898F89988D0E949B1018164CF5D9
:1011200020E030E040E251E469897A898B899C892A
:101130000E94A010DC01CB01BC01CD010E941F1058
:10114000DC01CB019A8F898F0FC080E991E09C8FE1
:101150008B8F8B8D9C8D0197F1F79C8F8B8F898D59
:101160009A8D01979A8F898F898D9A8D892B69F72E
:1011700014C06D897E898F89988D0E941F10DC01B3
:10118000CB019A8F898F898D9A8D9E8F8D8F8D8DB2
:101190009E8D0197F1F79E8F8D8F89819A818C01A9
:1011A0000E5F1F4F83E00E94AF06F801808380E04E
:1011B00090E0A0E8BFE38F8F98A3A9A3BAA320E093
:1011C00030E04AE755E46F8D78A189A19AA10E9489
:1011D000A010DC01CB018BA39CA3ADA3BEA320E098
:1011E00030E040E85FE36BA17CA18DA19EA10E944D
:1011F0001A1088232CF481E090E098A78FA33FC0B9
:1012000020E03FEF4FE757E46BA17CA18DA19EA1A9
:101210000E949B1018164CF520E030E040E251E4AB
:101220006F8D78A189A19AA10E94A010DC01CB0149
:10123000BC01CD010E941F10DC01CB0198A78FA338
:101240000FC080E991E09AA789A789A59AA501977F
:10125000F1F79AA789A78FA198A5019798A78FA3BF
:101260008FA198A5892B69F714C06BA17CA18DA1D2
:101270009EA10E941F10DC01CB0198A78FA38FA114
:1012800098A59CA78BA78BA59CA50197F1F79CA778
:101290008BA789819A818C010D5F1F4F83E00E948B
:1012A000AF06F801808380E090E0A0E8BFE38DA75F
:1012B0009EA7AFA7B8AB20E030E04AE755E46DA5A4
:1012C0007EA58FA598A90E94A010DC01CB0189AB57
:1012D0009AABABABBCAB20E030E040E85FE369A980
:1012E0007AA98BA99CA90E941A1088232CF481E06A
:1012F00090E09EAB8DAB3FC020E03FEF4FE757E45F
:1013000069A97AA98BA99CA90E949B1018164CF573
:1013100020E030E040E251E46DA57EA58FA598A9BC
:101320000E94A010DC01CB01BC01CD010E941F1066
:10133000DC01CB019EAB8DAB0FC080E991E098AF93
:101340008FAB8FA998AD0197F1F798AF8FAB8DA9AF
:101350009EA901979EAB8DAB8DA99EA9892B69F79C
:1013600014C069A97AA98BA99CA90E941F10DC014D
:10137000CB019EAB8DAB8DA99EA99AAF89AF89ADEC
:101380009AAD0197F1F79AAF89AF89819A818C0163
:101390000C5F1F4F83E00E94AF06F801808380E05E
:1013A00090E0A0E8BFE38BAF9CAFADAFBEAF8E01C6
:1013B000015C1F4F20E030E04AE755E46BAD7CADA7
:1013C0008DAD9EAD0E94A010DC01CB01F8018083A1
:1013D0009183A283B383CE01CF9620E030E040E832
:1013E0005FE3FC0160817181828193810E941A1008
:1013F00088234CF4CE018D5B9F4F21E030E0FC014F
:101400003183208367C0CE01CF9620E03FEF4FE7C6
:1014100057E4FC0160817181828193810E949B105D
:1014200018160CF046C020E030E040E251E46BAD0D
:101430007CAD8DAD9EAD0E94A010DC01CB018E0174
:101440000D5B1F4FBC01CD010E941F10DC01CB01C1
:10145000F8019183808324C0CE018B5B9F4F20E9EC
:1014600031E0FC0131832083CE018B5B9F4FFC0177
:10147000808191810197F1F79E012B5B3F4FF9012C
:1014800091838083CE018D5B9F4F9E012D5B3F4FEB
:10149000F9012081318121503109FC013183208300
:1014A000CE018D5B9F4FFC0180819181892BA1F63C
:1014B0002BC08E010D5B1F4FCE01CF96FC016081CA
:1014C0007181828193810E941F10DC01CB01F801A0
:1014D00091838083CE01895B9F4F9E012D5B3F4F9F
:1014E000F90120813181FC0131832083CE01895BA8
:1014F0009F4FFC01808191810197F1F79E01295B4B
:101500003F4FF9019183808389819A818C010B5F20
:101510001F4F83E00E94AF06F80180839E01275B86
:101520003F4F80E090E0A0E8BFE3F9018083918322
:10153000A283B3838E01035B1F4FCE01875B9F4F56
:1015400020E030E04AE755E4FC016081718182814E
:1015500093810E94A010DC01CB01F801808391836C
:10156000A283B383CE01835B9F4F20E030E040E84D
:101570005FE3FC0160817181828193810E941A1076
:1015800088234CF4CE018F5A9F4F21E030E0FC01BC
:10159000318320836DC0CE01835B9F4F20E03FEFFE
:1015A0004FE757E4FC0160817181828193810E9441
:1015B0009B1018160CF04AC0CE01875B9F4F20E0AD
:1015C00030E040E251E4FC016081718182819381CD
:1015D0000E94A010DC01CB018E010F5A1F4FBC01ED
:1015E000CD010E941F10DC01CB01F80191838083A3
:1015F00024C0CE018D5A9F4F20E931E0FC01318398
:101600002083CE018D5A9F4FFC01808191810197EB
:10161000F1F79E012D5A3F4FF90191838083CE014E
:101620008F5A9F4F9E012F5A3F4FF90120813181E0
:1016300021503109FC0131832083CE018F5A9F4F05
:10164000FC0180819181892BA1F62CC08E010F5A5B
:101650001F4FCE01835B9F4FFC01608171818281AE
:1016600093810E941F10DC01CB01F80191838083DC
:10167000CE018B5A9F4F9E012F5A3F4FF901208177
:101680003181FC0131832083CE018B5A9F4FFC01B5
:10169000808191810197F1F79E012B5A3F4FF9010B
:1016A0009183808389819A818C010A5F1F4F83E037
:1016B0000E94AF06F801808389819A810796FC0118
:1016C000108289819A810896FC01108289819A8111
:1016D0000996FC01108289819A810A96FC01108288
:1016E00089819A810B96FC01108289819A810C96DE
:1016F000FC01108289819A810D96FC0110828981FA
:101700009A810E96FC01108289819A810F96FC01C4
:10171000108289819A81FC012081CE01895A9F4FD4
:10172000FC0180819181FC012083CE01895A9F4F69
:10173000FC0180819181019629813A81F901218101
:10174000FC012083CE01895A9F4FFC018081918149
:10175000029629813A81F9012281FC012083CE0180
:10176000895A9F4FFC0180819181039629813A819A
:10177000F9012381FC012083CE01895A9F4FFC018E
:1017800080819181049629813A81F9012481FC01AB
:101790002083CE01895A9F4FFC018081918105965B
:1017A00029813A81F9012581FC012083CE01895AE2
:1017B0009F4FFC0180819181069629813A81F90130
:1017C0002681FC012083CE01895A9F4FFC01808134
:1017D00091810796FC011082CE01895A9F4FFC012E
:1017E000808191810896FC011082CE01895A9F4F19
:1017F000FC01808191810996FC011082CE01895AF9
:101800009F4FFC01808191810A96FC011082CE01DC
:10181000895A9F4FFC01808191810B96FC011082B7
:10182000CE01895A9F4FFC01808191810C96FC0169
:101830001082CE01895A9F4FFC01808191810D96C3
:10184000FC011082CE01895A9F4FFC018081918159
:101850000E96FC011082CE01895A9F4FFC018081B7
:1018600091810F96FC01108289819A810E94E60085
:1018700029813A81CE01895A9F4FFC018081918153
:10188000B9010E94F00189819A810E94CA11C85A47
:10189000DF4F0FB6F894DEBF0FBECDBFDF91CF9103
:1018A0001F910F910895CF93DF93CDB7DEB7CA5E36
:1018B000D1090FB6F894DEBF0FBECDBF0E9435052B
:1018C00080E090E0A0E2B1E48B879C87AD87BE8783
:1018D00020E030E04AE755E46B857C858D859E8568
:1018E0000E94A010DC01CB018F87988BA98BBA8B4B
:1018F00020E030E040E85FE36F85788989899A8944
:101900000E941A1088232CF481E090E09C8B8B8B32
:101910003FC020E03FEF4FE757E46F857889898922
:101920009A890E949B1018164CF520E030E040E2A6
:1019300051E46B857C858D859E850E94A010DC011D
:10194000CB01BC01CD010E941F10DC01CB019C8B9F
:101950008B8B0FC080E991E09E8B8D8B8D899E894A
:101960000197F1F79E8B8D8B8B899C8901979C8BBE
:101970008B8B8B899C89892B69F714C06F8578893B
:1019800089899A890E941F10DC01CB019C8B8B8B6B
:101990008B899C89988F8F8B8F89988D0197F1F710
:1019A000988F8F8B80E1ECEBF2E0DE01979601904F
:1019B0000D928A95E1F720E2CE01C796FC01322F05
:1019C00011923A95E9F71982CE01895A9F4F20E189
:1019D000ECECF2E0DC0101900D922A95E1F718861B
:1019E0001F820E949E06CE0189599F4F22E3FC016F
:1019F000322F11923A95E9F7CE0187569F4F20E199
:101A0000FC01322F11923A95E9F7CE0187559F4F8D
:101A100020E1FC01322F11923A95E9F7CE0187546B
:101A20009F4F22E3FC01322F11923A95E9F780EBA8
:101A300090E00E9435119A87898789859A8529E3E4
:101A4000FC01208389859A85019627E2FC01208389
:101A500089859A8502962DECFC01208389859A85DB
:101A6000039627E3FC01208389859A85049624EC5C
:101A7000FC01208389859A8505962FEAFC01208345
:101A800089859A85069624EEFC01208389859A85AE
:101A900007962CE6FC01208389859A8508962AEF13
:101AA000FC01208389859A85099622ECFC0120831C
:101AB00089859A850A962BEAFC01208389859A8577
:101AC0000B962EE3FC01208389859A850C9621E2F2
:101AD000FC01208389859A850D962AEAFC012083E2
:101AE00089859A850E962EE4FC01208389859A8546
:101AF0000F9621E7FC01208389859A850E94E600E4
:101B00008981882309F0F5C086E091E0892F8F93C1
:101B100086E091E08F930E941B060F900F9081E367
:101B200091E0892F8F9381E391E08F930E941B06B0
:101B30000F900F9087E491E0892F8F9387E491E0D5
:101B40008F930E941B060F900F9088E691E0892FDB
:101B50008F9388E691E08F930E941B060F900F9061
:101B60008EE991E0892F8F938EE991E08F930E9407
:101B70001B060F900F90CE01C79664E10E94670686
:101B8000882F90E098878F838F819885449754F4AD
:101B90009E01295C3F4F8F819885820F931FFC0126
:101BA000108205C0CE01865B9F4FFC01108280EA47
:101BB00091E0892F8F9380EA91E08F930E941B061A
:101BC0000F900F909E01295C3F4FCE018796B9017F
:101BD0000E94E806892B61F487EB91E0892F8F93AF
:101BE00087EB91E08F930E941B060F900F9080C0AF
:101BF0008FEC91E0892F8F938FEC91E08F930E946F
:101C00001B060F900F9087E0898380E090E0AAEF99
:101C1000B3E4898F9A8FAB8FBC8F20E030E04AE726
:101C200055E4698D7A8D8B8D9C8D0E94A010DC010E
:101C3000CB018D8F9E8FAF8FB8A320E030E040E8BE
:101C40005FE36D8D7E8D8F8D98A10E941A10882381
:101C50002CF481E090E09AA389A33FC020E03FEFFD
:101C60004FE757E46D8D7E8D8F8D98A10E949B105C
:101C700018164CF520E030E040E251E4698D7A8D91
:101C80008B8D9C8D0E94A010DC01CB01BC01CD018D
:101C90000E941F10DC01CB019AA389A30FC080E929
:101CA00091E09CA38BA38BA19CA10197F1F79CA32E
:101CB0008BA389A19AA101979AA389A389A19AA12B
:101CC000892B69F716C06D8D7E8D8F8D98A10E942E
:101CD0001F10DC01CB019AA389A389A19AA19EA31D
:101CE0008DA38DA19EA10197F1F79EA38DA301C0A5
:101CF00037CF8981873009F081C185EE91E0892F46
:101D00008F9385EE91E08F930E941B060F900F90AA
:101D100089E192E0892F8F9389E192E08F930E946D
:101D20001B060F900F908AE492E0892F8F938AE42C
:101D300092E08F930E941B060F900F9088E792E02D
:101D4000892F8F9388E792E08F930E941B060F9054
:101D50000F9080E992E0892F8F9380E992E08F9332
:101D60000E941B060F900F90CE0189599F4F61E290
:101D70000E946706882F90E098878F831B821A82C3
:101D80001CC02A813B818F819885820F931FAE01F1
:101D9000495A5F4F2A813B81240F351FF901208169
:101DA000422F9E0129593F4F820F931FFC01408310
:101DB0008A819B8101969B838A838A819B8140973C
:101DC00004F38F81988540969B838A830EC09E0181
:101DD00029593F4F8A819B81820F931FFC011082FA
:101DE0008A819B8101969B838A838A819B81C2978A
:101DF00074F3CE0187569F4F0E94BE0783E992E09D
:101E0000892F8F9383E992E08F930E941B060F9096
:101E10000F901B821A8220C09E0127563F4F8A8155
:101E20009B81820F931FFC018081882F90E0292FD6
:101E30002F938F9388EA92E0892F8F9388EA92E01C
:101E40008F930E941B060F900F900F900F908A8126
:101E50009B8101969B838A838A819B814097E4F2D0
:101E60008DEA92E0892F8F938DEA92E08F930E9402
:101E70001B060F900F901E821B821A826BC0CE0130
:101E800087569F4FFC0197858E81292F2827CE01E9
:101E900087569F4FFC012787CE0187559F4F9E0194
:101EA00027563F4F40E1F901DC0101900D924A9520
:101EB000E1F729853A85CE0187559F4FB9010E94E8
:101EC000F0011D821C823AC08E81882F90E09C0117
:101ED00022953295307F3227207F32278C819D8159
:101EE000820F931FAE0147555F4F2C813D81240F18
:101EF000351FF90160812E81222F30E0A901429522
:101F00005295507F5427407F54272C813D81240FC8
:101F1000351FAE0149595F4F240F351FF90120814C
:101F2000462F42279E0127543F4F820F931FFC01EB
:101F300040838C819D8101969D838C838C819D81C2
:101F4000409714F28E818F5F8E838A819B814096A9
:101F50009B838A838F8198859C01205F3F4F8A8174
:101F60009B81821793070CF48ACF8FEA92E0892F26
:101F70008F938FEA92E08F930E941B060F900F9031
:101F80001B821A8220C09E0127543F4F8A819B8169
:101F9000820F931FFC018081882F90E0292F2F93BF
:101FA0008F9388EA92E0892F8F9388EA92E08F934B
:101FB0000E941B060F900F900F900F908A819B81BB
:101FC00001969B838A838E81882F90E09C012295C5
:101FD0003295307F3227207F32278A819B8182177A
:101FE00093078CF28DEA92E0892F8F938DEA92E02D
:101FF0008F930E941B060F900F90A0CE89859A8523
:102000000E94CA1180E090E0C651DF4F0FB6F894ED
:10201000DEBF0FBECDBFDF91CF910895991B79E050
:1020200004C0991F961708F0961B881F7A95C9F768
:10203000809508950E944E1008F481E008950E9452
:102040007A1088F09F5798F0B92F9927B751B0F0C0
:10205000E1F0660F771F881F991F1AF0BA95C9F72C
:1020600014C0B13091F00E949410B1E008950C9426
:102070009410672F782F8827B85F39F0B93FCCF3D9
:10208000869577956795B395D9F73EF490958095A9
:10209000709561957F4F8F4F9F4F0895990F00085E
:1020A000550FAA0BE0E8FEEF16161706E807F9072A
:1020B000C0F012161306E407F50798F0621B730BC5
:1020C000840B950B39F40A2661F0232B242B252B46
:1020D00021F408950A2609F4A140A6958FEF811DE9
:1020E000811D089557FD9058440F551F59F05F3FCB
:1020F00071F04795880F97FB991F61F09F3F79F02A
:1021000087950895121613061406551FF2CF4695AB
:10211000F1DF08C0161617061806991FF1CF86952D
:102120007105610508940895E894BB276627772711
:10213000CB0197F908950E944E1008F48FEF08958F
:102140000E94B3100C9424110E94161138F00E94C2
:102150001D1120F0952311F00C940D110C94131106
:1021600011240C9495100E94721070F3959FC1F386
:10217000950F50E0551F629FF001729FBB27F00D35
:10218000B11D639FAA27F00DB11DAA1F649F66278A
:10219000B00DA11D661F829F2227B00DA11D621FD9
:1021A000739FB00DA11D621F839FA00D611D221F93
:1021B000749F3327A00D611D231F849F600D211D77
:1021C000822F762F6A2F11249F5750409AF0F1F0FA
:1021D00088234AF0EE0FFF1FBB1F661F771F881F63
:1021E00091505040A9F79E3F510580F00C940D117D
:1021F0000C9495105F3FE4F3983ED4F38695779561
:102200006795B795F795E7959F5FC1F7FE2B880F08
:10221000911D9695879597F9089597F99F6780E89E
:1022200070E060E008959FEF80EC089500240A9428
:102230001616170618060906089500240A941216A1
:102240001306140605060895092E0394000C11F4D4
:10225000882352F0BB0F40F4BF2B11F460FF04C081
:102260006F5F7F4F8F4F9F4F0895CF93DF938230E3
:10227000910510F482E090E0E0915603F09157034D
:1022800020E030E0C0E0D0E0309711F14081518192
:1022900048175907C0F04817590761F482819381A4
:1022A000209719F09B838A832BC0909357038093C8
:1022B000560326C02115310519F04217530718F4AB
:1022C0009A01BE01DF01EF010280F381E02DDCCF36
:1022D0002115310509F1281B390B2430310590F403
:1022E00012968D919C9113976115710521F0FB0158
:1022F0009383828304C09093570380935603FD0118
:10230000329644C0FD01E20FF31F81939193225056
:1023100031092D933C933AC02091540330915503D9
:10232000232B41F420910201309103013093550396
:1023300020935403209100013091010121153105B2
:1023400041F42DB73EB74091040150910501241B83
:10235000350BE0915403F0915503E217F307A0F415
:102360002E1B3F0B2817390778F0AC014E5F5F4FEB
:102370002417350748F04E0F5F1F509355034093C5
:1023800054038193919302C0E0E0F0E0CF01DF912C
:10239000CF9108950F931F93CF93DF93009709F484
:1023A0008CC0FC0132971382128200915603109167
:1023B00057030115110581F420813181820F931F8C
:1023C00020915403309155032817390779F5F0937C
:1023D0005503E093540371C0D80140E050E0AE17BC
:1023E000BF0750F412962D913C911397AD01211522
:1023F000310509F1D901F3CF9D01DA01338322833D
:1024000060817181860F971F8217930769F4EC0131
:1024100028813981260F371F2E5F3F4F318320835C
:102420008A819B8193838283452B29F4F093570300
:10243000E093560342C01396FC93EE931297ED017E
:10244000499159919E01240F351FE217F30771F44A
:1024500080819181840F951F029611969C938E9393
:102460008281938113969C938E931297E0E0F0E023
:10247000D80112968D919C911397009719F0F8014D
:102480008C01F6CF8D919C9198012E5F3F4F820F6A
:10249000931F20915403309155032817390769F48D
:1024A000309729F4109257031092560302C01382FA
:1024B00012821093550300935403DF91CF911F9123
:1024C0000F910895FC0101900020E9F78095909507
:1024D0008E0F9F1F0895AEE0B0E0E1E7F2E10C94AB
:1024E00023158C01CA0146E04C831A83098377FFC8
:1024F00002C060E070E8FB013197FE83ED83A90123
:10250000BC01CE0101960E9497124D815E8157FD5C
:102510000AC02F813885421753070CF49A01F8013D
:10252000E20FF31F10822E96E4E00C943F15ACE00E
:10253000B0E0EDE9F2E10C9415157C016B018A0124
:10254000FC0117821682838181FFBDC1CE010196F5
:102550004C01F7019381F60193FD859193FF8191E1
:102560006F01882309F4ABC1853239F493FD85915D
:1025700093FF81916F01853229F4B70190E00E94A9
:102580007F14E7CF512C312C20E02032A0F48B3285
:1025900069F030F4803259F0833269F420612CC044
:1025A0008D3239F0803339F4216026C022602460F6
:1025B00023C0286021C027FD27C030ED380F3A30F6
:1025C00078F426FF06C0FAE05F9E300D1124532EEA
:1025D00013C08AE0389E300D1124332E20620CC0C7
:1025E0008E3221F426FD6BC1206406C08C3611F4B6
:1025F000206802C0883641F4F60193FD859193FF6F
:1026000081916F018111C1CF982F9F7D9554933097
:1026100028F40C5F1F4FFFE3F9830DC0833631F0C0
:10262000833771F0833509F05BC022C0F8018081E7
:1026300089830E5F1F4F44244394512C540115C0CD
:102640003801F2E06F0E711CF801A080B18026FF06
:1026500003C0652D70E002C06FEF7FEFC5012C87CE
:102660000E9474142C0183012C852F77222E17C011
:102670003801F2E06F0E711CF801A080B18026FFD6
:1026800003C0652D70E002C06FEF7FEFC5012C879E
:102690000E9469142C012C852068222E830123FCC2
:1026A0001BC0832D90E048165906B0F4B70180E2B4
:1026B00090E00E947F143A94F4CFF50127FC8591B5
:1026C00027FE81915F01B70190E00E947F143110D5
:1026D0003A94F1E04F1A51084114510471F7E5C0E2
:1026E000843611F0893639F5F80127FF07C060817B
:1026F0007181828193810C5F1F4F08C0608171815D
:10270000072E000C880B990B0E5F1F4F2F76722E31
:1027100097FF09C090958095709561957F4F8F4F79
:102720009F4F2068722E2AE030E0A4010E94B71467
:10273000A82EA81844C0853729F42F7EB22E2AE08F
:1027400030E025C0F22FF97FBF2E8F36C1F018F48C
:10275000883579F0B4C0803719F0883721F0AFC0E0
:102760002F2F2061B22EB4FE0DC08B2D8460B82EA9
:1027700009C024FF0AC09F2F9660B92E06C028E02A
:1027800030E005C020E130E002C020E132E0F80195
:10279000B7FE07C060817181828193810C5F1F4FFA
:1027A00006C06081718180E090E00E5F1F4FA40140
:1027B0000E94B714A82EA818FB2DFF777F2E76FE57
:1027C0000BC0372D3E7FA51450F474FE0AC072FC76
:1027D00008C0372D3E7E05C0BA2C372D03C0BA2C59
:1027E00001C0B52C34FF0DC0FE01EA0DF11D808142
:1027F000803311F4397E09C032FF06C0B394B3941C
:1028000004C0832F867809F0B39433FD13C030FFE2
:1028100006C05A2CB31418F4530C5B18B32CB31421
:1028200068F4B70180E290E03C870E947F14B39483
:102830003C85F5CFB31410F43B1801C0312C34FFA4
:1028400012C0B70180E390E03C870E947F143C8572
:1028500032FF17C031FD03C088E790E002C088E571
:1028600090E0B7010CC0832F867859F031FF02C089
:102870008BE201C080E237FD8DE2B70190E00E945B
:102880007F14A51438F4B70180E390E00E947F1410
:102890005A94F7CFAA94F401EA0DF11D8081B70193
:1028A00090E00E947F14A110F5CF332009F451CE9F
:1028B000B70180E290E00E947F143A94F6CFF701CE
:1028C0008681978102C08FEF9FEF2C96E2E10C94F6
:1028D0003115FC010590615070400110D8F78095CA
:1028E00090958E0F9F1F0895FC01615070400190DC
:1028F0000110D8F7809590958E0F9F1F08950F9324
:102900001F93CF93DF93FB01238121FD03C08FEF42
:102910009FEF28C022FF16C0468157812481358150
:102920004217530744F4A081B1819D012F5F3F4FAF
:10293000318320838C93268137812F5F3F4F3783EC
:10294000268310C0EB01092F182F0084F185E02D9C
:102950000995892BE1F68E819F8101969F838E8355
:10296000812F902FDF91CF911F910F910895FA0140
:10297000AA27283051F1203181F1E8946F936E7FBE
:102980006E5F7F4F8F4F9F4FAF4FB1E03ED0B4E0AF
:102990003CD0670F781F891F9A1FA11D680F791FF0
:1029A0008A1F911DA11D6A0F711D811D911DA11D01
:1029B00020D009F468943F912AE0269F1124301911
:1029C000305D3193DEF6CF010895462F4770405DAC
:1029D0004193B3E00FD0C9F7F6CF462F4F70405D5B
:1029E0004A3318F0495D31FD4052419302D0A9F7B6
:1029F000EACFB4E0A6959795879577956795BA95B0
:102A0000C9F700976105710508959B01AC010A2E75
:102A100006945795479537952795BA95C9F7620F4C
:102A2000731F841F951FA01D08952F923F924F92F0
:102A30005F926F927F928F929F92AF92BF92CF924E
:102A4000DF92EF92FF920F931F93CF93DF93CDB757
:102A5000DEB7CA1BDB0B0FB6F894DEBF0FBECDBFCF
:102A600009942A88398848885F846E847D848C84A0
:102A70009B84AA84B984C884DF80EE80FD800C81A9
:102A80001B81AA81B981CE0FD11D0FB6F894DEBF8C
:0C2A90000FBECDBFED010895F894FFCFFC
:102A9C0000005803200057656C636F6D6520746FE0
:102AAC002053656375726520456E63727970746925
:102ABC006F6E2053797374656D2853455329210A21
:102ACC000041757468656E7469636174696F6E201A
:102ADC00737465702E0A00496E7075742070726F75
:102AEC0076696465642073656372657420706173C4
:102AFC0073776F72642E0A00496620796F75206CAB
:102B0C006F737420796F75722070617373776F7245
:102B1C00642063616C6C2074686520637573746FDA
:102B2C006D657220736572766963652E0A003E00CE
:102B3C000A436865636B696E672070617373776FA6
:102B4C0072642E2E2E0A0050617373776F7264209C
:102B5C00697320696E636F7272656374210A005029
:102B6C00617373776F726420697320636F7272651F
:102B7C006374210A000A0A2A2A2A2A2A2A2A2A2AB9
:102B8C002A2A2A2A2A2A2A2A2A2A2A2A2A2A2A2A99
:102B9C002A2A2A2A2A2A2A2A2A2A2A2A2A2A2A2A89
:102BAC002A2A2A2A2A2A2A0A0041757468656E7410
:102BBC0069636174696F6E20636F6D706C657465A9
:102BCC002E2057656C636F6D6520746F207468657B
:102BDC002073797374656D210A004E6F7720796FBD
:102BEC00752063616E20656E6372797074206D65FB
:102BFC0073736167657320757020746F2033322096
:102C0C0062797465732E0A00496E70757420646164
:102C1C00746120746F20656E63727970743A0A0067
:102C2C003E20000A547275652052616E646F6D20EF
:102C3C004E6F6E63653A090025303278000A004504
:102C4C006E6372797074696F6E3A090054496D49FC
:102C5C006E47407474416B7730726B00546F305F09
:0C2C6C006D7563685F336E74726F707971
:00000001FF
