:100000000C9434000C9451000C9451000C94510049
:100010000C9451000C9451000C9451000C9451001C
:100020000C9451000C9451000C9451000C9451000C
:100030000C9451000C9451000C9451000C945100FC
:100040000C9451000C9451000C9451000C945100EC
:100050000C9451000C9451000C9451000C945100DC
:100060000C9451000C94510011241FBECFEFD8E026
:10007000DEBFCDBF11E0A0E0B1E0ECE0FDE002C0EA
:1000800005900D92AE33B107D9F723E0AEE3B1E0AE
:1000900001C01D92A235B207E1F70E94D1030C9472
:1000A00084060C940000CF93DF931F92CDB7DEB788
:1000B0008983000080EC90E0FC018081882F90E033
:1000C00080729927892BB1F386EC90E02981FC019D
:1000D00020830F90DF91CF910895CF93DF93CDB719
:1000E000DEB785EC90E0FC01108284EC90E023E325
:1000F000FC01208381EC90E028E1FC01208382EC6C
:1001000090E026E0FC01208382EC90E022EC30E0DD
:10011000F90120812F7BFC01208381EC90E021EC10
:1001200030E0F90120812068FC012083DF91CF912C
:100130000895CF93DF93CDB7DEB760970FB6F894ED
:10014000DEBF0FBECDBF988B8F877DC08F8598890E
:100150009C012F5F3F4F388B2F87FC0180810E94CD
:10016000530080E090E0A0E8BFE389839A83AB83EB
:10017000BC8320E030E04AE755E469817A818B81D5
:100180009C810E94E805DC01CB018D839E83AF83B7
:10019000B88720E030E040E85FE36D817E818F81A9
:1001A00098850E94620588232CF481E090E09A876C
:1001B00089873FC020E03FEF4FE757E46D817E81A4
:1001C0008F8198850E94E30518164CF520E030E0F9
:1001D00040E251E469817A818B819C810E94E8052B
:1001E000DC01CB01BC01CD010E946705DC01CB0124
:1001F0009A8789870FC080E991E09C878B878B85E0
:100200009C850197F1F79C878B8789859A85019753
:100210009A87898789859A85892B69F714C06D81AA
:100220007E818F8198850E946705DC01CB019A87CA
:10023000898789859A859E878D878D859E8501977B
:10024000F1F79E878D878F859889FC0180818823AF
:1002500009F07CCF60960FB6F894DEBF0FBECDBF1D
:10026000DF91CF910895CF93DF93CDB7DEB780ECC8
:1002700090E0FC018081882314F481E001C080E0DB
:10028000DF91CF910895CF93DF93CDB7DEB7000014
:100290000E9433018823E1F386EC90E0FC01808129
:1002A000DF91CF910895CF93DF9300D01F92CDB708
:1002B000DEB71A82198215C00E9443018B838B819D
:1002C0008A3099F08B818D3081F089819A81825CAE
:1002D0009E4F2B81FC01208389819A8101969A830C
:1002E000898389819A810F9738F389819A81825C09
:1002F0009E4FFC0110820F900F900F90DF91CF91D5
:100300000895CF93DF931F92CDB7DEB7198219827C
:1003100003C089818F5F89838981882F90E0825C07
:100320009E4FFC0180818823A1F789818D3051F493
:1003300080914E0190914F01816090934F01809385
:100340004E0104C010924F0110924E010F90DF91A8
:10035000CF910895CF93DF93CDB7DEB7809145015C
:10036000282F30E080914601882F90E0820F931F64
:10037000833D910551F480914E0190914F01916020
:1003800090934F0180934E0104C010924F01109240
:100390004E01DF91CF910895CF93DF931F92CDB798
:1003A000DEB7198203C089818F5F89838981882F95
:1003B00090E0825C9E4FFC0180818823A1F78091B0
:1003C0004A01482F50E08981282F30E0429FC00128
:1003D000439F900D529F900D11248739924051F404
:1003E00080914E0190914F01906290934F018093C4
:1003F0004E0104C010924F0110924E010F90DF91F8
:10040000CF910895CF93DF93CDB7DEB780914701A9
:10041000282F30E080914801882F90E0820F931FB1
:100420008F38910551F480914E0190914F01946065
:1004300090934F0180934E0104C010924F0110928F
:100440004E01DF91CF910895CF93DF93CDB7DEB703
:1004500080914201482F50E080914301282F30E0E5
:10046000429FC001439F900D529F900D11248F32E7
:10047000924151F480914E0190914F01806290938E
:100480004F0180934E0104C010924F0110924E0113
:10049000DF91CF910895CF93DF93CDB7DEB78091F1
:1004A0004101282F30E080914201882F90E0820F97
:1004B000931F8239910551F480914E0190914F0123
:1004C000806190934F0180934E0104C010924F01C0
:1004D00010924E01DF91CF910895CF93DF93CDB766
:1004E000DEB780914801482F50E080914901282FC4
:1004F00030E0429FC001439F900D529F900D112408
:100500008337984251F480914E0190914F01986049
:1005100090934F0180934E0104C010924F011092AE
:100520004E01DF91CF910895CF93DF93CDB7DEB722
:1005300080914401482F50E080914501282F30E000
:10054000429FC001439F900D529F900D11248C300B
:100550009B4251F480914E0190914F01806890939D
:100560004F0180934E0104C010924F0110924E0132
:10057000DF91CF910895CF93DF93CDB7DEB7809110
:100580003F01282F30E080914001882F90E0820FBA
:10059000931F873A910551F480914E0190914F013C
:1005A000846090934F0180934E0104C010924F01DC
:1005B00010924E01DF91CF910895CF93DF93CDB785
:1005C000DEB780914901282F30E080914A01882FC1
:1005D00090E0820F931F803A910551F480914E0173
:1005E00090914F01906190934F0180934E0104C010
:1005F00010924F0110924E01DF91CF910895CF9349
:10060000DF93CDB7DEB780913E01482F50E0809157
:100610003F01282F30E0429FC001439F900D529F21
:10062000900D1124873B934151F480914E0190919C
:100630004F01826090934F0180934E0104C010924D
:100640004F0110924E01DF91CF910895CF93DF9328
:10065000CDB7DEB780914001482F50E08091410135
:10066000282F30E0429FC001439F900D529F900D74
:1006700011248238974151F480914E0190914F019D
:10068000886090934F0180934E0104C010924F01F7
:1006900010924E01DF91CF910895CF93DF93CDB7A4
:1006A000DEB780914601482F50E080914701282F06
:1006B00030E0429FC001439F900D529F900D112446
:1006C000803C954151F480914E0190914F01926090
:1006D00090934F0180934E0104C010924F011092ED
:1006E0004E01DF91CF910895CF93DF93CDB7DEB761
:1006F00080914301282F30E080914401882F90E0C1
:10070000820F931F853A910551F480914E0190918B
:100710004F01806490934F0180934E0104C010926A
:100720004F0110924E01DF91CF910895CF93DF9347
:10073000CDB7DEB780914E0190914F018F3F9F431F
:1007400049F480E091E00E94990088E191E00E94E4
:10075000990004C08BE191E00E949900DF91CF9154
:100760000895CF93DF93CDB7DEB786E391E00E9483
:100770009900DF91CF910895CF93DF93CDB7DEB786
:10078000FFCFCF93DF93CDB7DEB78091500190912B
:10079000510101969093510180935001DF91CF91C7
:1007A0000895CF93DF9300D000D0CDB7DEB788EDAA
:1007B00090E09C838B8340E052E061E470E082E54E
:1007C00091E00E947D060E946D0010924F011092F0
:1007D0004E018B819C819C012F5F3F4F3C832B837B
:1007E00021EC33E0322723273227880F991F8E5AB6
:1007F0009E4FFC01318320838B819C819C012F5F64
:100800003F4F3C832B8321EB33E0322723273227D2
:10081000880F991F8E5A9E4FFC01318320838B8154
:100820009C819C012F5F3F4F3C832B8323E531E06C
:10083000322723273227880F991F8E5A9E4FFC019B
:10084000318320838B819C819C012F5F3F4F3C83B0
:100850002B8321E831E0322723273227880F991F85
:100860008E5A9E4FFC01318320838B819C819C0199
:100870002F5F3F4F3C832B832AEA31E03227232727
:100880003227880F991F8E5A9E4FFC013183208397
:100890008B819C819C012F5F3F4F3C832B832DE4F8
:1008A00033E0322723273227880F991F8E5A9E4F15
:1008B000FC01318320838B819C819C012F5F3F4F02
:1008C0003C832B832FEF32E0322723273227880FF8
:1008D000991F8E5A9E4FFC01318320838B819C810E
:1008E0009C012F5F3F4F3C832B8326E233E032276E
:1008F00023273227880F991F8E5A9E4FFC01318380
:1009000020838B819C819C012F5F3F4F3C832B83F5
:100910002BE432E0322723273227880F991F8E5A83
:100920009E4FFC01318320838B819C819C012F5F32
:100930003F4F3C832B8324E932E0322723273227A1
:10094000880F991F8E5A9E4FFC01318320838B8123
:100950009C819C012F5F3F4F3C832B8324E733E036
:10096000322723273227880F991F8E5A9E4FFC016A
:10097000318320838B819C819C012F5F3F4F3C837F
:100980002B8322E032E0322723273227880F991F5A
:100990008E5A9E4FFC01318320838B819C819C0168
:1009A0002F5F3F4F3C832B832BEB32E032272327F3
:1009B0003227880F991F8E5A9E4FFC013183208366
:1009C0008B819C819C012F5F3F4F3C832B832DE6C5
:1009D00032E0322723273227880F991F8E5A9E4FE5
:1009E000FC01318320838B819C819C012F5F3F4FD1
:1009F0003C832B832CEC31E0322723273227880FCE
:100A0000991F8E5A9E4FFC01318320838B819C81DC
:100A10009C012F5F3F4F3C832B8324E232E032273F
:100A200023273227880F991F8E5A9E4FFC0131834E
:100A300020838B819C819C012F5F3F4F3C832B83C4
:100A40002DED32E0322723273227880F991F8E5A47
:100A50009E4FFC01318320838B819C819C012F5F01
:100A60003F4F3C832B8326E933E03227232732276D
:100A7000880F991F8E5A9E4FFC01318320838B81F2
:100A80009C819C012F5F3F4F3C832B832CEB33E0F9
:100A9000322723273227880F991F8E5A9E4FFC0139
:100AA0003183208381E093E09A8389838DBF9EBF49
:100AB000089580E090E00F900F900F900F90DF91DD
:100AC000CF9108950E94960508F481E008950E9450
:100AD000C20588F09F5798F0B92F9927B751B0F009
:100AE000E1F0660F771F881F991F1AF0BA95C9F7B2
:100AF00014C0B13091F00E94DC05B1E008950C946F
:100B0000DC05672F782F8827B85F39F0B93FCCF321
:100B1000869577956795B395D9F73EF4909580952E
:100B2000709561957F4F8F4F9F4F0895990F0008E3
:100B3000550FAA0BE0E8FEEF16161706E807F907AF
:100B4000C0F012161306E407F50798F0621B730B4A
:100B5000840B950B39F40A2661F0232B242B252BCB
:100B600021F408950A2609F4A140A6958FEF811D6E
:100B7000811D089557FD9058440F551F59F05F3F50
:100B800071F04795880F97FB991F61F09F3F79F0AF
:100B900087950895121613061406551FF2CF469531
:100BA000F1DF08C0161617061806991FF1CF8695B3
:100BB0007105610508940895E894BB276627772797
:100BC000CB0197F908950E94960508F48FEF0895D8
:100BD0000E94FB050C946C060E945E0638F00E9491
:100BE000650620F0952311F00C9455060C945B06D5
:100BF00011240C94DD050E94BA0570F3959FC1F392
:100C0000950F50E0551F629FF001729FBB27F00DBA
:100C1000B11D639FAA27F00DB11DAA1F649F66270F
:100C2000B00DA11D661F829F2227B00DA11D621F5E
:100C3000739FB00DA11D621F839FA00D611D221F18
:100C4000749F3327A00D611D231F849F600D211DFC
:100C5000822F762F6A2F11249F5750409AF0F1F07F
:100C600088234AF0EE0FFF1FBB1F661F771F881FE8
:100C700091505040A9F79E3F510580F00C945506C5
:100C80000C94DD055F3FE4F3983ED4F386957795A9
:100C90006795B795F795E7959F5FC1F7FE2B880F8E
:100CA000911D9695879597F9089597F99F6780E824
:100CB00070E060E008959FEF80EC089500240A94AE
:100CC0001616170618060906089500240A94121627
:100CD0001306140605060895092E0394000C11F45A
:100CE000882352F0BB0F40F4BF2B11F460FF04C007
:100CF0006F5F7F4F8F4F9F4F0895DC0101C06D9351
:0C0D000041505040E0F70895F894FFCFF8
:100D0C000D0A464C41473A44305F796F755F337634
:100D1C00656E5F524F503F000D0A000D0A4265741C
:100D2C00746572206C75636B206E657874207469C1
:0E0D3C006D65210D0A00496E7075743A200035
:00000001FF
