:100000000C94DB030C94F8030C94F8030C94F803A1
:100010000C94F8030C94F8030C94F8030C94F80374
:100020000C94F8030C94F8030C94F8030C94F80364
:100030000C94F8030C94F8030C94F8030C94F80354
:100040000C94F8030C94F8030C94F8030C94F80344
:100050000C94F8030C94F8030C94F8030C94F80334
:100060000C94F8030C94F803333630663938366351
:1000700063326462376237663264393433316539EA
:10008000333234323830313039616331656434337E
:100090003930306135373533316565323837386559
:1000A0003839356336663562346261343331313024
:1000B0003531343133640D0A003035353333356131
:1000C0006237346631653932653431313631356203
:1000D000353236336435313137646166373135371F
:1000E000343066383236613666386661626132367F
:1000F00032306464646132383532613335393561A8
:1001000061396630353164336530623436373636BE
:100110003434300D0A00303062646230386164314A
:100120006439373632386230643465396264636406
:1001300062303330333030376536366239643832C6
:10014000623363613365376466343736393131661B
:100150003164306666643831663637343837623435
:10016000666166633465323532623330633530310F
:100170000D0A0032626637623134303638646633D5
:100180003362653337366231323532376231633745
:1001900066623339306639356430663837386562BF
:1001A00062386133386336323165623431356138F3
:1001B0003562663432623963626361636363373424
:1001C000390D0A0064333363636534653631343680
:1001D0006665333235646535643964306463343858
:1001E00030646264343230316333383539643164B9
:1001F0006562626639353261316533613130633051
:100200006366656236343133663734303734386389
:1002100037613433613334366438393563310D0A2C
:1002200000303063656332373437323462303462E1
:100230006461393664353131363261626637313066
:1002400066626631656564623937386161383736B0
:100250003339653631613136366237373263663469
:100260006264666338666464646233623730306245
:1002700033363664363837363761350D0A00376520
:100280003162316463376461666233666165366525
:10029000333163323537316338396630366163382C
:1002A00035346361633938643130653130366563C4
:1002B00038396162643464303933663238653133D9
:1002C0006462353465613837393862330D0A00634A
:1002D000376434353562653764303530666165635F
:1002E0006133666439383437666234336462616618
:1002F000326130393031333737386532333862372D
:1003000061373934333032373163313035636239F4
:100310003539663366663464306537326137353671
:100320006563633934386263320D0A0030306237F6
:100330003838326163316630333963653563396328
:10034000656637613636383030643232343763347C
:1003500036356364356263626161383063633438B3
:10036000626133346563323735393238306136365D
:10037000363433326637386635336432323261337D
:100380003038656132640D0A003039363763646392
:1003900037366237626261306362373861313538CF
:1003A0003538626363343030363365353363333424
:1003B0006262343763663633626132656238616621
:1003C000336434393131333166326161393633382F
:1003D000383830323637370D0A003963666664665E
:1003E00036663063646431363866343735393464A0
:1003F00032666430363732373837373136616535F3
:100400003139626637386466316362393663303950
:10041000363837383565376630656337646531306F
:1004200030383634346233636333326337343734CD
:10043000386630640D0A003030623761323433344C
:100440003637336535343666663464373937353197
:10045000363661353232386531396161356234336F
:10046000616237396531343766323736393561651F
:1004700065656231393762623331353265663164C0
:100480006630623831393061373330346234646217
:10049000340D0A003732663630653766626436627C
:1004A00062323230653665353665343636646363BC
:1004B0003331343461626237383338383836356531
:1004C0006535633962626138373965613936633061
:1004D00061323532326264623633333833663335F3
:1004E00039310D0A00626131656439363566373459
:1004F000333233383436373331306339376432325C
:10050000393138633435343964396334323636340A
:1005100031343639613537656437353535373336FB
:100520003761643337643363373334383561356466
:100530003734386262636561323131383937660D7C
:100540000A0030306138653466653864646361314F
:100550006134623863393733373664393065343360
:100560006537386639646638323234313232313583
:1005700035313166613365666333663936623334EB
:100580006336626463323039306462626663653256
:100590006531313866663831363863360D0A0037D2
:1005A000346362616330643065346630383330629E
:1005B0006363353166653436383065663164386179
:1005C000666365383964363165663761316665382A
:1005D00066303364643236613730343933303366F1
:1005E000316362666139346231303332330D0A006F
:1005F0003430316639343437346464626635663594
:1006000034623735646661613762656633373063FB
:10061000633938343261393230666639343834639C
:1006200061626163656365343465376332633830B2
:100630006332633937373735613339643033356383
:10064000353934373564623933330D0A003030645C
:100650006238376534613437373463346334363065
:1006600036666161646562353834363064366336C7
:1006700032323832616365643131356165396432F3
:10068000353664366361326433326234393631353B
:100690006339323537383639616130623137353751
:1006A000623866616161650D0A0038613235343443
:1006B00063623036376636373763383765383233FA
:1006C00036326533623363653935306430373263CF
:1006D0003562316261666664363530613331646239
:1006E000346666376437323039663061656330317D
:1006F00037386437626138620D0A006433616261C1
:1007000064666536656265623733363664376231F2
:1007100031663063626664343337316462616466C3
:1007200035663534386536303634346233333635F1
:1007300061363534623865666532646533326262CB
:10074000623163633032383864333637633065384A
:1007500063663961630D0A00303063393065346394
:1007600036356330613936303830646635616166FC
:1007700037336361616631313436616662333634F2
:10078000636233373839346636626237343531382C
:10079000323139316266353737613237373764384D
:1007A0006235646266353762326164396639303287
:1007B00065320D0A000011241FBECFEFD8E0DEBF66
:1007C000CDBF15E0A0E0B1E0E2EDFEE002C0059093
:1007D0000D92AC33B107D9F725E0ACE3B5E001C029
:1007E0001D92AC33B207E1F70E94C2060C94670772
:1007F0000C940000AC0120E030E061507109909150
:10080000C00097FFFCCF9091C6009D3051F0261795
:100810003707ACF7FA01E20FF31F90832F5F3F4FCA
:10082000EECFFA01E20FF31F1082C90108952FEFF6
:1008300080E792E0215080409040E1F700C0000046
:10084000E3E0F3E090E58091C00085FFFCCF90935A
:10085000C6008FE99FE00197F1F700C00000919179
:100860009111F1CFE7E1F3E091E48091C00085FFC1
:10087000FCCF9093C6008FE99FE00197F1F700C08D
:10088000000091919111F1CFE8E5F7E0949199235F
:1008900061F0E9E5F7E08091C00085FFFCCF90931F
:1008A000C600949131969111F6CFEBEFF6E094915A
:1008B000992361F0ECEFF6E08091C00085FFFCCF5A
:1008C0009093C600949131969111F6CFEAEAF6E042
:1008D0009491992361F0EBEAF6E08091C00085FFE6
:1008E000FCCF9093C600949131969111F6CFE1E23E
:1008F000F3E092E48091C00085FFFCCF9093C600A6
:100900008FE99FE00197F1F700C0000091919111EC
:10091000F1CFEDE4F6E09491992361F0EEE4F6E096
:100920008091C00085FFFCCF9093C60094913196D2
:100930009111F6CFE0EFF5E09491992361F0E1EFAA
:10094000F5E08091C00085FFFCCF9093C6009491A4
:1009500031969111F6CFEFE9F5E09491992361F08A
:10096000E0EAF5E08091C00085FFFCCF9093C600DF
:10097000949131969111F6CFE9E2F3E093E48091FE
:10098000C00085FFFCCF9093C6008FE99FE00197E0
:10099000F1F700C0000091919111F1CFE2E4F5E090
:1009A0009491992361F0E3E4F5E08091C00085FF24
:1009B000FCCF9093C600949131969111F6CFE5EE5D
:1009C000F4E09491992361F0E6EEF4E08091C000A8
:1009D00085FFFCCF9093C600949131969111F6CF8C
:1009E000E4E9F4E09491992361F0E5E9F4E0809181
:1009F000C00085FFFCCF9093C60094913196911171
:100A0000F6CFE2E3F3E094E48091C00085FFFCCFF1
:100A10009093C6008FE99FE00197F1F700C00000B6
:100A200091919111F1CFE7E3F4E09491992361F072
:100A3000E8E3F4E08091C00085FFFCCF9093C6000E
:100A4000949131969111F6CFEAEDF3E094919923C8
:100A500061F0EBEDF3E08091C00085FFFCCF909357
:100A6000C600949131969111F6CFE9E8F3E09491A4
:100A7000992361F0EAE8F3E08091C00085FFFCCFA4
:100A80009093C600949131969111F6CFECE3F3E088
:100A900095E48091C00085FFFCCF9093C6008FE95C
:100AA0009FE00197F1F700C0000091919111F1CF03
:100AB000ECE2F3E09491992361F0EDE2F3E08091B0
:100AC000C00085FFFCCF9093C600949131969111A0
:100AD000F6CFEFECF2E09491992361F0E0EDF2E0D3
:100AE0008091C00085FFFCCF9093C6009491319611
:100AF0009111F6CFEEE7F2E09491992361F0EFE7E0
:100B0000F2E08091C00085FFFCCF9093C6009491E5
:100B100031969111F6CFE7E4F3E096E48091C000BE
:100B200085FFFCCF9093C6008FE99FE00197F1F716
:100B300000C0000091919111F1CFE1E2F2E09491B7
:100B4000992361F0E2E2F2E08091C00085FFFCCFE2
:100B50009093C600949131969111F6CFE4ECF1E0B8
:100B60009491992361F0E5ECF1E08091C00085FF5C
:100B7000FCCF9093C600949131969111F6CFE3E7A4
:100B8000F1E09491992361F0E4E7F1E08091C000F5
:100B900085FFFCCF9093C600949131969111F6CFCA
:100BA000E1E5F3E097E48091C00085FFFCCF9093EE
:100BB000C6008FE99FE00197F1F700C00000919116
:100BC0009111F1CFE6E1F1E09491992361F0E7E131
:100BD000F1E08091C00085FFFCCF9093C600949116
:100BE00031969111F6CFE9EBF0E09491992361F001
:100BF000EAEBF0E08091C00085FFFCCF9093C60047
:100C0000949131969111F6CFE8E6F0E09491992312
:100C100069F0E9E6F0E08091C00085FFFCCF909399
:100C2000C600949131969111F6CF089508950F93CF
:100C30001F93CF93DF93CDB7DEB7C450D1400FB62B
:100C4000F894DEBF0FBECDBF8E010F5F1F4F84E053
:100C500091E0D801FC011D923197E9F7EAE5F3E054
:100C600025E49091C00095FFFCCF2093C6008FE94A
:100C70009FE00197F1F700C0000021912111F1CF11
:100C800061E071E0C8010E94FA0381E092E0AE01E8
:100C90004F5F5E4FF80161E070E03191DC012D9112
:100CA000CD01321711F060E070E0E417F507A9F705
:100CB0006130710509F440C0E0E0F1E09E01275386
:100CC0003F4F41E050E0D8019D918D0181919817EF
:100CD00011F040E050E002171307A9F74130510529
:100CE000F1F1EFECF3E098E48091C00085FFFCCFD8
:100CF0009093C600AFE9BFE01197F1F700C0000084
:100D000091919111F1CF8091C00085FFFCCF8AE0D5
:100D10008093C600EFE9FFE03197F1F700C00000D3
:100D2000CC5FDE4F0FB6F894DEBF0FBECDBFDF91B4
:100D3000CF911F910F910895E1E7F3E096E4809140
:100D4000C00085FFFCCF9093C6008FE99FE001971C
:100D5000F1F700C0000091919111F1CFE1CFE2EAEB
:100D6000F3E096E48091C00085FFFCCF9093C6002D
:100D70008FE99FE00197F1F700C000009191911178
:100D8000F1CFCECFCF93DF9300D01F92CDB7DEB798
:100D90001092C50083E38093C40088E18093C10072
:100DA00086E08093C2008091C2008F7B8093C20056
:100DB0008091C10080688093C1002FEF80E792E0AE
:100DC000215080409040E1F700C00000ECEEF3E0DD
:100DD00095E48091C00085FFFCCF9093C6008FE919
:100DE0009FE00197F1F700C0000091919111F1CFC0
:100DF000E3E3F4E091E38091C00085FFFCCF9093A2
:100E0000C6008FE99FE00197F1F700C000009191C3
:100E10009111F1CFEFE6F4E092E38091C00085FFFD
:100E2000FCCF9093C6008FE99FE00197F1F700C0D7
:100E3000000091919111F1CFE1EAF4E09AE4809100
:100E4000C00085FFFCCF9093C6008FE99FE001971B
:100E5000F1F700C0000091919111F1CFE6EEF4E0BE
:100E600094E58091C00085FFFCCF9093C6008FE988
:100E70009FE00197F1F700C0000091919111F1CF2F
:100E800019821A821B8262E070E0CE0101960E94F4
:100E9000FA0389818233C1F0813399F0ECE2F5E005
:100EA00097E58091C00085FFFCCF9093C6008FE945
:100EB0009FE00197F1F700C0000091919111F1CFEF
:100EC00085CF0E94170482CF0E9417067FCFF89427
:020ED000FFCF52
:100ED2003830313033623766633734363030623817
:100EE20034346262373336363763326338663233CC
:100EF20061666137313765323565353439373536B4
:100F02003831396135336264383735613739656371
:100F1200633830646264396534313564663464340C
:100F2200333536666236323364613632613633388F
:100F320038643064316266323737646261613630F8
:100F4200323163356535666435316132626130381C
:100F520038626664656532636561383030653530A4
:100F62003135356165613161643761313031386500
:100F720063373632316532646163396431366361B5
:100F82003663313931306565336630333832653036
:100F920061306563613131323464366233353761D1
:100FA20038643636396362613663306432346633AC
:100FB20038346135666332383930646235343334FB
:100FC2003163333833323839653332633732376617
:100FD200003433623364333632613036383365304D
:100FE2006563376464646532623037343832373669
:100FF2006261666364303364383933333239396459
:1010020064363732373635323930623130366265DE
:101012003731306566323661373135346561663174
:10102200663638303566316561383132623635665A
:10103200616162313339336633303066323862345B
:1010420036303037306436386334323066346335A4
:1010520033323662346436356534383638383734AC
:1010620035336436623734636337646161653237BE
:1010720035353638373730316637373038633431C3
:10108200663864326131333830616238613134320A
:1010920066613439393161386531653538616236B6
:1010A2006336373537373832303365613565336605
:1010B2003566303634633063303530303437376537
:1010C20066333733613561343630376437653065BE
:1010D20033005075626C6963204B6579204C6973EB
:1010E200743A200D0A00416C6963653A200D0A00CA
:1010F200426F623A200D0A004361726C3A200D0A77
:101102000044617669643A200D0A00456477617291
:10111200643A200D0A00466C6575723A200D0A0089
:10112200476172793A200D0A00456E746572207427
:101132006865207369676E6174757265200D0A00B7
:10114200464C41473A4575636C31645F6834636B62
:1011520033645F6372797074305F6233666F726595
:101162005F69745F7761735F6330306C21210D0AB0
:1011720000464C41473A4575636C31645F6834639D
:101182006B33645F6372797074305F6233666F725F
:10119200655F69745F7761735F6330306C004865C7
:1011A200792120596F7520617265206E6F742061FC
:1011B2006E2061646D696E210D0A00456269616E7F
:1011C20020436F7270206861732061207265706FB6
:1011D2007369746F727920746F2073746F726520F3
:1011E2006974732061646D696E73747261746F7275
:1011F2007327207075626C6963206B6579732E0D9D
:101202000A003129496620796F7520617265206173
:1012120020637573746F6D657220796F75206361D9
:101222006E206C69737420616C6C20746865207028
:1012320075626C6963206B6579732E0D0A00322921
:10124200496620796F752061726520616E20616444
:101252006D696E20796F752063616E2075706461AF
:10126200746520796F7572206B6579732E0D0A0093
:101272004A757374207369676E2074686520706C98
:1012820061696E74657874202261646D696E2220D2
:10129200616E64206D6F7265206F7074696F6E731A
:1012A2002077696C6C2062652070726F7669646564
:1012B200642E0D0A0054686520706172616D657458
:1012C20065727320746F2062652075736564206691
:1012D2006F7220746865207369676E6174757265D8
:1012E20020617265205348413120616E6420504B69
:1012F2004353315F76315F350D0A0057726F6E6767
:0C130200206F7074696F6E200D0A0000EF
:00000001FF
