:100000000C9434000C9451000C9451000C94510049
:100010000C9451000C9451000C9451000C9451001C
:100020000C9451000C9451000C9451000C9451000C
:100030000C9451000C9451000C9451000C945100FC
:100040000C9451000C9451000C9451000C945100EC
:100050000C9451000C9451000C9451000C945100DC
:100060000C9451000C94510011241FBECFEFD8E026
:10007000DEBFCDBF11E0A0E0B1E0EAE0FBE002C0EE
:1000800005900D92A637B107D9F722E0A6E7B1E0B7
:1000900001C01D92A031B207E1F70E9481010C94CA
:1000A00083050C940000CF93DF9300D0CDB7DEB76B
:1000B000CE0109969A83898329813A818F81988517
:1000C000AC0168E770E087E791E00E94290287E7CA
:1000D00091E00E94AF000F900F90DF91CF910895B3
:1000E000CF93DF9300D0CDB7DEB783E390E09A8360
:1000F000898385EC90E029813A81232F3327FC0105
:10010000208384EC90E02981FC01208381EC90E045
:1001100028E1FC01208382EC90E026E0FC012083B2
:100120000F900F90DF91CF910895CF93DF931F929F
:10013000CDB7DEB78983000080EC90E0FC018081C0
:10014000882F90E080729927892BB1F386EC90E09C
:100150002981FC0120830F90DF91CF910895CF93E7
:10016000DF9300D0CDB7DEB79A8389830BC0898136
:100170009A819C012F5F3F4F3A832983FC01808144
:100180000E94950089819A81FC018081882379F7FA
:100190000F900F90DF91CF910895CF93DF93CDB75C
:1001A000DEB780EC90E0FC018081882314F481E0CC
:1001B00001C080E0DF91CF910895CF93DF93CDB759
:1001C000DEB700000E94CD008823E1F386EC90E0CA
:1001D000FC018081DF91CF910895CF93DF93CDB75C
:1001E000DEB780917601882349F480E090E00E9498
:1001F000D3040E941E0281E080937601DF91CF91AB
:1002000008950F931F93CF93DF931F92CDB7DEB75F
:100210000E94ED0019820EC08981082F10E00E9413
:100220001902282FC80181519E4FFC01208389812A
:100230008F5F89838981803178F30F90DF91CF912F
:100240001F910F910895CF93DF9300D0CDB7DEB704
:10025000198216C00E94DD008A838A818D3009F4DC
:100260000CC08A818A3009F40EC08981882F90E001
:1002700081509E4F2A81FC01208389818F5F898371
:100280008981803138F30F900F90DF91CF910895DD
:10029000CF93DF93CDB7DEB727970FB6F894DEBFC5
:1002A0000FBECDBF9C838B837E836D834F831A8269
:1002B000198219C08B819C81FC0120818D819E81D6
:1002C000FC01808182279A81892B8A838B819C8182
:1002D00001969C838B838D819E8101969E838D8365
:1002E00089818F5F898399818F81981718F38A811B
:1002F00027960FB6F894DEBF0FBECDBFDF91CF912A
:100300000895CF93DF931F92CDB7DEB719820E9475
:1003100070000E94010184E091E0892F8F9384E0B6
:1003200091E08F930E9453000F900F908AE191E02B
:10033000892F8F938AE191E08F930E9453000F9051
:100340000F900E94230140E16FEE71E08FEF91E08A
:100350000E944801882311F481E0898389818823E0
:1003600029F384E491E0892F8F9384E491E08F93C3
:100370000E9453000F900F9084E591E0892F8F9396
:1003800084E591E08F930E9453000F900F9080E0DE
:1003900090E00F90DF91CF9108958F929F92AF924E
:1003A000BF92CF92DF92EF92FF92CF93DF93EC0157
:1003B000688179818A819B8161157105810591052B
:1003C00021F464E279ED8BE597E02DE133EF41E034
:1003D00050E00E94E90449015A019B01AC01A7EADF
:1003E000B1E40E9408056B017C01ACEEB4EFA501FD
:1003F00094010E941605DC01CB018C0D9D1DAE1DE4
:10040000BF1DB7FF03C00197A109B0488883998336
:10041000AA83BB839F77DF91CF91FF90EF90DF900E
:10042000CF90BF90AF909F908F9008950E94CD0184
:10043000089580E091E00E94CD010895A0E0B0E031
:100440008093000190930101A0930201B0930301F6
:100450000895AEE0B0E0EFE2F2E00C9429058C01E3
:10046000CA0146E04C831A83098377FF02C060E02B
:1004700070E8FB013197FE83ED83A901BC01CE0139
:1004800001960E9455024D815E8157FD0AC02F8161
:100490003885421753070CF49A01F801E20FF31F55
:1004A00010822E96E4E00C944505ACE0B0E0EBE55C
:1004B000F2E00C941B057C016B018A01FC011782A0
:1004C0001682838181FFBDC1CE0101964C01F701E7
:1004D0009381F60193FD859193FF81916F018823AC
:1004E00009F4ABC1853239F493FD859193FF819175
:1004F0006F01853229F4B70190E00E943D04E7CFF7
:10050000512C312C20E02032A0F48B3269F030F4F1
:10051000803259F0833269F420612CC08D3239F079
:10052000803339F4216026C02260246023C0286013
:1005300021C027FD27C030ED380F3A3078F426FF70
:1005400006C0FAE05F9E300D1124532E13C08AE0DE
:10055000389E300D1124332E20620CC08E3221F4CF
:1005600026FD6BC1206406C08C3611F4206802C0E1
:10057000883641F4F60193FD859193FF81916F01D7
:100580008111C1CF982F9F7D9554933028F40C5F33
:100590001F4FFFE3F9830DC0833631F0833771F0CD
:1005A000833509F05BC022C0F801808189830E5F2A
:1005B0001F4F44244394512C540115C03801F2E0DC
:1005C0006F0E711CF801A080B18026FF03C0652D5D
:1005D00070E002C06FEF7FEFC5012C870E943204EC
:1005E0002C0183012C852F77222E17C03801F2E0D1
:1005F0006F0E711CF801A080B18026FF03C0652D2D
:1006000070E002C06FEF7FEFC5012C870E942704C6
:100610002C012C852068222E830123FC1BC0832DF6
:1006200090E048165906B0F4B70180E290E00E94CD
:100630003D043A94F4CFF50127FC859127FE819182
:100640005F01B70190E00E943D0431103A94F1E05F
:100650004F1A51084114510471F7E5C0843611F066
:10066000893639F5F80127FF07C0608171818281E1
:1006700093810C5F1F4F08C060817181072E000CB1
:10068000880B990B0E5F1F4F2F76722E97FF09C0B4
:1006900090958095709561957F4F8F4F9F4F206803
:1006A000722E2AE030E0A4010E947504A82EA8183A
:1006B00044C0853729F42F7EB22E2AE030E025C0D1
:1006C000F22FF97FBF2E8F36C1F018F4883579F0FC
:1006D000B4C0803719F0883721F0AFC02F2F2061C8
:1006E000B22EB4FE0DC08B2D8460B82E09C024FF3D
:1006F0000AC09F2F9660B92E06C028E030E005C0E2
:1007000020E130E002C020E132E0F801B7FE07C08E
:1007100060817181828193810C5F1F4F06C060816F
:10072000718180E090E00E5F1F4FA4010E9475046C
:10073000A82EA818FB2DFF777F2E76FE0BC0372D35
:100740003E7FA51450F474FE0AC072FC08C0372D19
:100750003E7E05C0BA2C372D03C0BA2C01C0B52C83
:1007600034FF0DC0FE01EA0DF11D8081803311F4CC
:10077000397E09C032FF06C0B394B39404C0832FFE
:10078000867809F0B39433FD13C030FF06C05A2CAD
:10079000B31418F4530C5B18B32CB31468F4B701FA
:1007A00080E290E03C870E943D04B3943C85F5CF05
:1007B000B31410F43B1801C0312C34FF12C0B70140
:1007C00080E390E03C870E943D043C8532FF17C0E7
:1007D00031FD03C088E790E002C088E590E0B701F2
:1007E0000CC0832F867859F031FF02C08BE201C024
:1007F00080E237FD8DE2B70190E00E943D04A51430
:1008000038F4B70180E390E00E943D045A94F7CF9A
:10081000AA94F401EA0DF11D8081B70190E00E94D5
:100820003D04A110F5CF332009F451CEB70180E289
:1008300090E00E943D043A94F6CFF70186819781BB
:1008400002C08FEF9FEF2C96E2E10C943705FC017C
:100850000590615070400110D8F7809590958E0FEB
:100860009F1F0895FC016150704001900110D8F75E
:10087000809590958E0F9F1F08950F931F93CF9390
:10088000DF93FB01238121FD03C08FEF9FEF28C081
:1008900022FF16C0468157812481358142175307B4
:1008A00044F4A081B1819D012F5F3F4F31832083AC
:1008B0008C93268137812F5F3F4F3783268310C06B
:1008C000EB01092F182F0084F185E02D0995892B64
:1008D000E1F68E819F8101969F838E83812F902FD9
:1008E000DF91CF911F910F910895FA01AA27283027
:1008F00051F1203181F1E8946F936E7F6E5F7F4FED
:100900008F4F9F4FAF4FB1E03ED0B4E03CD0670F68
:10091000781F891F9A1FA11D680F791F8A1F911DBB
:10092000A11D6A0F711D811D911DA11D20D009F40B
:1009300068943F912AE0269F11243019305D31934D
:10094000DEF6CF010895462F4770405D4193B3E036
:100950000FD0C9F7F6CF462F4F70405D4A3318F0DD
:10096000495D31FD4052419302D0A9F7EACFB4E08E
:10097000A6959795879577956795BA95C9F7009746
:100980006105710508959B01AC010A2E06945795E7
:10099000479537952795BA95C9F7620F731F841F3E
:1009A000951FA01D0895A8E1B0E042E050E00C942E
:1009B000DB04DC01CB01FC01F999FECF06C0F2BDDE
:1009C000E1BDF89A319600B40D9241505040B8F70D
:1009D0000895052E97FB1EF400940E94000557FD14
:1009E00007D00E94520507FC03D04EF40C9400057A
:1009F00050954095309521953F4F4F4F5F4F08954B
:100A000090958095709561957F4F8F4F9F4F08957A
:100A10000E947405A59F900DB49F900DA49F800D1A
:100A2000911D11240895B7FF0C9408050E94080534
:100A3000821B930B08952F923F924F925F926F9279
:100A40007F928F929F92AF92BF92CF92DF92EF925E
:100A5000FF920F931F93CF93DF93CDB7DEB7CA1BDF
:100A6000DB0B0FB6F894DEBF0FBECDBF09942A880A
:100A7000398848885F846E847D848C849B84AA84B2
:100A8000B984C884DF80EE80FD800C811B81AA813F
:100A9000B981CE0FD11D0FB6F894DEBF0FBECDBF0A
:100AA000ED010895A1E21A2EAA1BBB1BFD010DC08A
:100AB000AA1FBB1FEE1FFF1FA217B307E407F5070E
:100AC00020F0A21BB30BE40BF50B661F771F881FEA
:100AD000991F1A9469F760957095809590959B0180
:100AE000AC01BD01CF010895A29FB001B39FC00129
:100AF000A39F700D811D1124911DB29F700D811D4A
:0A0B00001124911D0895F894FFCF11
:100B0A000100000052484D4532204649206C657666
:100B1A00656C20322E0D0A0D0A0043686970206C3C
:100B2A006F636B65640D0A506C656173652077723B
:100B3A0069746520796F75722070617373776F724B
:100B4A00643A20004368697020756E6C6F636B6548
:100B5A00640D0A00464C41473A20346C6C207034CC
:100B6A00737377307264732061723320636F7272A9
:060B7A0033637421210029
:00000001FF
