:100000000C9434000C9451000C9451000C94510049
:100010000C9451000C9451000C9451000C9451001C
:100020000C9451000C9451000C9451000C9451000C
:100030000C9451000C9451000C9451000C945100FC
:100040000C9451000C9451000C9451000C945100EC
:100050000C9451000C9451000C9451000C945100DC
:100060000C9451000C94510011241FBECFEFD8E026
:10007000DEBFCDBF13E0A0E0B1E0E2E9FBE102C0EA
:1000800005900D92A237B107D9F724E0A2E7B3E0BB
:1000900001C01D92AB35B207E1F70E9450070C94E6
:1000A000C70D0C940000CF93DF931F92CDB7DEB73E
:1000B0008983000080EC90E0FC018081882F90E033
:1000C00080729927892BB1F386EC90E02981FC019D
:1000D00020830F90DF91CF910895CF93DF93CDB719
:1000E000DEB785EC90E0FC01108284EC90E023E325
:1000F000FC01208381EC90E028E1FC01208382EC6C
:1001000090E026E0FC01208382EC90E022EC30E0DD
:10011000F90120812F7BFC01208381EC90E021EC10
:1001200030E0F90120812068FC012083DF91CF912C
:100130000895CF93DF93CDB7DEB760970FB6F894ED
:10014000DEBF0FBECDBF988B8F877DC08F8598890E
:100150009C012F5F3F4F388B2F87FC0180810E94CD
:10016000530080E090E0A0E8BFE389839A83AB83EB
:10017000BC8320E030E04AE755E469817A818B81D5
:100180009C810E944609DC01CB018D839E83AF8355
:10019000B88720E030E040E85FE36D817E818F81A9
:1001A00098850E94C00888232CF481E090E09A870B
:1001B00089873FC020E03FEF4FE757E46D817E81A4
:1001C0008F8198850E94410918164CF520E030E097
:1001D00040E251E469817A818B819C810E944609C9
:1001E000DC01CB01BC01CD010E94C508DC01CB01C3
:1001F0009A8789870FC080E991E09C878B878B85E0
:100200009C850197F1F79C878B8789859A85019753
:100210009A87898789859A85892B69F714C06D81AA
:100220007E818F8198850E94C508DC01CB019A8769
:10023000898789859A859E878D878D859E8501977B
:10024000F1F79E878D878F859889FC0180818823AF
:1002500009F07CCF60960FB6F894DEBF0FBECDBF1D
:10026000DF91CF910895CF93DF93CDB7DEB780ECC8
:1002700090E0FC018081882314F481E001C080E0DB
:10028000DF91CF910895CF93DF93CDB7DEB7000014
:100290000E9433018823E1F386EC90E0FC01808129
:1002A000DF91CF910895CF93DF9300D0CDB7DEB724
:1002B000CE0109969A83898329813A818F81988515
:1002C000AC0168E770E083E793E00E945A0A83E795
:1002D00093E00E9499000F900F90DF91CF910895C5
:1002E000CF93DF93CDB7DEB785E290E025E230E033
:1002F000F901308120E22327FC012083DF91CF9197
:100300000895CF93DF93CDB7DEB76C970FB6F8940F
:10031000DEBF0FBECDBF9C8F8B8F8FEF9FEF9C8377
:100320008B831E821D8218861F82D7C083E290E0D5
:10033000FC018081882F90E0382F222789E290E00D
:10034000FC018081882F90E0820F931F9A87898714
:1003500089859A8504970CF449C01A82198241C094
:1003600089819A81880F991F815B9B4FFC012081B5
:10037000318189859A8502C0959587952A95E2F7FE
:10038000817099279C878B878B859C850197A1F429
:100390008D819E81892B81F489819A81880F991F93
:1003A000815B9B4FFC01808191819C838B8381E0E9
:1003B00090E09E838D8310C08B859C85019761F4AE
:1003C0008D819E81019741F482E090E09E838D8330
:1003D0008FEF9FEF9C838B8389819A8101969A830B
:1003E000898389819A8106970CF4BACF8F81988589
:1003F000449698878F8380E090E0A0EAB1E48D87EF
:100400009E87AF87B88B20E030E04AE755E46D85E2
:100410007E858F8598890E944609DC01CB01898BF6
:100420009A8BAB8BBC8B20E030E040E85FE36989BE
:100430007A898B899C890E94C00888232CF481E0EA
:1004400090E09E8B8D8B3FC020E03FEF4FE757E45D
:1004500069897A898B899C890E94410918164CF513
:1004600020E030E040E251E46D857E858F859889FB
:100470000E944609DC01CB01BC01CD010E94C508E8
:10048000DC01CB019E8B8D8B0FC080E991E0988FB2
:100490008F8B8F89988D0197F1F7988F8F8B8D892E
:1004A0009E8901979E8B8D8B8D899E89892B69F7FB
:1004B00014C069897A898B899C890E94C508DC01EE
:1004C000CB019E8B8D8B8D899E899A8F898F898D8B
:1004D0009A8D0197F1F79A8F898F2F8138858B8DAF
:1004E0009C8D821793072CF08D819E81892B09F4B6
:1004F0001DCF8B819C816C960FB6F894DEBF0FBE2A
:10050000CDBFDF91CF9108950F931F93CF93DF93CA
:10051000CDB7DEB7C056D1090FB6F894DEBF0FBE17
:10052000CDBF1A8219820FC489819A81892B09F063
:100530000AC184E091E0892F8F9384E091E08F934A
:100540000E9453010F900F9080E090E0AAE7B4E47E
:100550008B879C87AD87BE8720E030E04AE755E473
:100560006B857C858D859E850E944609DC01CB01CB
:100570008F87988BA98BBA8B20E030E040E85FE34F
:100580006F85788989899A890E94C00888232CF40C
:1005900081E090E09C8B8B8B3FC020E03FEF4FE7EA
:1005A00057E46F85788989899A890E9441091816CC
:1005B0004CF520E030E040E251E46B857C858D8590
:1005C0009E850E944609DC01CB01BC01CD010E9441
:1005D000C508DC01CB019C8B8B8B0FC080E991E0BF
:1005E0009E8B8D8B8D899E890197F1F79E8B8D8BCC
:1005F0008B899C8901979C8B8B8B8B899C89892B00
:1006000069F714C06F85788989899A890E94C5081D
:10061000DC01CB019C8B8B8B8B899C89988F8F8B7A
:100620008F89988D0197F1F7988F8F8B8FE091E0EC
:10063000892F8F938FE091E08F930E9453010F9049
:100640000F9080E090E0AAE7B4E4898F9A8FAB8F97
:10065000BC8F20E030E04AE755E4698D7A8D8B8DC0
:100660009C8D0E944609DC01CB018D8F9E8FAF8F40
:10067000B8A320E030E040E85FE36D8D7E8D8F8D84
:1006800098A10E94C00888232CF481E090E09AA3EE
:1006900089A33FC020E03FEF4FE757E46D8D7E8D8B
:1006A0008F8D98A10E94410918164CF520E030E08A
:1006B00040E251E4698D7A8D8B8D9C8D0E944609B4
:1006C000DC01CB01BC01CD010E94C508DC01CB01DE
:1006D0009AA389A30FC080E991E09CA38BA38BA16F
:1006E0009CA10197F1F79CA38BA389A19AA10197E3
:1006F0009AA389A389A19AA1892B69F714C06D8D4A
:100700007E8D8F8D98A10E94C508DC01CB019AA334
:1007100089A389A19AA19EA38DA38DA19EA10197D2
:10072000F1F79EA38DA38CE191E0892F8F938CE14B
:1007300091E08F930E9453010F900F9088E893E10E
:100740009E838D8309C08D819E8199230CF401962F
:10075000959587959E838D8381E090E09C838B8324
:100760000E94270A26E030E0B9010E94980801960D
:1007700098878F8303C10E94700180E090E0A8E415
:10078000B2E48FA398A7A9A7BAA720E030E04AE770
:1007900055E46FA178A589A59AA50E944609DC01B8
:1007A000CB018BA79CA7ADA7BEA720E030E040E817
:1007B0005FE36BA57CA58DA59EA50E94C00888233C
:1007C0002CF481E090E098AB8FA73FC020E03FEF92
:1007D0004FE757E46BA57CA58DA59EA50E94410916
:1007E00018164CF520E030E040E251E46FA178A506
:1007F00089A59AA50E944609DC01CB01BC01CD0167
:100800000E94C508DC01CB0198AB8FA70FC080E91F
:1008100091E09AAB89AB89A99AA90197F1F79AABB4
:1008200089AB8FA598A9019798AB8FA78FA598A999
:10083000892B69F714C06BA57CA58DA59EA50E9488
:10084000C508DC01CB0198AB8FA78FA598A99CABFD
:100850008BAB8BA99CA90197F1F79CAB8BAB0E944A
:10086000700180E090E0A8E4B2E48DAB9EABAFAB4A
:10087000B8AF20E030E04AE755E46DA97EA98FA922
:1008800098AD0E944609DC01CB0189AF9AAFABAFAE
:10089000BCAF20E030E040E85FE369AD7AAD8BADFE
:1008A0009CAD0E94C00888232CF481E090E09EAFAC
:1008B0008DAF49C020E03FEF4FE757E469AD7AAD17
:1008C0008BAD9CAD0E94410918169CF520E030E0EC
:1008D00040E251E46DA97EA98FA998AD0E94460916
:1008E000DC01CB01BC01CD010E94C508DC01CB01BC
:1008F0009EAF8DAF19C020E931E0CE01CF96FC014B
:1009000031832083CE01CF96FC01808191810197B4
:10091000F1F79E01215C3F4FF901918380838DADFA
:100920009EAD01979EAF8DAF8DAD9EAD892B19F712
:1009300020C069AD7AAD8BAD9CAD0E94C508DC01CD
:10094000CB019EAF8DAFCE018F5B9F4F2DAD3EADE6
:10095000FC0131832083CE018F5B9F4FFC0180819E
:1009600091810197F1F79E012F5B3F4FF901918330
:1009700080838B819C8101969C838B832B813C811E
:100980008F8198858217930708F0F5CE9E012D5B25
:100990003F4F80E090E0A0E8B0E4F90180839183CC
:1009A000A283B3838E01095B1F4FCE018D5B9F4FE6
:1009B00020E030E04AE755E4FC01608171818281EA
:1009C00093810E944609DC01CB01F8018083918369
:1009D000A283B383CE01895B9F4F20E030E040E8E3
:1009E0005FE3FC0160817181828193810E94C00874
:1009F00088234CF4CE01855B9F4F21E030E0FC0161
:100A0000318320836DC0CE01895B9F4F20E03FEF93
:100A10004FE757E4FC0160817181828193810E94DC
:100A2000410918160CF04AC0CE018D5B9F4F20E0A3
:100A300030E040E251E4FC01608171818281938168
:100A40000E944609DC01CB018E01055B1F4FBC01F2
:100A5000CD010E94C508DC01CB01F80191838083A0
:100A600024C0CE01835B9F4F20E931E0FC0131833C
:100A70002083CE01835B9F4FFC0180819181019790
:100A8000F1F79E01235B3F4FF90191838083CE01F3
:100A9000855B9F4F9E01255B3F4FF901208131818E
:100AA00021503109FC0131832083CE01855B9F4FAA
:100AB000FC0180819181892BA1F62CC08E01055B00
:100AC0001F4FCE01895B9F4FFC0160817181828144
:100AD00093810E94C508DC01CB01F80191838083DA
:100AE000CE01815B9F4F9E01255B3F4FF901208125
:100AF0003181FC0131832083CE01815B9F4FFC015A
:100B0000808191810197F1F79E01215B3F4FF901AF
:100B1000918380838D819E810E9481019A8789873C
:100B20008F8198850197880F991F815B9B4FFC01EE
:100B30002081318189859A852817390709F0F1C00C
:100B400089819A81C29719F48EEF9AEC03C122E34E
:100B500030E089819A81A901481B590BCA01292FCC
:100B60002F938F9384E291E0892F8F9384E291E019
:100B70008F938BEE93E0892F8F938BEE93E08F937F
:100B80000E94370A0F900F900F900F900F900F90C8
:100B90008BEE93E00E9499009E012F5A3F4F80E018
:100BA00090E0A8E4B2E4F90180839183A283B38347
:100BB0008E010B5A1F4FCE018F5A9F4F20E030E01D
:100BC0004AE755E4FC0160817181828193810E9432
:100BD0004609DC01CB01F80180839183A283B383B2
:100BE000CE018B5A9F4F20E030E040E85FE3FC01EC
:100BF00060817181828193810E94C00888234CF4B6
:100C0000CE01875A9F4F21E030E0FC0131832083E1
:100C10006DC0CE018B5A9F4F20E03FEF4FE757E466
:100C2000FC0160817181828193810E9441091816C3
:100C30000CF04AC0CE018F5A9F4F20E030E040E2D6
:100C400051E4FC0160817181828193810E94460997
:100C5000DC01CB018E01075A1F4FBC01CD010E9460
:100C6000C508DC01CB01F8019183808324C0CE014B
:100C7000855A9F4F20E931E0FC0131832083CE016A
:100C8000855A9F4FFC01808191810197F1F79E0168
:100C9000255A3F4FF90191838083CE01875A9F4F98
:100CA0009E01275A3F4FF90120813181215031099E
:100CB000FC0131832083CE01875A9F4FFC01808144
:100CC0009181892BA1F63AC08E01075A1F4FCE01A0
:100CD0008B5A9F4FFC0160817181828193810E94B8
:100CE000C508DC01CB01F80191838083CE01835AD2
:100CF0009F4F9E01275A3F4FF90120813181FC010E
:100D000031832083CE01835A9F4FFC0180819181E2
:100D10000197F1F79E01235A3F4FF9019183808398
:100D20000DC085E591E00E94990000000E944301FA
:100D30008D30E1F78FEF9FEF9A83898389819A81C4
:100D400001969A83898389819A81C3970CF4ECCBAD
:100D500080E090E0C05ADF4F0FB6F894DEBF0FBEC0
:100D6000CDBFDF91CF911F910F910895CF93DF9366
:100D7000CDB7DEB72A970FB6F894DEBF0FBECDBF52
:100D80001A8219821C821B821C821B8210C08B81DA
:100D90009C81880F991F815B9B4F2FEF3FEFFC01D8
:100DA000318320838B819C8101969C838B838B81F3
:100DB0009C81069764F31C821B823DC00E94270A17
:100DC0002BE030E0B9010E949808029698878F8343
:100DD0001E821D822CC08D819E81880F991F815B90
:100DE0009B4FFC01208131818F819885281739071D
:100DF00009F421C08D819E810597A1F48B819C818E
:100E0000880F991F815B9B4F2F813885FC013183AF
:100E100020838B819C8101969C838B838EEB9AEB44
:100E20009A8389838D819E8101969E838D838D8196
:100E30009E81069784F28091590490915A040196FC
:100E400009F4BCCF89819A812A960FB6F894DEBF47
:100E50000FBECDBFDF91CF910895CF93DF93CDB774
:100E6000DEB7809172038823B1F480E090E00E94A5
:100E7000040D0E942C0A0E94270A80952EEB9227CF
:100E8000BC0180E090E00E940A0D81E08093720333
:100E90008DEA9EED02C080E090E0DF91CF91089551
:100EA000CF93DF93CDB7DEB766970FB6F894DEBF6A
:100EB0000FBECDBF0E946D0084E290E020E2FC01F5
:100EC000208385E891E0892F8F9385E891E08F93C7
:100ED0000E9453010F900F908FE991E0892F8F931B
:100EE0008FE991E08F930E9453010F900F908EED48
:100EF00091E0892F8F938EED91E08F930E945301A3
:100F00000F900F908BE192E0892F8F938BE192E00D
:100F10008F930E9453010F900F9087E492E0892FE6
:100F20008F9387E492E08F930E9453010F900F906C
:100F30008AE892E0892F8F938AE892E08F930E944B
:100F400053010F900F9000000E9443018D30E1F794
:100F50000E942D079C838B838B819C818D3A9E4DB3
:100F600019F080E090E0DBC00E94B6069C838B8382
:100F70008B819C818E3B9A4B19F080E090E0CFC032
:100F80000E9484029C838B838B819C818E3F9A4C30
:100F900009F0BFC01A8219820E94270A24EF31E0AB
:100FA000B9010E9498089E838D8377C089819A81B8
:100FB00001969A83898380E090E0A0E8BFE38F8365
:100FC0009887A987BA8720E030E04AE755E46F8127
:100FD000788589859A850E944609DC01CB018B873B
:100FE0009C87AD87BE8720E030E040E85FE36B85FB
:100FF0007C858D859E850E94C00888232CF481E025
:1010000090E0988B8F873FC020E03FEF4FE757E499
:101010006B857C858D859E850E94410918164CF54F
:1010200020E030E040E251E46F81788589859A853F
:101030000E944609DC01CB01BC01CD010E94C5081C
:10104000DC01CB01988B8F870FC080E991E09A8BF0
:10105000898B89899A890197F1F79A8B898B8F857A
:1010600098890197988B8F878F859889892B69F745
:1010700014C06B857C858D859E850E94C508DC012A
:10108000CB01988B8F878F8598899C8B8B8B8B89D5
:101090009C890197F1F79C8B8B8B29813A818D81FB
:1010A0009E81281739070CF481CF8B819C818E3F5C
:1010B0009A4C79F58EEC92E0892F8F938EEC92E02A
:1010C0008F930E9453010F900F908DEF92E0892F24
:1010D0008F938DEF92E08F930E9453010F900F90AA
:1010E00087E293E0892F8F9387E293E08F930E94AA
:1010F00053010F900F9082E593E0892F8F9382E543
:1011000093E08F930E9453010F900F9080E090E046
:1011100006C087E693E00E94990080E090E0669622
:101120000FB6F894DEBF0FBECDBFDF91CF9108950B
:1011300097FB072E16F4009407D077FD09D00E9484
:10114000AC0807FC05D03EF4909581959F4F08951B
:10115000709561957F4F0895AA1BBB1B51E107C095
:10116000AA1FBB1FA617B70710F0A61BB70B881F37
:10117000991F5A95A9F780959095BC01CD010895C6
:101180000E94F40808F481E008950E94200988F084
:101190009F5798F0B92F9927B751B0F0E1F0660F3B
:1011A000771F881F991F1AF0BA95C9F714C0B1307C
:1011B00091F00E943A09B1E008950C943A09672F22
:1011C000782F8827B85F39F0B93FCCF386957795AB
:1011D0006795B395D9F73EF4909580957095619594
:1011E0007F4F8F4F9F4F0895990F0008550FAA0BFF
:1011F000E0E8FEEF16161706E807F907C0F012162A
:101200001306E407F50798F0621B730B840B950B2C
:1012100039F40A2661F0232B242B252B21F4089581
:101220000A2609F4A140A6958FEF811D811D08951E
:1012300057FD9058440F551F59F05F3F71F0479587
:10124000880F97FB991F61F09F3F79F0879508956C
:10125000121613061406551FF2CF4695F1DF08C08B
:10126000161617061806991FF1CF869571056105A8
:1012700008940895E894BB2766277727CB0197F950
:1012800008950E94F40808F48FEF08950E94590908
:101290000C94CA090E94BC0938F00E94C30920F0CE
:1012A000952311F00C94B3090C94B90911240C94F2
:1012B0003B090E94180970F3959FC1F3950F50E008
:1012C000551F629FF001729FBB27F00DB11D639FF8
:1012D000AA27F00DB11DAA1F649F6627B00DA11D9E
:1012E000661F829F2227B00DA11D621F739FB00D44
:1012F000A11D621F839FA00D611D221F749F3327B4
:10130000A00D611D231F849F600D211D822F762F4C
:101310006A2F11249F5750409AF0F1F088234AF029
:10132000EE0FFF1FBB1F661F771F881F9150504095
:10133000A9F79E3F510580F00C94B3090C943B092A
:101340005F3FE4F3983ED4F3869577956795B7951C
:10135000F795E7959F5FC1F7FE2B880F911D969536
:10136000879597F9089597F99F6780E870E060E0A6
:1013700008959FEF80EC089500240A94161617062E
:1013800018060906089500240A9412161306140676
:1013900005060895092E0394000C11F4882352F0D9
:1013A000BB0F40F4BF2B11F460FF04C06F5F7F4F91
:1013B0008F4F9F4F08958F929F92AF92BF92CF927F
:1013C000DF92EF92FF92CF93DF93EC0168817981F6
:1013D0008A819B81611571058105910521F464E283
:1013E00079ED8BE597E02DE133EF41E050E00E948D
:1013F0002D0D49015A019B01AC01A7EAB1E40E94FD
:101400004C0D6B017C01ACEEB4EFA50194010E9480
:101410005A0DDC01CB018C0D9D1DAE1DBF1DB7FF0C
:1014200003C00197A109B04888839983AA83BB832D
:101430009F77DF91CF91FF90EF90DF90CF90BF909B
:10144000AF909F908F9008950E94DB09089580E0EF
:1014500091E00E94DB090895A0E0B0E080930001D4
:1014600090930101A0930201B09303010895AEE0AF
:10147000B0E0EDE3FAE00C946D0D0D891E8986E075
:101480008C831A8309838FEF9FE79E838D83AE0140
:10149000475E5F4F6F89788DCE0101960E94860A64
:1014A0002F813885F801E20FF31F10822E96E4E0B9
:1014B0000C94890DAEE0B0E0E0E6FAE00C946D0D1E
:1014C0008C01CA0146E04C831A83098377FF02C06E
:1014D00060E070E8FB013197FE83ED83A901BC0158
:1014E000CE0101960E94860A4D815E8157FD0AC099
:1014F0002F813885421753070CF49A01F801E20F47
:10150000F31F10822E96E4E00C94890DACE0B0E05D
:10151000ECE8FAE00C945F0D7C016B018A01FC01A0
:1015200017821682838181FFBDC1CE0101964C01D5
:10153000F7019381F60193FD859193FF81916F01EE
:10154000882309F4ABC1853239F493FD859193FF6B
:1015500081916F01853229F4B70190E00E946E0CF1
:10156000E7CF512C312C20E02032A0F48B3269F0EF
:1015700030F4803259F0833269F420612CC08D320E
:1015800039F0803339F4216026C02260246023C002
:10159000286021C027FD27C030ED380F3A3078F49D
:1015A00026FF06C0FAE05F9E300D1124532E13C0B3
:1015B0008AE0389E300D1124332E20620CC08E320A
:1015C00021F426FD6BC1206406C08C3611F420681E
:1015D00002C0883641F4F60193FD859193FF819115
:1015E0006F018111C1CF982F9F7D9554933028F4BE
:1015F0000C5F1F4FFFE3F9830DC0833631F0833753
:1016000071F0833509F05BC022C0F80180818983C5
:101610000E5F1F4F44244394512C540115C03801D0
:10162000F2E06F0E711CF801A080B18026FF03C0AC
:10163000652D70E002C06FEF7FEFC5012C870E941F
:10164000630C2C0183012C852F77222E17C03801C3
:10165000F2E06F0E711CF801A080B18026FF03C07C
:10166000652D70E002C06FEF7FEFC5012C870E94EF
:10167000580C2C012C852068222E830123FC1BC0D2
:10168000832D90E048165906B0F4B70180E290E04F
:101690000E946E0C3A94F4CFF50127FC859127FE49
:1016A00081915F01B70190E00E946E0C31103A9475
:1016B000F1E04F1A51084114510471F7E5C0843626
:1016C00011F0893639F5F80127FF07C06081718173
:1016D000828193810C5F1F4F08C060817181072E4A
:1016E000000C880B990B0E5F1F4F2F76722E97FF01
:1016F00009C090958095709561957F4F8F4F9F4F52
:101700002068722E2AE030E0A4010E94A60CA82EC8
:10171000A81844C0853729F42F7EB22E2AE030E085
:1017200025C0F22FF97FBF2E8F36C1F018F488350F
:1017300079F0B4C0803719F0883721F0AFC02F2F6F
:101740002061B22EB4FE0DC08B2D8460B82E09C06E
:1017500024FF0AC09F2F9660B92E06C028E030E013
:1017600005C020E130E002C020E132E0F801B7FE20
:1017700007C060817181828193810C5F1F4F06C019
:101780006081718180E090E00E5F1F4FA4010E9494
:10179000A60CA82EA818FB2DFF777F2E76FE0BC077
:1017A000372D3E7FA51450F474FE0AC072FC08C0A9
:1017B000372D3E7E05C0BA2C372D03C0BA2C01C090
:1017C000B52C34FF0DC0FE01EA0DF11D8081803380
:1017D00011F4397E09C032FF06C0B394B39404C03B
:1017E000832F867809F0B39433FD13C030FF06C011
:1017F0005A2CB31418F4530C5B18B32CB31468F4BC
:10180000B70180E290E03C870E946E0CB3943C8567
:10181000F5CFB31410F43B1801C0312C34FF12C0C3
:10182000B70180E390E03C870E946E0C3C8532FF5C
:1018300017C031FD03C088E790E002C088E590E062
:10184000B7010CC0832F867859F031FF02C08BE2BC
:1018500001C080E237FD8DE2B70190E00E946E0C7E
:10186000A51438F4B70180E390E00E946E0C5A94FE
:10187000F7CFAA94F401EA0DF11D8081B70190E041
:101880000E946E0CA110F5CF332009F451CEB701A0
:1018900080E290E00E946E0C3A94F6CFF7018681C8
:1018A000978102C08FEF9FEF2C96E2E10C947B0DA5
:1018B000FC010590615070400110D8F7809590951B
:1018C0008E0F9F1F0895FC01615070400190011020
:1018D000D8F7809590958E0F9F1F08950F931F93B3
:1018E000CF93DF93FB01238121FD03C08FEF9FEF97
:1018F00028C022FF16C046815781248135814217B6
:10190000530744F4A081B1819D012F5F3F4F318384
:1019100020838C93268137812F5F3F4F3783268327
:1019200010C0EB01092F182F0084F185E02D0995D7
:10193000892BE1F68E819F8101969F838E83812F73
:10194000902FDF91CF911F910F910895FA01AA274F
:10195000283051F1203181F1E8946F936E7F6E5FF2
:101960007F4F8F4F9F4FAF4FB1E03ED0B4E03CD0A0
:10197000670F781F891F9A1FA11D680F791F8A1F83
:10198000911DA11D6A0F711D811D911DA11D20D0EA
:1019900009F468943F912AE0269F11243019305DA4
:1019A0003193DEF6CF010895462F4770405D419395
:1019B000B3E00FD0C9F7F6CF462F4F70405D4A33E2
:1019C00018F0495D31FD4052419302D0A9F7EACFAA
:1019D000B4E0A6959795879577956795BA95C9F7D9
:1019E00000976105710508959B01AC010A2E0694CC
:1019F0005795479537952795BA95C9F7620F731F85
:101A0000841F951FA01D0895A8E1B0E042E050E0BA
:101A10000C94110D0E941F0D272F0C94200DDC013A
:101A2000CB01FC01F999FECF06C0F2BDE1BDF89AE9
:101A3000319600B40D9241505040B8F70895262FCA
:101A4000F999FECF1FBA92BD81BD20BD0FB6F894A3
:101A5000FA9AF99A0FBE01960895052E97FB1EF487
:101A600000940E94440D57FD07D00E94960D07FC7C
:101A700003D04EF40C94440D50954095309521952B
:101A80003F4F4F4F5F4F08959095809570956195AA
:101A90007F4F8F4F9F4F08950E94B80DA59F900DC7
:101AA000B49F900DA49F800D911D11240895B7FF40
:101AB0000C944C0D0E944C0D821B930B08952F9299
:101AC0003F924F925F926F927F928F929F92AF92CE
:101AD000BF92CF92DF92EF92FF920F931F93CF931B
:101AE000DF93CDB7DEB7CA1BDB0B0FB6F894DEBFB2
:101AF0000FBECDBF09942A88398848885F846E84D8
:101B00007D848C849B84AA84B984C884DF80EE8021
:101B1000FD800C811B81AA81B981CE0FD11D0FB62A
:101B2000F894DEBF0FBECDBFED010895A1E21A2EDD
:101B3000AA1BBB1BFD010DC0AA1FBB1FEE1FFF1F71
:101B4000A217B307E407F50720F0A21BB30BE40BC1
:101B5000F50B661F771F881F991F1A9469F7609508
:101B60007095809590959B01AC01BD01CF010895C2
:101B7000A29FB001B39FC001A39F700D811D1124CE
:101B8000911DB29F700D811D1124911D0895F8942F
:021B9000FFCF85
:101B9200010000000D0A52656164793F0D0A000DD3
:101BA2000A47657420736574210D0A000D0A474FB8
:101BB200210D0A004772656174206A6F622E2059F6
:101BC2006F7520776861636B65642069742E204F9E
:101BD2006E6C79202564206D6F726520746F2067AA
:101BE2006F2E0D0A00596F75206D6973736564203D
:101BF20069742E2054727920616761696E2062795E
:101C0200207072657373696E67203C456E746572ED
:101C12003E2E0D0A000D0A57656C636F6D652061DB
:101C22006476656E74757265722E0D0A0D0A005720
:101C3200652061726520676C616420796F7520612F
:101C4200726520686572652E205765206172652075
:101C5200696E2064697265206E656564206F662016
:101C6200617373697374656E63652E0D0A0041209A
:101C7200687567652066616D696C79206F66206D95
:101C82006F6C6573206861766520666F756E64207F
:101C920074686569722077617920696E746F206F4C
:101CA200757220796172642E0D0A005765206E6587
:101CB200656420796F7520746F206765742072697E
:101CC20064206F6620616C6C203230206F66207455
:101CD20068656D2E0D0A00496620796F75206D6169
:101CE2006E61676520746F20657874696E677569C7
:101CF2007368207468656D20616C6C20776520774D
:101D0200696C6C2067726561746C792072657761A9
:101D1200726420796F752E0D0A005768656E2079FE
:101D22006F75206172652072656164792C20706C18
:101D320065617365207374657020696E746F2074B9
:101D420068652079617264206279207072657373AC
:101D5200696E67203C456E7465723E0D0A000D0A7D
:101D6200576861743F20596F75206D616E616765B8
:101D72006420746F20676574207468656D20616CDF
:101D82006C20616C72656164793F0D0A00576520B1
:101D9200617265206D6F7374206772617465667518
:101DA2006C6C20666F7220796F7572207365727623
:101DB2006963652E0D0A00506C656173652074615C
:101DC2006B65206F7572206D6F737420707265631E
:101DD200696F75732062656C6F6E67696E672E0D31
:101DE2000A00464C41473A53347633645F7468655F
:101DF2005F6634726D21004661696C65642E0D0A5E
:021E02000000DE
:00000001FF
