:100000000C944D010C946A010C946A010C946A01E1
:100010000C946A010C946A010C946A010C946A01B4
:100020000C946A010C946A010C946A010C946A01A4
:100030000C946A010C946A010C946A010C946A0194
:100040000C946A010C946A010C946A010C946A0184
:100050000C946A010C946A010C946A010C946A0174
:100060000C946A010C946A012E006472777872779E
:1000700078722D782072656D6F74652072656D6F72
:1000800074652034303936207365702020310020AB
:10009000002E2E0064727778727778722D78207235
:1000A000656D6F74652072656D6F746520343039CD
:1000B00036207365702020310020006361742E7437
:1000C0007874002D722D2D722D2D722D2D207265BC
:1000D0006D6F74652072656D6F74652020203837F0
:1000E00020736570203134002020415F410D0A20CB
:1000F000282D2E2D290D0A20207C2D7C0D0A202F45
:100100002020205C0D0A7C20202020207C20202024
:100110005F5F0D0A7C20207C7C207C20207C2020BE
:100120005C5F5F0D0A205C5F7C7C5F2F5F2F006649
:10013000696E616E6365732E637376002D722D2D6B
:10014000722D2D722D2D2072656D6F746520726574
:100150006D6F746520202034372073657020313630
:1001600000796561722C70726F6669740D0A3230A5
:1001700031342C2B31303025250D0A323031352CDD
:100180002B32303025250D0A006A6F6B652E74788E
:1001900074002D722D2D722D2D722D2D2072656DF6
:1001A0006F74652072656D6F746520202020332088
:1001B00073657020313400210070617373776400BF
:1001C0002D72772D2D2D2D2D2D2D20726F6F7420DA
:1001D0002020726F6F7420202020203337206A6126
:1001E0006E2020350000706570706572002D72778A
:1001F0002D2D2D2D2D2D2D20726F6F74202020720E
:100200006F6F7420202020202038206A616E20200B
:1002100031004E6F746173616C740068009100BBB3
:10022000002F018901B901E6016A009400C3003C76
:10023000019201C001ED018F00B900E8006101B732
:1002400001E50112020D0A20526571756573743F54
:100250000D0A0D0A3E3E2000496E76616C696420ED
:10026000726571756573742E0D0A000D0A000D0A12
:100270000052484D654F532066696C6520415049D6
:100280000D0A0046696C657320696E20737973747A
:10029000656D3A0D0A000D0A000011241FBECFEF54
:1002A000D8E0DEBFCDBF11E0A0E0B1E0E4EBF5E2C5
:1002B00002C005900D92AE3AB107D9F723E0AEEA3D
:1002C000B1E001C01D92A034B207E1F70E948C0D8D
:1002D0000C94D8120C940000CF93DF9300D0CDB7CC
:1002E000DEB7CE0109969A83898329813A818F816D
:1002F0009885AC0168E770E08EEA91E00E94A80F53
:100300008EEA91E00E94DC010F900F90DF91CF9177
:100310000895CF93DF9300D01F92CDB7DEB79A83B5
:1003200089836B8389819A816B810E941A020F9065
:100330000F900F90DF91CF910895CF93DF9300D06E
:10034000CDB7DEB783E390E09A83898385EC90E0B4
:1003500029813A81232F3327FC01208384EC90E00C
:100360002981FC01208381EC90E028E1FC012083BD
:1003700082EC90E026E0FC0120830F900F90DF914B
:10038000CF910895CF93DF931F92CDB7DEB78983C6
:10039000000080EC90E0FC018081882F90E080726A
:1003A0009927892BB1F386EC90E02981FC01208309
:1003B0000F90DF91CF910895CF93DF9300D0CDB709
:1003C000DEB79A8389830BC089819A819C012F5F54
:1003D0003F4F3A832983FC0180810E94C2018981B9
:1003E0009A81FC018081882379F70F900F90DF912B
:1003F000CF910895CF93DF93CDB7DEB780EC90E037
:10040000FC018081882314F481E001C080E0DF9149
:10041000CF910895CF93DF93CDB7DEB700000E9450
:10042000FA018823E1F386EC90E0FC018081DF9102
:10043000CF910895CF93DF93CDB7DEB727970FB64F
:10044000F894DEBF0FBECDBF9E838D836F8319826C
:100450001A8228C00E940A028B838B818D30D1F4CE
:100460000E940A028C838C818A3019F481E08A838D
:1004700019C08D819E812F8149816B810E94680204
:1004800089838D819E812F8149816C810E946802C0
:10049000898308C08D819E812F8149816B810E9453
:1004A000680289838A818823A9F28981882F90E054
:1004B0002D813E81820F931FFC0110828981279636
:1004C0000FB6F894DEBF0FBECDBFDF91CF91089578
:1004D000CF93DF9300D000D01F92CDB7DEB79A83C1
:1004E00089836B834C832D838C81282F30E08D8111
:1004F000882F90E00197281739076CF48C8191E0E0
:10050000980F9C83882F90E029813A81820F931F56
:100510002B81FC0120838C810F900F900F900F9006
:100520000F90DF91CF910895CF93DF93CDB7DEB7D2
:10053000C856D1090FB6F894DEBF0FBECDBF9E01DD
:100540002D593F4FF90191838083CE018B599F4FE5
:10055000FC0171836083CE0189599F4FFC01518357
:100560004083CE0101960E94E502892B09F0FFCF5E
:10057000CE0189599F4FFC0120813181CE018B59D9
:100580009F4FFC0180819181A901BC01CE010196A0
:100590000E94F803892B09F0FFCFCE018D599F4FA0
:1005A000FC0180819181BC01CE0101960E94520321
:1005B000892B09F0FFCFC859DF4F0FB6F894DEBF83
:1005C0000FBECDBFDF91CF910895CF93DF9300D0C1
:1005D000CDB7DEB79A83898389819A81892B19F4F3
:1005E00081E090E05AC089819A81FC01148A158AC1
:1005F000168A178A89819A81FC01108E118E128EBB
:10060000138E89819A81FC01158E148E29813A817D
:1006100081E093E2A5E4B7E6F90180839183A283A8
:10062000B38329813A8189E89BEAADECBFEEF901F9
:1006300084839583A683B78329813A818EEF9CEDCD
:10064000AAEBB8E9F90180879187A287B38729814E
:100650003A8186E794E5A2E3B0E1F90184879587C2
:10066000A687B78729813A8180EF91EEA2EDB3EC9E
:10067000F901808B918BA28BB38B89819A81825AED
:100680009F4FFC011182108289819A81805A9F4F6D
:10069000FC011182108280E090E00F900F90DF91BA
:1006A000CF910895CF93DF9300D000D000D0CDB785
:1006B000DEB79C838B837E836D838B819C81892BAA
:1006C00021F08D819E81892B19F481E090E087C013
:1006D0008B819C81805A9F4FFC0180819181892B65
:1006E00041F08B819C81805A9F4FFC0180819181D8
:1006F00076C08B819C81825A9F4FFC0180819181C1
:10070000892B89F58B819C810E94410A1A8219826A
:100710000EC02B813C8189819A81820F931F4E9656
:10072000FC01108289819A8101969A83898389814B
:100730009A81803491056CF38B819C81FC01148A31
:10074000158A168A178A8B819C81FC01108E118E66
:10075000128E138E8B819C81825A9F4F21E030E054
:10076000FC01318320831A82198233C089819A81E6
:100770002D813E81280F391F89819A819595879512
:10078000959587954B815C81880F991F880F991FDC
:10079000840F951FFC0180819181A281B3814981E1
:1007A0005A814095509543705527440F551F440F6B
:1007B000551F440F551F04C0B695A795979587956B
:1007C0004A95D2F7F901808389819A8101969A83AB
:1007D000898389819A8144974CF280E090E0269643
:1007E0000FB6F894DEBF0FBECDBFDF91CF91089555
:1007F000CF93DF9300D000D000D0CDB7DEB79A837F
:1008000089837C836B835E834D838D819E81892B5D
:1008100019F480E090E0B1C089819A81892B21F0A0
:100820008B819C81892B19F481E090E0A6C089819D
:100830009A81825A9F4FFC0180819181892B61F0BE
:1008400089819A81805A9F4F23E030E0FC013183F7
:10085000208383E090E091C089819A81805A9F4FE4
:10086000FC0180819181892B41F089819A81805A94
:100870009F4FFC018081918180C06AC089819A81EB
:10088000FC01848D958DAC014F5F5F4F29813A81CA
:10089000F901558F448F2B813C81F90140812981D9
:1008A0003A81820F931F4E96FC01408389819A8181
:1008B000FC0184899589A689B7890896A11DB11D77
:1008C00029813A81F901848B958BA68BB78B89811D
:1008D0009A81FC0184899589A689B789892B8A2BFD
:1008E0008B2B29F589819A81FC01808D918DA28DB8
:1008F000B38D0196A11DB11D29813A81F901808F27
:10090000918FA28FB38F89819A81FC01808D918D07
:10091000A28DB38D892B8A2B8B2B49F489819A81E7
:10092000805A9F4F21E030E0FC0131832083898190
:100930009A81FC01848D958D8034910521F4898103
:100940009A810E94C6048B819C8101969C838B8333
:100950008D819E819C01215031093E832D83892BFD
:1009600051F089819A81805A9F4FFC018081918149
:10097000892B09F483CF80E090E026960FB6F89497
:10098000DEBF0FBECDBFDF91CF910895AF92BF9272
:10099000CF92DF92EF92FF920F931F93CF93DF934B
:1009A000CDB7DEB7CC55D1400FB6F894DEBF0FBE41
:1009B000CDBF9E01255A3E4FF901918380831A8253
:1009C0001982EEC089819A81880F991F880F991F1B
:1009D0009E01255A3E4FF90120813181820F931FDC
:1009E0004E96FC018081882F90E0A0E0B0E0B82F07
:1009F000AA279927882729813A81220F331F220F9E
:100A0000331FAE014F5F5F4F240F351F265E3F4FF0
:100A1000F90180839183A283B38389819A81880FAE
:100A2000991F880F991F9E012F5F3F4F820F931FC1
:100A30004A96FC01208131814281538189819A81CA
:100A4000880F991F880F991F0196BE01655A7E4F26
:100A5000FB0160817181860F971F4E96FC0180819A
:100A6000882F90E0A0E0B0E0DC0199278827822B56
:100A7000932BA42BB52B29813A81220F331F220FF0
:100A8000331FAE014F5F5F4F240F351F265E3F4F70
:100A9000F90180839183A283B38389819A81880F2E
:100AA000991F880F991F9E012F5F3F4F820F931F41
:100AB0004A96FC01208131814281538189819A814A
:100AC000880F991F880F991F0296BE01655A7E4FA5
:100AD000FB0160817181860F971F4E96FC0180811A
:100AE000882F90E0A0E0B0E0BA2FA92F982F882798
:100AF000822B932BA42BB52B29813A81220F331FF4
:100B0000220F331FAE014F5F5F4F240F351F265E4C
:100B10003F4FF90180839183A283B38389819A81B6
:100B2000880F991F880F991F9E012F5F3F4F820FDB
:100B3000931F4A96FC012081318142815381898132
:100B40009A81880F991F880F991F0396BE01655AD5
:100B50007E4FFB0160817181860F971F4E96FC01CD
:100B60008081882F90E0A0E0B0E0822B932BA42B13
:100B7000B52B29813A81220F331F220F331FAE017B
:100B80004F5F5F4F240F351F265E3F4FF901808373
:100B90009183A283B38389819A8101969A83898301
:100BA00089819A8140970CF40DCF80E190E09A837F
:100BB000898370C089819A810397880F991F880F54
:100BC000991F9E012F5F3F4F820F931F4A96FC0192
:100BD000208131814281538189819A810897880FD0
:100BE000991F880F991FBE016F5F7F4F860F971F58
:100BF0004A96FC0180819181A281B38128273927FF
:100C00004A275B2789819A810E97880F991F880F41
:100C1000991FBE016F5F7F4F860F971F4A96FC0199
:100C200080819181A281B381282739274A275B27B8
:100C300089819A814097880F991F880F991FBE015B
:100C40006F5F7F4F860F971F4A96FC0180819181CD
:100C5000A281B38182279327A427B527880F991FE4
:100C6000AA1FBB1F811D29813A81220F331F220F2A
:100C7000331FAE014F5F5F4F240F351F265E3F4F7E
:100C8000F90180839183A283B38389819A8101963C
:100C90009A83898389819A81803591050CF48ACF62
:100CA000CE01855A9E4FFC0180819181FC0180819B
:100CB0009181A281B3818B839C83AD83BE83CE015E
:100CC000855A9E4FFC0180819181FC018481958130
:100CD000A681B7818F839887A987BA87CE01855A65
:100CE0009E4FFC0180819181FC0180859185A285C8
:100CF000B3858B879C87AD87BE87CE01855A9E4F73
:100D0000FC0180819181FC0184859585A685B7854C
:100D10008F87988BA98BBA8BCE01855A9E4FFC0189
:100D200080819181FC0180899189A289B3898B8B13
:100D30009C8BAD8BBE8B1A821982BAC08B819C8131
:100D4000AD81BE819C01AD01280F391F4A1F5B1F79
:100D5000220F331F441F551F220F331F441F551FDF
:100D6000220F331F441F551F220F331F441F551FCF
:100D7000072E7BE1B695A795979587957A95D1F73C
:100D8000702D822B932BA42BB52BEF80F884098533
:100D90001A852B853C854D855E85E222F32204234E
:100DA00015232F81388549855A8559016A01A094F8
:100DB000B094C094D0942F85388949895A892A21C2
:100DC0003B214C215D212E293F29402B512B280FFF
:100DD000391F4A1F5B1F8B899C89AD89BE89280FEB
:100DE000391F4A1F5B1F89819A81880F991F880FBD
:100DF000991FBE016F5F7F4F860F971F4A96FC01B8
:100E000080819181A281B381820F931FA41FB51F9E
:100E100029E939E742E85AE5820F931FA41FB51F5D
:100E20008F8B988FA98FBA8F8F859889A989BA8956
:100E30008B8B9C8BAD8BBE8B8B859C85AD85BE854E
:100E40008F87988BA98BBA8B8F819885A985BA8556
:100E50009C01AD0156954795379527955695479531
:100E600037952795072E7EE1880F991FAA1FBB1F74
:100E70007A95D1F7702D822B932BA42BB52B8B87D2
:100E80009C87AD87BE878B819C81AD81BE818F831E
:100E90009887A987BA878F89988DA98DBA8D8B83FA
:100EA0009C83AD83BE8389819A8101969A838983CD
:100EB00089819A8144970CF441CF84E190E09A8330
:100EC0008983ACC08B819C81AD81BE819C01AD01C9
:100ED000280F391F4A1F5B1F220F331F441F551F46
:100EE000220F331F441F551F220F331F441F551F4E
:100EF000220F331F441F551F072E7BE1B695A79580
:100F0000979587957A95D1F7702D822B932BA42BEB
:100F1000B52BEF80F88409851A852B853C854D8596
:100F20005E85E226F326042715272F85388949890F
:100F30005A892E253F2540275127280F391F4A1F40
:100F40005B1F8B899C89AD89BE89280F391F4A1F79
:100F50005B1F89819A81880F991F880F991FBE0195
:100F60006F5F7F4F860F971F4A96FC0180819181AA
:100F7000A281B381820F931FA41FB51F21EA3BEE0C
:100F800049ED5EE6820F931FA41FB51F8F8B988FCC
:100F9000A98FBA8F8F859889A989BA898B8B9C8BE9
:100FA000AD8BBE8B8B859C85AD85BE858F87988BE1
:100FB000A98BBA8B8F819885A985BA859C01AD01D3
:100FC0005695479537952795569547953795279583
:100FD000072E7EE1880F991FAA1FBB1F7A95D1F7B4
:100FE000702D822B932BA42BB52B8B879C87AD87E1
:100FF000BE878B819C81AD81BE818F839887A987B5
:10100000BA878F89988DA98DBA8D8B839C83AD8388
:10101000BE8389819A8101969A83898389819A8185
:1010200088970CF44FCF88E290E09A838983BCC004
:101030008B819C81AD81BE819C01AD01280F391F40
:101040004A1F5B1F220F331F441F551F220F331FE0
:10105000441F551F220F331F441F551F220F331FDC
:10106000441F551F072E7BE1B695A7959795879549
:101070007A95D1F7702D822B932BA42BB52BEB8473
:10108000FC840D851E852F85388949895A89E22A75
:10109000F32A042B152B2F81388549855A85E222A6
:1010A000F32204231523AB84BC84CD84DE842F85F6
:1010B000388949895A892A213B214C215D212E29D1
:1010C0003F29402B512B280F391F4A1F5B1F8B894B
:1010D0009C89AD89BE89280F391F4A1F5B1F8981F2
:1010E0009A81880F991F880F991FBE016F5F7F4FEC
:1010F000860F971F4A96FC0180819181A281B3815E
:10110000820F931FA41FB51F2CED3CEB4BE15FE852
:10111000820F931FA41FB51F8F8B988FA98FBA8F33
:101120008F859889A989BA898B8B9C8BAD8BBE8B57
:101130008B859C85AD85BE858F87988BA98BBA8B57
:101140008F819885A985BA859C01AD0156954795F3
:10115000379527955695479537952795072E7EE124
:10116000880F991FAA1FBB1F7A95D1F7702D822B6C
:10117000932BA42BB52B8B879C87AD87BE878B8148
:101180009C81AD81BE818F839887A987BA878F891B
:10119000988DA98DBA8D8B839C83AD83BE83898105
:1011A0009A8101969A83898389819A81CC970CF4DC
:1011B0003FCF8CE390E09A838983ACC08B819C8184
:1011C000AD81BE819C01AD01280F391F4A1F5B1FF5
:1011D000220F331F441F551F220F331F441F551F5B
:1011E000220F331F441F551F220F331F441F551F4B
:1011F000072E7BE1B695A795979587957A95D1F7B8
:10120000702D822B932BA42BB52BEF80F8840985AE
:101210001A852B853C854D855E85E226F3260427BD
:1012200015272F85388949895A892E253F2540273A
:101230005127280F391F4A1F5B1F8B899C89AD8955
:10124000BE89280F391F4A1F5B1F89819A81880F29
:10125000991F880F991FBE016F5F7F4F860F971FE1
:101260004A96FC0180819181A281B381820F931FF4
:10127000A41FB51F26ED31EC42E65AEC820F931FF6
:10128000A41FB51F8F8B988FA98FBA8F8F859889D0
:10129000A989BA898B8B9C8BAD8BBE8B8B859C85EA
:1012A000AD85BE858F87988BA98BBA8B8F819885EA
:1012B000A985BA859C01AD01569547953795279527
:1012C0005695479537952795072E7EE1880F991FEC
:1012D000AA1FBB1F7A95D1F7702D822B932BA42BBD
:1012E000B52B8B879C87AD87BE878B819C81AD8119
:1012F000BE818F839887A987BA878F89988DA98D9A
:10130000BA8D8B839C83AD83BE8389819A8101963C
:101310009A83898389819A81803591050CF44ECF17
:10132000CE01855A9E4FFC0180819181FC01208174
:101330003181428153818B819C81AD81BE81820F3D
:10134000931FA41FB51F9E01255A3E4FF90120810E
:101350003181F90180839183A283B383CE01855AC1
:101360009E4FFC0180819181FC0124813581468161
:1013700057818F819885A985BA85820F931FA41FF5
:10138000B51F9E01255A3E4FF90120813181F90197
:1013900084839583A683B783CE01855A9E4FFC0133
:1013A00080819181FC0120853185428553858B8523
:1013B0009C85AD85BE85820F931FA41FB51F9E011E
:1013C000255A3E4FF90120813181F90180879187AB
:1013D000A287B387CE01855A9E4FFC0180819181FF
:1013E000FC0124853585468557858F859889A9898F
:1013F000BA89820F931FA41FB51F9E01255A3E4F25
:10140000F90120813181F90184879587A687B78703
:10141000CE01855A9E4FFC0180819181FC0120897B
:101420003189428953898B899C89AD89BE89820F14
:10143000931FA41FB51F9E01255A3E4FF90120811D
:101440003181F901808B918BA28BB38BCE01855AB0
:101450009E4FFC0180819181FC01158E148EC45A2F
:10146000DE4F0FB6F894DEBF0FBECDBFDF91CF9138
:101470001F910F91FF90EF90DF90CF90BF90AF90B2
:101480000895CF93DF9300D0CDB7DEB79A838983D9
:1014900089819A81FC01848D958DC8970CF453C085
:1014A00089819A81FC01848D958DAC014F5F5F4FDE
:1014B00029813A81F901558F448F29813A81820F20
:1014C000931F4E9620E8FC01208314C089819A81E5
:1014D000FC01848D958DAC014F5F5F4F29813A816E
:1014E000F901558F448F29813A81820F931F4E96BF
:1014F000FC01108289819A81FC01848D958D803454
:10150000910524F389819A810E94C60414C08981BF
:101510009A81FC01848D958DAC014F5F5F4F2981CD
:101520003A81F901558F448F29813A81820F931FA7
:101530004E96FC01108289819A81FC01848D958DE3
:10154000C8972CF331C089819A81FC01848D958DD7
:10155000AC014F5F5F4F29813A81F901558F448F6C
:1015600029813A81820F931F4E9620E8FC01208347
:1015700014C089819A81FC01848D958DAC014F5FE7
:101580005F4F29813A81F901558F448F29813A8132
:10159000820F931F4E96FC01108289819A81FC0173
:1015A000848D958DC8972CF389819A81FC01808D5B
:1015B000918DA28DB38D8B2F9927AA27BB27282F1A
:1015C00089819A818A5A9F4FFC01208389819A815F
:1015D000FC01808D918DA28DB38DCD01AA27BB27F3
:1015E000282F89819A81895A9F4FFC012083898104
:1015F0009A81FC01808D918DA28DB38D892F9A2FB8
:10160000AB2FBB27282F89819A81885A9F4FFC01D5
:10161000208389819A81FC01808D918DA28DB38D6B
:10162000282F89819A81875A9F4FFC0120838981C5
:101630009A81FC0184899589A689B7898B2F99277E
:10164000AA27BB27282F89819A81865A9F4FFC01A0
:10165000208389819A81FC0184899589A689B7892B
:10166000CD01AA27BB27282F89819A81855A9F4FB0
:10167000FC01208389819A81FC0184899589A6894E
:10168000B789892F9A2FAB2FBB27282F89819A8161
:10169000845A9F4FFC01208389819A81FC018489AF
:1016A0009589A689B789282F89819A81835A9F4F66
:1016B000FC01208389819A810E94C6040F900F90BB
:1016C000DF91CF910895CF93DF93CDB7DEB74CE88C
:1016D00050E060E070E086E292E00E94980F809116
:1016E0006C0190916D0144E650E060E070E00E9472
:1016F000980F44E650E060E070E086EC92E00E94D3
:10170000980F44E150E060E070E08AE293E00E94CC
:10171000980F44E150E060E070E082EB92E00E94BC
:10172000980FDF91CF910895CF93DF93CDB7DEB7B8
:101730002B970FB6F894DEBF0FBECDBF9B878A876D
:10174000198289C08981882F90E0880F991F855E52
:101750009D4F9B838A838A819B81FC0125913491D3
:10176000CF013D832C839B838A838C819D81BC0127
:1017700086E292E00E947B0F8A859B85BC0186E20F
:1017800092E00E949F0F892B09F062C08B858F9396
:101790008A858F938EE691E0892F8F938EE691E074
:1017A0008F930E946C010F900F900F900F90898182
:1017B000853001F585E791E0892F8F9385E791E0EA
:1017C0008F9383E991E0892F8F9383E991E08F9341
:1017D0000E946C010F900F900F900F9086E991E09E
:1017E000892F8F9386E991E08F930E946C010F906F
:1017F0000F902EC08981882F90E0880F991F895CF7
:101800009D4F9F838E838E819F81FC012591349112
:10181000CF01398728879F838E8388859985BC016E
:1018200086E292E00E947B0F86E292E0892F8F93FE
:1018300086E292E08F938BE991E0892F8F938BE979
:1018400091E08F930E946C010F900F900F900F907A
:1018500089818F5F89838981873008F473CF2B96C4
:101860000FB6F894DEBF0FBECDBFDF91CF910895C4
:10187000CF93DF93CDB7DEB72E970FB6F894DEBFC8
:101880000FBECDBF8FEF8A83CE0105969C838B83DD
:1018900019824EC08981882F90E08A539D4FFC01A8
:1018A0008081882391F48A81882371F08B819C81C7
:1018B000FC011082CE0105960E94940BCE01059684
:1018C0009C838B831A8231C030C08981882F90E03D
:1018D0008A539D4FFC0180818A3379F48B819C81EE
:1018E000FC011082CE0105960E94940BCE01059654
:1018F0009C838B838AE38A8318C08981882F90E038
:101900008A539D4FFC0180818A838981882F90E0D2
:101910008A539D4FFC0120818B819C81FC01208397
:101920008B819C8101969C838B8389818F5F8983C6
:101930008981843608F4AECF2E960FB6F894DEBFB8
:101940000FBECDBFDF91CF910895AF92BF92CF92DE
:10195000DF92EF92FF920F931F93CF93DF93CDB758
:10196000DEB72B970FB6F894DEBF0FBECDBF8091C8
:101970004E02833211F080E062C0198249C0898131
:10198000882F90E08A5D9D4FFC01808191819B872B
:101990008A87CE010A9640E150E060E070E00E9444
:1019A000600EDC01CB019C01AD0160E070E0CB0179
:1019B0002A833B834C835D836E837F8388879987EB
:1019C000AA80BB80CC80DD80EE80FF8008851985F1
:1019D0002A2D3B2D4C2D5D2D6E2D7F2D802F912F8F
:1019E0002F3F3105410551056105710581059105BF
:1019F00019F010F080E023C089818695882F90E04F
:101A00002A81865D9C4FFC01208389818E5F8983BA
:101A10008981883208F4B3CF80916C0190916D0177
:101A200043E650E06FE472E00E948F0F43E650E01F
:101A30006FE472E086EC92E00E948F0F81E02B96BB
:101A40000FB6F894DEBF0FBECDBFDF91CF911F91CF
:101A50000F91FF90EF90DF90CF90BF90AF900895DF
:101A6000CF93DF931F92CDB7DEB785E492E0292FA5
:101A70002F938F9382EA91E0892F8F9382EA91E0EE
:101A80008F930E946C010F900F900F900F906CE855
:101A900086E292E00E9489018952898385EA91E079
:101AA000892F8F9385EA91E08F930E946C010F90AC
:101AB0000F900E94A50C813099F088E592E0292FC3
:101AC0002F938F9382EA91E0892F8F9382EA91E09E
:101AD0008F930E946C010F900F900F900F9018C081
:101AE0008981882F90E00896AC0160E071E082EB7C
:101AF00092E00E94940244E150E062EB72E08AE2DC
:101B000093E00E94820F892B09F002C00E94380CDA
:101B10000F90DF91CF910895CF93DF93CDB7DEB7CC
:101B200029970FB6F894DEBF0FBECDBF0E949D016E
:101B30000E94630B8BE692E0292F2F938F9382EA0A
:101B400091E0892F8F9382EA91E08F930E946C013C
:101B50000F900F900F900F908EE692E0292F2F9309
:101B60008F9382EA91E0892F8F9382EA91E08F939D
:101B70000E946C010F900F900F900F9081E792E000
:101B8000292F2F938F9382EA91E0892F8F9382EAF6
:101B900091E08F930E946C010F900F900F900F9027
:101BA00083E892E0292F2F938F9382EA91E0892F87
:101BB0008F9382EA91E08F930E946C010F900F90B7
:101BC0000F900F9086E992E0292F2F938F9382EA4E
:101BD00091E0892F8F9382EA91E08F930E946C01AC
:101BE0000F900F900F900F90198261C08981882FFC
:101BF00090E0880F991F875D9D4F9B838A838A8120
:101C00009B81FC0125913491CF013D832C839B83E3
:101C10008A838C819D81BC0186E292E00E947B0FC9
:101C200086E292E0892F8F9386E292E08F9383E998
:101C300091E0892F8F9383E991E08F930E946C014B
:101C40000F900F900F900F908981882F90E0880F50
:101C5000991F855E9D4F9F838E838E819F81FC019E
:101C600025913491CF01398728879F838E8388857A
:101C70009985BC0186E292E00E947B0F86E292E0A9
:101C8000892F8F9386E292E08F9388EA91E0892FE3
:101C90008F9388EA91E08F930E946C010F900F90D0
:101CA0000F900F900E94630B89818F5F89838981D8
:101CB000873008F49BCF0E94300D0E94630BFBCF4E
:101CC000A6E0B0E0E6E6FEE00C9492125C016B0147
:101CD0007A016115710519F0DB018D939C93E11474
:101CE000F10429F0C7010297839708F0DCC03501A1
:101CF000BFEF6B1A7B0AF5011081812F90E00E94E3
:101D0000720F892B11F05301F2CF1D3249F43501C6
:101D1000F2E06F0E711CD50111961C9101E009C013
:101D20001B3231F43501B2E06B0E711CF5011181EB
:101D300000E0E114F10409F4C4C0F0E1EF16F1048D
:101D400089F4103399F5D3018C918F7D883509F092
:101D5000B2C011961C91B2E06B0E711C026050E192
:101D6000E52EF12CEAE0EE16F10409F4B0C0F0E142
:101D7000EF16F104D9F028E0E216F10451F438E04E
:101D8000E32EF12C88248A94982CA82C4FE1B42EB1
:101D900013C06FEF7FEFCB0197010F2C000C440BAA
:101DA000550B0E94651249015A0106C088248A9485
:101DB000982CA82C2FE0B22E7E826D8260E020E06D
:101DC00030E0A90127010F2C000C660877082D8050
:101DD0003E80E0EDE10FEA3060F08FEB810F8A3159
:101DE00010F4E9EC05C08FE9810F8A3190F5E9EA3A
:101DF000E10F8E2F90E08E159F055CF56F3F09F186
:101E000082169306A406B506D8F0C301B2010E945B
:101E100055122E2F30E040E050E029833A834B8367
:101E20005C83260F371F481F591F89819A81AB8118
:101E3000BC81281739074A075B0710F061E001C031
:101E40006FEFED81FE813196FE83ED83D1011C9110
:101E5000BECFC114D10489F0662339F08D819E81F3
:101E60000197F6019183808308C001FF06C08D8130
:101E70009E810297D6018D939C9300FF07C05095D9
:101E80004095309521953F4F4F4F5F4F67FF10C0F2
:101E900082E290E090933F0380933E036FEF7FEFE9
:101EA0008FEF9FEF1BC060E070E080E090E016C015
:101EB000B901CA0113C010E3E114F10409F45FCFC2
:101EC00051CF103309F43FCF9AE0E92EF12C89E984
:101ED000882E982CA82C89E1B82E6ECF2696E2E1A8
:101EE0000C94AE1291110C94A611803219F0895005
:101EF0008550C8F70895FB01DC0105900D92002084
:101F0000E1F70895FB01DC0104C08D910190801977
:101F100021F441505040C8F7881B990B0895FB01EC
:101F2000DC0102C001900D9241505040D8F7089555
:101F3000DC0101C06D9341505040E0F70895FB0172
:101F4000DC018D91019080190110D9F3990B08954E
:101F5000AEE0B0E0EEEAFFE00C94A0128C01CA0102
:101F600046E04C831A83098377FF02C060E070E883
:101F7000FB013197FE83ED83A901BC01CE010196DF
:101F80000E94D40F4D815E8157FD0AC02F81388594
:101F9000421753070CF49A01F801E20FF31F108265
:101FA0002E96E4E00C94BC12ACE0B0E0EAEDFFE069
:101FB0000C9492127C016B018A01FC01178216823B
:101FC000838181FFBDC1CE0101964C01F701938150
:101FD000F60193FD859193FF81916F01882309F4A8
:101FE000ABC1853239F493FD859193FF81916F01E7
:101FF000853229F4B70190E00E94BF11E7CF512C40
:10200000312C20E02032A0F48B3269F030F48032A1
:1020100059F0833269F420612CC08D3239F080335D
:1020200039F4216026C02260246023C0286021C0CA
:1020300027FD27C030ED380F3A3078F426FF06C070
:10204000FAE05F9E300D1124532E13C08AE0389EB3
:10205000300D1124332E20620CC08E3221F426FD67
:102060006BC1206406C08C3611F4206802C088362B
:1020700041F4F60193FD859193FF81916F018111E8
:10208000C1CF982F9F7D9554933028F40C5F1F4F3C
:10209000FFE3F9830DC0833631F0833771F0833568
:1020A00009F05BC022C0F801808189830E5F1F4F59
:1020B00044244394512C540115C03801F2E06F0EB2
:1020C000711CF801A080B18026FF03C0652D70E06F
:1020D00002C06FEF7FEFC5012C870E94B4112C0165
:1020E00083012C852F77222E17C03801F2E06F0E66
:1020F000711CF801A080B18026FF03C0652D70E03F
:1021000002C06FEF7FEFC5012C870E94A9112C013F
:102110002C852068222E830123FC1BC0832D90E098
:1021200048165906B0F4B70180E290E00E94BF1152
:102130003A94F4CFF50127FC859127FE81915F0148
:10214000B70190E00E94BF1131103A94F1E04F1AAC
:1021500051084114510471F7E5C0843611F08936F5
:1021600039F5F80127FF07C0608171818281938171
:102170000C5F1F4F08C060817181072E000C880B17
:10218000990B0E5F1F4F2F76722E97FF09C0909507
:102190008095709561957F4F8F4F9F4F2068722E6D
:1021A0002AE030E0A4010E94F711A82EA81844C02C
:1021B000853729F42F7EB22E2AE030E025C0F22F99
:1021C000F97FBF2E8F36C1F018F4883579F0B4C08E
:1021D000803719F0883721F0AFC02F2F2061B22E41
:1021E000B4FE0DC08B2D8460B82E09C024FF0AC038
:1021F0009F2F9660B92E06C028E030E005C020E190
:1022000030E002C020E132E0F801B7FE07C0608193
:102210007181828193810C5F1F4F06C06081718143
:1022200080E090E00E5F1F4FA4010E94F711A82EDE
:10223000A818FB2DFF777F2E76FE0BC0372D3E7F33
:10224000A51450F474FE0AC072FC08C0372D3E7EFF
:1022500005C0BA2C372D03C0BA2C01C0B52C34FFF1
:102260000DC0FE01EA0DF11D8081803311F4397E2D
:1022700009C032FF06C0B394B39404C0832F86789C
:1022800009F0B39433FD13C030FF06C05A2CB314C9
:1022900018F4530C5B18B32CB31468F4B70180E244
:1022A00090E03C870E94BF11B3943C85F5CFB314F6
:1022B00010F43B1801C0312C34FF12C0B70180E389
:1022C00090E03C870E94BF113C8532FF17C031FD72
:1022D00003C088E790E002C088E590E0B7010CC039
:1022E000832F867859F031FF02C08BE201C080E273
:1022F00037FD8DE2B70190E00E94BF11A51438F4BC
:10230000B70180E390E00E94BF115A94F7CFAA94DE
:10231000F401EA0DF11D8081B70190E00E94BF1128
:10232000A110F5CF332009F451CEB70180E290E03F
:102330000E94BF113A94F6CFF7018681978102C0BF
:102340008FEF9FEF2C96E2E10C94AE12992788272D
:102350000895FC010590615070400110D8F78095F8
:1023600090958E0F9F1F0895FC0161507040019061
:102370000110D8F7809590958E0F9F1F08950F93A9
:102380001F93CF93DF93FB01238121FD03C08FEFC8
:102390009FEF28C022FF16C04681578124813581D6
:1023A0004217530744F4A081B1819D012F5F3F4F35
:1023B000318320838C93268137812F5F3F4F378372
:1023C000268310C0EB01092F182F0084F185E02D22
:1023D0000995892BE1F68E819F8101969F838E83DB
:1023E000812F902FDF91CF911F910F910895FA01C6
:1023F000AA27283051F1203181F1E8946F936E7F44
:102400006E5F7F4F8F4F9F4FAF4FB1E03ED0B4E034
:102410003CD0670F781F891F9A1FA11D680F791F75
:102420008A1F911DA11D6A0F711D811D911DA11D86
:1024300020D009F468943F912AE0269F1124301996
:10244000305D3193DEF6CF010895462F4770405D31
:102450004193B3E00FD0C9F7F6CF462F4F70405DE0
:102460004A3318F0495D31FD4052419302D0A9F73B
:10247000EACFB4E0A6959795879577956795BA9535
:10248000C9F700976105710508959B01AC010A2EFB
:1024900006945795479537952795BA95C9F7620FD2
:1024A000731F841F951FA01D0895DB018F939F93B9
:1024B0000E948712BF91AF91A29F800D911DA39F93
:1024C000900DB29F900D11240895A1E21A2EAA1B1F
:1024D000BB1BFD010DC0AA1FBB1FEE1FFF1FA217D4
:1024E000B307E407F50720F0A21BB30BE40BF50BD1
:1024F000661F771F881F991F1A9469F7609570955A
:10250000809590959B01AC01BD01CF0108950E947B
:10251000C912A59F900DB49F900DA49F800D911D91
:10252000112408952F923F924F925F926F927F9263
:102530008F929F92AF92BF92CF92DF92EF92FF92D3
:102540000F931F93CF93DF93CDB7DEB7CA1BDB0B7F
:102550000FB6F894DEBF0FBECDBF09942A88398824
:1025600048885F846E847D848C849B84AA84B9842B
:10257000C884DF80EE80FD800C811B81AA81B98137
:10258000CE0FD11D0FB6F894DEBF0FBECDBFED014B
:102590000895A29FB001B39FC001A39F700D811D3C
:1025A0001124911DB29F700D811D1124911D08955C
:0425B000F894FFCFCD
:1025B40052344D333221304000000000000000004E
:1025C4000000000000000000000000000000000007
:1025D40000000000000000000000000000000000F7
:1025E40000000000000000000000000000000000E7
:1025F40000000000000000000000000000000000D7
:1026040000000000000000000000000000000000C6
:102614000000000000000000000000000801202568
:10262400733A0D0A00464C41473A496E6E30766162
:1026340074316F6E5F77336E745F7772306E6720BC
:102644003A28002573000D0A0D0A0025730D0A0DA2
:0E2654000A002553000D0A002025730D0A0010
:00000001FF
