:100000000C943B000C9458000C9458000C9458002D
:100010000C9458000C9458000C9458000C94580000
:100020000C9458000C9458000C9458000C945800F0
:100030000C9458000C9458000C9458000C945800E0
:100040000C9458000C9458000C9458000C945800D0
:100050000C9458000C9458000C9458000C945800C0
:100060000C9458000C94580008031D032D033F0303
:10007000540369037E0311241FBECFEFD8E0DEBF17
:10008000CDBF16E0A0E0B1E0E6E4F6E102C00590E5
:100090000D92A23BB107D9F728E0A2EBB6E001C070
:1000A0001D92A032B207E1F70E940B060C94210BBF
:1000B0000C940000CF93DF9300D0CDB7DEB783E37D
:1000C00090E09A83898385EC90E029813A81232FFF
:1000D0003327FC01208384EC90E02981FC012083FC
:1000E00081EC90E028E1FC01208382EC90E026E0A6
:1000F000FC0120830F900F90DF91CF910895CF9353
:10010000DF931F92CDB7DEB78983000080EC90E0CB
:10011000FC018081882F90E080729927892BB1F3B0
:1001200086EC90E02981FC0120830F90DF91CF9134
:100130000895CF93DF9300D0CDB7DEB79A8389833C
:100140000BC089819A819C012F5F3F4F3A8329839D
:10015000FC0180810E947F0089819A81FC0180815D
:10016000882379F70F900F90DF91CF910895CF9367
:10017000DF93CDB7DEB780EC90E0FC01808188236F
:1001800014F481E001C080E0DF91CF910895CF9316
:10019000DF93CDB7DEB700000E94B7008823E1F3FC
:1001A00086EC90E0FC018081DF91CF910895CF93A0
:1001B000DF9300D0CDB7DEB7CE0109969A8389834D
:1001C00029813A818F819885AC0168E770E08CE1E4
:1001D00097E00E94B4078CE197E09C01F90101903F
:1001E0000020E9F7CF010197821B930B9C01245E4D
:1001F000384F8DE09AE0A0E0F90180839183A283DB
:100200008CE197E00E9499000F900F90DF91CF91C1
:100210000895CF93DF9300D000D000D0CDB7DEB7E4
:100220009D838C836E8319821A8214C00E94C7003A
:100230008B838B818D3019F08B818A3019F481E0AA
:100240008A8308C08C819D812E8149816B810E94A7
:100250003F0189838A81882349F38981882F90E02F
:100260002C813D81820F931FFC01108226960FB6D0
:10027000F894DEBF0FBECDBFDF91CF910895CF932D
:10028000DF9300D000D01F92CDB7DEB79A83898369
:100290006B834C832D838C81282F30E08D81882FB8
:1002A00090E00197281739076CF48C8191E0980F42
:1002B0009C83882F90E029813A81820F931F2B81A4
:1002C000FC0120838C810F900F900F900F900F9066
:1002D000DF91CF910895CF93DF93CDB7DEB7289705
:1002E0000FB6F894DEBF0FBECDBF9E838D83788797
:1002F0006F838F8198850E9458079A8389832F8105
:1003000038858D819E81B9010E946F079C838B8304
:100310008B819C81892B09F40AC029813A818B81C8
:100320009C81A90160E270E00E945107E8CF289605
:100330000FB6F894DEBF0FBECDBFDF91CF91089509
:10034000CF93DF9300D0CDB7DEB79A8389838981BD
:100350009A8164E071E00E946B0189819A8167E073
:1003600071E00E946B0189819A8169E071E00E94CD
:100370006B0189819A816BE071E00E946B01898138
:100380009A816DE071E00E946B0189819A816FE032
:1003900071E00E946B0189819A8161E171E00E94A4
:1003A0006B0189819A8163E171E00E946B0189810F
:1003B0009A8165E171E00E946B010F900F90DF91CF
:1003C000CF910895CF93DF9300D000D0CDB7DEB7A3
:1003D0000E94230724E630E0B9010E94A9069A830F
:1003E000898389819A81C297F9F48AE391E0892F00
:1003F0008F938AE391E08F930E94D7000F900F9024
:1004000088E591E0892F8F9388E591E08F930E9492
:10041000D7000F900F908091B6069091B706019685
:100420009093B7068093B6068091B2069091B3067A
:10043000292F2F938F9384E991E0892F8F9384E95B
:1004400091E08F930E94D7000F900F900F900F9024
:100450008091B6069091B706292F2F938F938AEA41
:1004600091E0892F8F938AEA91E08F930E94D700C1
:100470000F900F900F900F9087EC91E0892F8F9342
:1004800087EC91E08F930E94D7000F900F9080ED42
:1004900091E0892F8F9380ED91E08F930E94D70098
:1004A0000F900F908AED91E0892F8F938AED91E064
:1004B0008F930E94D7000F900F9088EF91E0892FC3
:1004C0008F9388EF91E08F930E94D7000F900F9049
:1004D00084E192E0892F8F9384E192E08F930E94D0
:1004E000D7000F900F900F900F900F900F90DF910B
:1004F000CF910895CF93DF93CDB7DEB7C456D1091E
:100500000FB6F894DEBF0FBECDBF64E6CE010196F4
:100510000E940901CE0101960E94A001CE01019620
:100520009F938F9380ED97E0892F8F9380ED97E0D5
:100530008F930E9491070F900F900F900F9080ED76
:1005400097E0892F8F9380ED97E08F9380E292E080
:10055000892F8F9380E292E08F930E94D7000F90B3
:100560000F900F900F9083E292E0892F8F9383E298
:1005700092E08F930E94D7000F900F90CC59DF4FDD
:100580000FB6F894DEBF0FBECDBFDF91CF910895B7
:10059000CF93DF9300D000D0CDB7DEB782E492E0F6
:1005A000892F8F9382E492E08F930E94D7000F905F
:1005B0000F9082E792E0892F8F9382E792E08F93EA
:1005C0000E94D7000F900F9000000E94C7008D304E
:1005D000E1F70E94230727E030E0B9010E94A90655
:1005E00001969A83898389819A81092E000CAA0B2E
:1005F000BB0B41E050E026E030E0841B950B281750
:10060000390708F490C08C5C9F4FFC010C94BD0628
:1006100082E992E0892F8F9382E992E08F930E9482
:10062000D7000F900F908091B2069091B306059677
:100630009093B3068093B20677C084EA92E0892F44
:100640008F9384EA92E08F930E94D7000F900F90CF
:100650001092B3061092B20667C089EB92E0892F20
:100660008F9389EB92E08F930E94D7000F900F90A9
:1006700081E090E09093B5068093B40655C089ED73
:1006800092E0892F8F9389ED92E08F930E94D7009B
:100690000F900F908091B2069091B3060A969093B6
:1006A000B3068093B20640C08CEE92E0892F8F9300
:1006B0008CEE92E08F930E94D7000F900F90809164
:1006C000B2069091B3060A979093B3068093B20650
:1006D0002BC080E093E0892F8F9380E093E08F938D
:1006E0000E94D7000F900F908091B6069091B706A8
:1006F00001969093B7068093B60616C081E193E009
:10070000892F8F9381E193E08F930E94D7000F9000
:100710000F908091B2069091B30605979093B3061F
:100720008093B20601C000000F900F900F900F90C1
:10073000DF91CF910895CF93DF9300D0CDB7DEB78F
:1007400084E293E0892F8F9384E293E08F930E9459
:10075000D7000F900F9063E088EB96E00E940901AC
:100760000E9423078F719078992324F40197806E5B
:100770009F6F019601969A8389838A818F938981DD
:100780008F9380E493E0892F8F9380E493E08F939D
:100790000E94D7000F900F900F900F9088EB96E07B
:1007A0000E9433079C0189819A812817390749F5EE
:1007B0008091B2069091B30601969093B306809310
:1007C000B2068091B6069091B70601969093B7064F
:1007D0008093B6068FE593E0892F8F938FE593E0A2
:1007E0008F930E94D7000F900F9088E693E0892F97
:1007F0008F9388E693E08F930E94D7000F900F901D
:1008000014C08091B2069091B30601979093B306FD
:100810008093B2068EE793E0892F8F938EE793E063
:100820008F930E94D7000F900F900F900F90DF9141
:10083000CF910895CF93DF93CDB7DEB787E893E0EC
:10084000892F8F9387E893E08F930E94D7000F90B2
:100850000F9085EA93E0892F8F9385EA93E08F9339
:100860000E94D7000F900F9082EB93E0892F8F9317
:1008700082EB93E08F930E94D7000F900F906CE073
:1008800088EB96E00E94090188EB96E0FC0120814C
:1008900085EC93E0FC018081281751F088EB96E00D
:1008A000FC01208187EC93E0FC018081281719F47A
:1008B0000E949B0323C088EB96E0FC01208189EC19
:1008C00093E0FC018081281751F088EB96E0FC0151
:1008D00020818BEC93E0FC018081281719F40E94A1
:1008E000C8020CC08DEC93E0892F8F938DEC93E0C0
:1008F0008F930E94D7000F900F900000DF91CF914F
:100900000895CF93DF93CDB7DEB78FEF9FEF90932E
:10091000B3068093B20685EE93E0892F8F9385EE20
:1009200093E08F930E94D7000F900F90DF91CF91AB
:100930000895CF93DF93CDB7DEB78091B60690913F
:10094000B706892B59F18091B6069091B706292FE9
:100950002F938F938AE094E0892F8F938AE094E01D
:100960008F930E94D7000F900F900F900F9083E20B
:1009700094E0892F8F9383E294E08F930E94D700B5
:100980000F900F900E947A028091B6069091B70660
:1009900001979093B7068093B6065DC083E294E01A
:1009A000892F8F9383E294E08F930E94D7000F905A
:1009B0000F9081E494E0892F8F9381E494E08F93EA
:1009C0000E94D7000F900F9084E594E0892F8F93B9
:1009D00084E594E08F930E94D7000F900F908DE5EF
:1009E00094E0892F8F938DE594E08F930E94D70038
:1009F0000F900F9063E088EB96E00E94090188EB6E
:100A000096E00E943307019761F486E694E0892F0F
:100A10008F9386E694E08F930E94D7000F900F90FB
:100A200011C088EB96E00E943307029759F48EE7D5
:100A300094E0892F8F938EE794E08F930E94D700E4
:100A40000F900F908091B2069091B306019790930A
:100A5000B3068093B2061092B5061092B40689E9E7
:100A600094E0892F8F9389E994E08F930E94D700B7
:100A70000F900F90DF91CF910895CF93DF93CDB773
:100A8000DEB789EB94E0892F8F9389EB94E08F9305
:100A90000E94D7000F900F908091B2069091B306FC
:100AA000C2969093B3068093B206DF91CF910895DA
:100AB000CF93DF9300D000D0CDB7DEB70E94E20124
:100AC00063E088EB96E00E9409018091B806082E49
:100AD000000C990B8333910509F45EC084339105B2
:100AE0003CF48133910561F0C29709F452C08BC088
:100AF0008433910509F453C0C59709F466C083C0D7
:100B00000E941A040E94230728EE33E0B9010E94D4
:100B1000A9069A8389838091B2069091B3068132A7
:100B20009340B4F18091B2069091B30629813A8145
:100B3000821793076CF18091B4069091B5060197E6
:100B400091F481ED94E0892F8F9381ED94E08F9360
:100B50000E94D7000F900F908FEF9FEF9093B306F6
:100B60008093B20615C08EEF94E0892F8F938EEF9D
:100B700094E08F930E94D7000F900F908091B4065D
:100B80009091B50601969093B5068093B40620C067
:100B90001FC00E9481041CC00E94990419C080914A
:100BA000B2069091B306853F914064F081E495E0F0
:100BB000892F8F9381E495E08F930E94D7000F9047
:100BC0000F9006C00E943D0503C082E090E01CC06B
:100BD0008091B2069091B306883E934034F48091A0
:100BE000B2069091B306992374F48CE595E0892FB1
:100BF0008F938CE595E08F930E94D7000F900F9014
:100C000082E090E001C05ACF0F900F900F900F90AC
:100C1000DF91CF910895CF93DF9300D0CDB7DEB7AA
:100C20000E945A0080E090E00E945E0A0E9428071D
:100C30000E94230780952EEB9227BC0180E090E074
:100C40000E94640A82E090E09A83898376C084E8F7
:100C500095E0892F8F9384E895E08F930E94D700C9
:100C60000F900F908DE995E0892F8F938DE995E096
:100C70008F930E94D7000F900F9084ED95E0892FFD
:100C80008F9384ED95E08F930E94D7000F900F9083
:100C900087E096E0892F8F9387E096E08F930E94FC
:100CA000D7000F900F908CE396E0892F8F938CE301
:100CB00096E08F930E94D7000F900F9082E390E010
:100CC0009093B3068093B2061092B7061092B606C0
:100CD0000E9458059A83898387E796E0892F8F932E
:100CE00087E796E08F930E94D7000F900F9065E002
:100CF00088EB96E00E94090143E050E067EA76E065
:100D000088EB96E00E946107892BB9F043E050E040
:100D10006BEA76E088EB96E00E946107892B69F028
:100D200088EB96E0FC0120818FEA96E0FC0180814F
:100D3000281719F080E090E007C089819A81029716
:100D400009F485CF80E090E00F900F90DF91CF9174
:100D5000089597FB072E16F4009407D077FD09D06D
:100D60000E94C30607FC05D03EF4909581959F4FE5
:100D70000895709561957F4F0895EE0FFF1F0590C0
:100D8000F491E02D0994AA1BBB1B51E107C0AA1FD7
:100D9000BB1FA617B70710F0A61BB70B881F991F1C
:100DA0005A95A9F780959095BC01CD0108958F9231
:100DB0009F92AF92BF92CF92DF92EF92FF92CF932A
:100DC000DF93EC01688179818A819B8161157105CE
:100DD0008105910521F464E279ED8BE597E02DE141
:100DE00033EF41E050E00E94870A49015A019B011C
:100DF000AC01A7EAB1E40E94A60A6B017C01ACEE4B
:100E0000B4EFA50194010E94B40ADC01CB018C0D62
:100E10009D1DAE1DBF1DB7FF03C00197A109B048BE
:100E200088839983AA83BB839F77DF91CF91FF90BB
:100E3000EF90DF90CF90BF90AF909F908F900895EC
:100E40000E94D706089580E091E00E94D706089599
:100E5000A0E0B0E08093000190930101A093020113
:100E6000B09303010895FC0188279927E894219104
:100E70002032E9F3293010F02E30C8F32B3241F044
:100E80002D3239F4689404C00E948907820F911DA5
:100E9000219120532A30C0F31EF4909581959F4FE5
:100EA0000895DC0101C06D9341505040E0F7089572
:100EB000FC0101900020E9F7809590958E0F9F1F0F
:100EC0000895FB01DC014150504030F08D910190BC
:100ED000801919F40020B9F7881B990B0895FB01BC
:100EE00051915523A9F0BF01DC014D9145174111E6
:100EF000E1F759F4CD010190002049F04D914015E2
:100F00004111C9F3FB014111EFCF81E090E001975E
:100F100008957AE0979F902D879F802D910D112441
:100F20000895AEE0B0E0E7E9F7E00C94C70A0D8958
:100F30001E8986E08C831A8309838FEF9FE79E8347
:100F40008D83AE01475E5F4F6F89788DCE0101962C
:100F50000E94E0072F813885F801E20FF31F10820D
:100F60002E96E4E00C94E30AAEE0B0E0EAEBF7E0A2
:100F70000C94C70A8C01CA0146E04C831A8309838A
:100F800077FF02C060E070E8FB013197FE83ED83DC
:100F9000A901BC01CE0101960E94E0074D815E814E
:100FA00057FD0AC02F813885421753070CF49A0168
:100FB000F801E20FF31F10822E96E4E00C94E30A8E
:100FC000ACE0B0E0E6EEF7E00C94B90A7C016B010E
:100FD0008A01FC0117821682838181FFBDC1CE0187
:100FE00001964C01F7019381F60193FD859193FFE2
:100FF00081916F01882309F4ABC1853239F493FDE7
:10100000859193FF81916F01853229F4B70190E0BA
:101010000E94C809E7CF512C312C20E02032A0F4E7
:101020008B3269F030F4803259F0833269F42061F8
:101030002CC08D3239F0803339F4216026C0226013
:10104000246023C0286021C027FD27C030ED380F61
:101050003A3078F426FF06C0FAE05F9E300D112486
:10106000532E13C08AE0389E300D1124332E206297
:101070000CC08E3221F426FD6BC1206406C08C3674
:1010800011F4206802C0883641F4F60193FD859181
:1010900093FF81916F018111C1CF982F9F7D95544E
:1010A000933028F40C5F1F4FFFE3F9830DC08336A4
:1010B00031F0833771F0833509F05BC022C0F8014D
:1010C000808189830E5F1F4F44244394512C540127
:1010D00015C03801F2E06F0E711CF801A080B180DC
:1010E00026FF03C0652D70E002C06FEF7FEFC501E2
:1010F0002C870E94BD092C0183012C852F77222E7D
:1011000017C03801F2E06F0E711CF801A080B180A9
:1011100026FF03C0652D70E002C06FEF7FEFC501B1
:101120002C870E94B2092C012C852068222E830175
:1011300023FC1BC0832D90E048165906B0F4B7017C
:1011400080E290E00E94C8093A94F4CFF50127FCB0
:10115000859127FE81915F01B70190E00E94C80947
:1011600031103A94F1E04F1A51084114510471F7CB
:10117000E5C0843611F0893639F5F80127FF07C03C
:1011800060817181828193810C5F1F4F08C06081F3
:101190007181072E000C880B990B0E5F1F4F2F7665
:1011A000722E97FF09C090958095709561957F4F3D
:1011B0008F4F9F4F2068722E2AE030E0A4010E94DA
:1011C000000AA82EA81844C0853729F42F7EB22E15
:1011D0002AE030E025C0F22FF97FBF2E8F36C1F014
:1011E00018F4883579F0B4C0803719F0883721F0C9
:1011F000AFC02F2F2061B22EB4FE0DC08B2D8460A6
:10120000B82E09C024FF0AC09F2F9660B92E06C0D1
:1012100028E030E005C020E130E002C020E132E00B
:10122000F801B7FE07C060817181828193810C5FF4
:101230001F4F06C06081718180E090E00E5F1F4FFC
:10124000A4010E94000AA82EA818FB2DFF777F2E6C
:1012500076FE0BC0372D3E7FA51450F474FE0AC0F5
:1012600072FC08C0372D3E7E05C0BA2C372D03C056
:10127000BA2C01C0B52C34FF0DC0FE01EA0DF11DE2
:101280008081803311F4397E09C032FF06C0B394E7
:10129000B39404C0832F867809F0B39433FD13C050
:1012A00030FF06C05A2CB31418F4530C5B18B32C3F
:1012B000B31468F4B70180E290E03C870E94C8094B
:1012C000B3943C85F5CFB31410F43B1801C0312C16
:1012D00034FF12C0B70180E390E03C870E94C80948
:1012E0003C8532FF17C031FD03C088E790E002C0A3
:1012F00088E590E0B7010CC0832F867859F031FF64
:1013000002C08BE201C080E237FD8DE2B70190E0C0
:101310000E94C809A51438F4B70180E390E00E9448
:10132000C8095A94F7CFAA94F401EA0DF11D8081FF
:10133000B70190E00E94C809A110F5CF332009F44D
:1013400051CEB70180E290E00E94C8093A94F6CFEE
:10135000F7018681978102C08FEF9FEF2C96E2E123
:101360000C94D50AFC010590615070400110D8F72B
:10137000809590958E0F9F1F0895FC0161507040DD
:1013800001900110D8F7809590958E0F9F1F0895BA
:101390000F931F93CF93DF93FB01238121FD03C0A4
:1013A0008FEF9FEF28C022FF16C04681578124810E
:1013B00035814217530744F4A081B1819D012F5F0D
:1013C0003F4F318320838C93268137812F5F3F4F9E
:1013D0003783268310C0EB01092F182F0084F18575
:1013E000E02D0995892BE1F68E819F8101969F83DF
:1013F0008E83812F902FDF91CF911F910F910895B0
:10140000FA01AA27283051F1203181F1E8946F9335
:101410006E7F6E5F7F4F8F4F9F4FAF4FB1E03ED0DB
:10142000B4E03CD0670F781F891F9A1FA11D680F79
:10143000791F8A1F911DA11D6A0F711D811D911DAC
:10144000A11D20D009F468943F912AE0269F112421
:101450003019305D3193DEF6CF010895462F477085
:10146000405D4193B3E00FD0C9F7F6CF462F4F70E0
:10147000405D4A3318F0495D31FD4052419302D03E
:10148000A9F7EACFB4E0A6959795879577956795E4
:10149000BA95C9F700976105710508959B01AC01E4
:1014A0000A2E06945795479537952795BA95C9F70B
:1014B000620F731F841F951FA01D0895A8E1B0E05F
:1014C00042E050E00C946B0A0E94790A272F0C949A
:1014D0007A0ADC01CB01FC01F999FECF06C0F2BD0E
:1014E000E1BDF89A319600B40D9241505040B8F7E2
:1014F0000895262FF999FECF1FBA92BD81BD20BD58
:101500000FB6F894FA9AF99A0FBE01960895052E2F
:1015100097FB1EF400940E949E0A57FD07D00E947C
:10152000F00A07FC03D04EF40C949E0A50954095A7
:10153000309521953F4F4F4F5F4F0895909580957F
:10154000709561957F4F8F4F9F4F08950E94120BAA
:10155000A59F900DB49F900DA49F800D911D112407
:101560000895B7FF0C94A60A0E94A60A821B930B4B
:1015700008952F923F924F925F926F927F928F9237
:101580009F92AF92BF92CF92DF92EF92FF920F9312
:101590001F93CF93DF93CDB7DEB7CA1BDB0B0FB61C
:1015A000F894DEBF0FBECDBF09942A8839884888D9
:1015B0005F846E847D848C849B84AA84B984C8846F
:1015C000DF80EE80FD800C811B81AA81B981CE0F66
:1015D000D11D0FB6F894DEBF0FBECDBFED0108954B
:1015E000A1E21A2EAA1BBB1BFD010DC0AA1FBB1F27
:1015F000EE1FFF1FA217B307E407F50720F0A21B99
:10160000B30BE40BF50B661F771F881F991F1A9405
:1016100069F760957095809590959B01AC01BD012F
:10162000CF010895A29FB001B39FC001A39F700D89
:10163000811D1124911DB29F700D811D1124911DDA
:061640000895F894FFCFAD
:1016460001000000256E00380039003A003B003CDE
:10165600003D003E003F005930755F3472655F659E
:1016660076336E5F77307273655F7468346E5F745D
:1016760065685F433473316E6F0057652061707023
:101686007265636961746520796F75722073746120
:101696007920686572652E00546F2073686F772015
:1016A6006F757220677261746974756465207765F9
:1016B600206769766520796F75206120636F757084
:1016C6006F6E20666F722061206672656520647297
:1016D600696E6B000D0A43757272656E74206261E5
:1016E6006C616E63653A20256400416D6F756E749A
:1016F600206F6620636F75706F6E73206C656674FD
:101706003A2025640D0A005B315D20506C6179003A
:101716005B325D204368656174005B335D20476F13
:1017260020666F722061206472696E6B206174207E
:1017360074686520626172005B345D204769766576
:10174600206D6520736F6D652066726565206D6F0F
:101756006E6579005B355D20526573746172740045
:101766002573000D0A486F706520796F7520656EC8
:101776006A6F79656420796F7572206472696E6B21
:1017860021000D0A546869732067616D65206861E0
:10179600732061206368616E676520746F207769C6
:1017A6006E2074686520736563726574206B657955
:1017B60021005072657373203C456E7465723E203D
:1017C600746F207370696E2074686520776865652C
:1017D6006C00596F7520776F6E20352063726564D3
:1017E60069747300596F75206C6F737420616C6C2B
:1017F600206372656469747300596F752061726540
:10180600206D6F6E69746F726564206279207468EA
:10181600652067756172647300596F7520776F6E06
:10182600203130206372656469747300596F7520C6
:101836006C6F737420313020637265646974730051
:10184600596F7520776F6E206120636F75706F6EAC
:1018560000596F75206C6F73742035206372656450
:10186600697473005069636B20796F7572206E75A9
:101876006D6265722066726F6D20312D33322E00D7
:101886005468652062616C6C20656E6465642075C1
:1018960070206174206E756D626572202564005932
:1018A6006F7520776F6E2100596F7520616C736FAD
:1018B60020776F6E206120636F75706F6E00596FB1
:1018C60075206C6F7374000D0A49206B6E6F77205C
:1018D60074686520666F6C6C6F77696E67206761E8
:1018E6006D65733A002D205B525D6F756C6574747F
:1018F60065002D205B535D70696E207468652077E6
:101906006865656C007200520073005300492064DC
:101916006F206E6F74206B6E6F7720746861742011
:1019260067616D65004368656174657273206172F5
:10193600652070756E69736865642E20576520771B
:1019460061726E656420796F7500596F75206861E4
:10195600766520256420636F75706F6E73206C65E5
:101966006674005768617420776F756C6420796FB0
:1019760075206C696B6520746F206472696E6B3FAD
:10198600004F7572206472696E6B73206D656E759B
:101996003A0D0A005B315D2042656572005B325D7F
:1019A600204D696C6B004865726520697320796FFC
:1019B600757220626565722C207369722E00486507
:1019C600726520697320796F7572206D696C6B2C56
:1019D600206D6164616D652E00576520686F7065C6
:1019E60020796F7520656E6A6F79656420796F75E9
:1019F60072206472696E6B2100596F75207265637F
:101A06006569766564203530206372656469747330
:101A16000054686520677561726473206861766535
:101A2600206465636964656420796F7520646F203E
:101A36006E6F7420706C6179206661697200596FEF
:101A4600752068617665206D6164652061206C6F24
:101A560074206F66206D6F6E65792E205468652040
:101A660067756172647320617265206B6565706964
:101A76006E6720616E20657965206F6E20796F75BF
:101A860000596F7520646F206E6F74206E656564F3
:101A9600206D6F7265206D6F6E657900596F7520C8
:101AA60068617665206265656E206B69636B656447
:101AB600206F7574206F6620746865206361736992
:101AC6006E6F2E000D0A57656C636F6D6520746F1F
:101AD6002074686520636173696E6F2100476574C1
:101AE60020612063757272656E6379206F6620319E
:101AF60030303020616E6420776520676976652016
:101B0600796F752074686520736563726574206BE0
:101B160065792E004F63636173696F6E616C6C79D2
:101B26002077652067697665206177617920636F24
:101B360075706F6E7320666F7220667265652064BD
:101B460072696E6B732E0057652068617665206733
:101B560075617264732077616C6B696E6720617260
:101B66006F756E642C206C6F6F6B696E6720666F85
:101B7600722063686561746572732E00446F6E2708
:101B8600742067657420636175676874206368658F
:101B96006174696E672E2057652077696C6C2074B6
:101BA600616B65206F75722063757272656E6379FD
:101BB600206261636B2E00446F20796F7520776118
:101BC6006E7420746F20676F206261636B20696E8C
:101BD600746F2074686520636173696E6F3F5B592B
:101BE60065732F4E6F5D00596573007965730079D3
:021BF6000000ED
:00000001FF
