:100000000C9436020C9453020C9453020C94530239
:100010000C9453020C9453020C9453020C9453020C
:100020000C9453020C9453020C9453020C945302FC
:100030000C9453020C9453020C9453020C945302EC
:100040000C9453020C9453020C9453020C945302DC
:100050000C9453020C9453020C9453020C945302CC
:100060000C9453020C945302626262626262626296
:100070006262626262626262626262626262626260
:100080006262626262626262626262626262626250
:100090006262626262626262626262626262626240
:1000A0006262626262626262626262626262626230
:1000B0006262626262626262626262626262626220
:1000C0006262626262626262626262626262626210
:1000D0006262626262626262626262626262626200
:1000E00062626262626262626262626262626262F0
:1000F0006262626262626262626262031D036262E3
:10010000626262626262626262626A6F6C6F6B629A
:1001100062626262626262626262623E6F3E6262FA
:10012000626262626262626262626D6262621E62E8
:100130006262626262626262623E62626262623EE7
:100140006262621D1D626262623E62623E3E623EA9
:1001500062623E62621E1D1D62621E1D3E3E1D6D7C
:100160001D6D626262626262006363636363636304
:10017000636363636363636363636363636363634F
:10018000636363636363636363636363636363633F
:10019000636363636363636363636363636363632F
:1001A000636363636363636363636363636363631F
:1001B000636363636363636363636363636363630F
:1001C00063636363636363636363636363636363FF
:1001D00063636363636363636363636363636363EF
:1001E00063636363636363636363636363636363DF
:1001F00063636363636363636363636363636363CF
:100200006363636D6E6D1C636363636363636363E6
:100210006363381C3E1D636A2C381F1C1C1C1C1C8D
:100220001C1C1C6C6C3D236363636B6363636363BF
:10023000636363636A63636363636C3F3F3D3D3D38
:100240003D3D3F3F1F636363633F1C1F1F1C636390
:1002500063631F1F1C1F1C636361646361616463CC
:1002600063636361616461646300646464646464BF
:10027000646464646464646464646464646464643E
:10028000646464646464646464646464646464642E
:10029000646464646464646464646464646464641E
:1002A000646464646464646464646464646464640E
:1002B00064646464646464646464646464646464FE
:1002C00064646464646464646464646464646464EE
:1002D00064646464646464646464646464646464DE
:1002E00064646464646464646464646464646464CE
:1002F00064646464646464646464646464646464BE
:1003000064646464646464646464646464646464AD
:10031000646464646464646464646464646464649D
:10032000646464646464646464646464646464648D
:10033000646464646464646464646464646464647D
:100340001B1B1B1B6C6D6C6D646464646464646B68
:1003500064646464646404046464243A3A3A3A1851
:100360001B7F291B1B296A1B7A2B00DFD5D8DEA334
:10037000B9B9B9B9B9B9B9B9B9B9B9C3D6D6DCC17E
:10038000C9D5D6D0CDD8CDD0D6D7B9B9B9B9B9B9E4
:10039000B9B6B9B9B9B9B9B9B9B9B9B9B9B9B9B9D0
:1003A000B6B9B9B9B9B9B9B9B9B9B9B9B9C6C6C699
:1003B000C5C6C6C6C6C6C6B9B9B9B9B9B6B9C6C63C
:1003C000C6B9B9C6C6C6B9C5B9B9B9B6B9B6B9D943
:1003D000B9C5B6B9D9B9C5B9C5B9B9C5B9C5C6C61A
:1003E000C6B6C5C6C6C6B6B9B6C5B9B9C5C6C6C607
:1003F000C6C5B6C6C6C6C6B6E5E5B9B9B6B9B9B9D1
:10040000B9B9B6C5C5C5C5C5B6B6B9B9E5B9B9B9FD
:10041000B9B9E5C5C5C5C5C5C5B9B9B9B9C5B9B9CC
:10042000B9B9B9B9C5C5C5C5C5C5B9B9B9B9C5C6DB
:10043000C6C6C6C6C6B6C5C5C5C5B9B9B9B9B9C6B1
:10044000E5E5C6E5E5C6B9B9B9B9B9B9B9B9B9B952
:10045000B4B4B9B4B4B9B9B9B9B9B90000000000BD
:1004600000000000000000000000000011241FBE7A
:10047000CFEFD8E0DEBFCDBF11E0A0E0B1E0ECED02
:10048000F3E102C005900D92A636B107D9F722E03C
:10049000A6E6B1E001C01D92AA31B207E1F70E94C1
:1004A00087050C94EC090C940000CF93DF9300D0E7
:1004B000CDB7DEB7CE0109969A83898329813A8127
:1004C0008F819885AC0168E770E086E691E00E9434
:1004D0000B0786E691E00E94C9020F900F90DF9112
:1004E000CF910895CF93DF9300D01F92CDB7DEB7A1
:1004F0009A8389836B8389819A816B810E940F0320
:100500000F900F900F90DF91CF910895CF93DF93CD
:1005100000D0CDB7DEB783E390E09A83898385EC82
:1005200090E029813A81232F3327FC01208384EC3A
:1005300090E02981FC01208381EC90E028E1FC011E
:10054000208382EC90E026E0FC0120830F900F9046
:10055000DF91CF910895CF93DF931F92CDB7DEB790
:100560008983000080EC90E0FC018081882F90E07E
:100570008072992721E0892B09F020E0222391F74E
:1005800086EC90E02981FC0120830F90DF91CF91D0
:100590000895CF93DF9300D0CDB7DEB79A838983D8
:1005A0000BC089819A819C012F5F3F4F3A83298339
:1005B000FC0180810E94AB0289819A81FC018081CB
:1005C000882379F70F900F90DF91CF910895CF9303
:1005D000DF93CDB7DEB780EC90E0FC018081881F0F
:1005E0008827881F882311F081E001C080E0DF9117
:1005F000CF910895CF93DF93CDB7DEB700000E946F
:10060000E702982F81E0992309F080E08823B9F769
:1006100086EC90E0FC018081DF91CF910895CF932B
:10062000DF93CDB7DEB727970FB6F894DEBF0FBEC6
:10063000CDBF9E838D836F8319821A8228C00E944A
:10064000FA028B838B818D30D1F40E94FA028C8365
:100650008C818A3019F481E08A8319C08D819E8152
:100660002F8149816B810E945D0389838D819E81E9
:100670002F8149816C810E945D03898308C08D812F
:100680009E812F8149816B810E945D0389838A81CC
:100690008823A9F28981882F90E02D813E81820FE5
:1006A000931FFC011082898127960FB6F894DEBF54
:1006B0000FBECDBFDF91CF910895CF93DF9300D0D0
:1006C00000D01F92CDB7DEB79A8389836B834C83AA
:1006D0002D838C81282F30E08D81882F90E0019729
:1006E000281739076CF48C8191E0980F9C83882F30
:1006F00090E029813A81820F931F2B81FC01208396
:100700008C810F900F900F900F900F90DF91CF91F1
:100710000895CF93DF93CDB7DEB7FFCFCF93DF93AD
:10072000CDB7DEB728970FB6F894DEBF0FBECDBFAA
:100730009A8389837C836B832D833E834F83588781
:1007400089819A8124E631E0FC013183208329816B
:100750003A818D819E81AF81B885F901848395832B
:10076000A683B78389819A812B813C81FC013383E5
:10077000228328960FB6F894DEBF0FBECDBFDF915F
:10078000CF910895CF93DF93CDB7DEB729970FB6FA
:10079000F894DEBF0FBECDBF9987888719821A8271
:1007A0001B821C8242C089819A81AB81BC818F707F
:1007B0009927AA27BB27892B8A2B8B2B59F480E0FA
:1007C00091E0892F8F9380E091E08F930E945502F2
:1007D0000F900F9088859985FC0180819181FC01A3
:1007E0002081318188859985FC01428153818981ED
:1007F0009A81840F951F9E838D838D819E81FC013C
:1008000084918F834F8188859985642FF90109959B
:100810000E94AB0289819A81AB81BC810196A11DA6
:10082000B11D89839A83AB83BC8388859985FC013C
:10083000248135814681578189819A81AB81BC8130
:1008400082179307A407B50708F4ADCF80E091E0C5
:10085000892F8F9380E091E08F930E9455020F9033
:100860000F9029960FB6F894DEBF0FBECDBFDF9173
:10087000CF910895CF93DF93CDB7DEB728970FB60A
:10088000F894DEBF0FBECDBF9A8389837C836B83D0
:100890002D833E834F835887E981FA818D819E8124
:1008A000AF81B8856B817C819C01AD01CF010E9435
:1008B0008E0389819A812EE531E0FC01318320830A
:1008C00028960FB6F894DEBF0FBECDBFDF91CF9153
:1008D0000895CF93DF9300D01F92CDB7DEB79A83F0
:1008E00089836B839B8182E489270F900F900F90FF
:1008F000DF91CF910895CF93DF93CDB7DEB72897DF
:100900000FB6F894DEBF0FBECDBF9A8389837C8378
:100910006B832D833E834F835887E981FA818D81D4
:100920009E81AF81B8856B817C819C01AD01CF0137
:100930000E948E0389819A8128E531E0FC01318390
:10094000208328960FB6F894DEBF0FBECDBFDF918F
:10095000CF910895CF93DF9300D01F92CDB7DEB72C
:100960009A8389836B839B8183E489270F900F90FF
:100970000F90DF91CF910895CF93DF93CDB7DEB77E
:1009800028970FB6F894DEBF0FBECDBF9A83898338
:100990007C836B832D833E834F835887E981FA8163
:1009A0008D819E81AF81B8856B817C819C01AD0179
:1009B000CF010E948E0389819A8122E531E0FC01FA
:1009C0003183208328960FB6F894DEBF0FBECDBFCB
:1009D000DF91CF910895CF93DF9300D01F92CDB7D1
:1009E000DEB79A8389836B839B8184E489270F9088
:1009F0000F900F90DF91CF910895CF93DF93CDB7F4
:100A0000DEB728970FB6F894DEBF0FBECDBF9A832E
:100A100089837C836B832D833E834F835887E98151
:100A2000FA818D819E81AF81B8856B817C819C012B
:100A3000AD01CF010E948E0389819A812CE431E0BF
:100A4000FC013183208328960FB6F894DEBF0FBED9
:100A5000CDBFDF91CF910895CF93DF9300D01F9248
:100A6000CDB7DEB79A8389836B839B8189E9892718
:100A70000F900F900F90DF91CF910895CF93DF9358
:100A800000D01F92CDB7DEB79B838A83198236C010
:100A90008981882F90E02A813B81820F931FFC017E
:100AA00080818034A4F48981882F90E02A813B8161
:100AB000820F931FFC01808188334CF08981882F3D
:100AC00090E02A813B81820F931FFC011082898173
:100AD000882F90E02A813B81820F931FFC01808147
:100AE000853249F48981882F90E02A813B81820FE9
:100AF000931FFC01108289818F5F898389818C33E8
:100B000038F20F900F900F90DF91CF910895CF930F
:100B1000DF93CDB7DEB7CB56D1090FB6F894DEBF61
:100B20000FBECDBF0E9486021982CE01409620E002
:100B300031E040E050E068E670E00E943A04CE0107
:100B4000489620E031E040E050E069E671E00E9424
:100B50007B04CE01809620E031E040E050E06AE680
:100B600072E00E94BC04CE01889620E031E040E0B3
:100B700050E06BE673E00E94FD04CE01C0964CE3AA
:100B800050E060E070E00E940407CE01C0969B83B5
:100B90008A838A819B819D838C838A819B810A962B
:100BA0009B838A838A819B819F838E838A819B8199
:100BB00001969B838A838A819B8101969B838A838A
:100BC0008A819B81998788878A819B8108969B83EC
:100BD0008A838A819B819B878A878A819B810896E9
:100BE0009B838A838A819B819D878C878A819B8155
:100BF00008969B838A838A819B819F878E878A81BF
:100C00009B8108969B838A83CE01C0964CE350E07B
:100C100060E070E00E9404079E01205F3F4F8885DE
:100C2000998548E050E0B9010E94FB069E01285ECC
:100C30003F4F8A859B8548E050E0B9010E94FB0642
:100C40009E01205E3F4F8C859D8548E050E0B901B4
:100C50000E94FB069E01285D3F4F8E859F8548E0E0
:100C600050E0B9010E94FB0683E091E0892F8F9349
:100C700083E091E08F930E9455020F900F9084E1E2
:100C800091E0892F8F9384E191E08F930E94550228
:100C90000F900F908DE191E0892F8F938DE191E07E
:100CA0008F930E9455020F900F9086E291E0892F5A
:100CB0008F9386E291E08F930E9455020F900F90E0
:100CC00081E391E0892F8F9381E391E08F930E94DC
:100CD00055020F900F908E819F81FC0110826CE372
:100CE0008EED91E00E947202282F8E819F81FC017F
:100CF00020838EED91E00E943E058E819F81FC0154
:100D00008081282F30E08C819D81A9016EED71E0FA
:100D10000E94FB0680E091E0892F8F9380E091E0B4
:100D20008F930E9455020F900F9086E391E0892FD8
:100D30008F9386E391E08F930E9455020F900F905E
:100D400019821CC08981882F90E02C813D81280F59
:100D5000391FCE01C096CB968217930708F415C0B1
:100D60008981882F90E02C813D81820F931FFC01A7
:100D700080810E94AB0289818F5F89838E819F81F0
:100D8000FC01908189818917E8F280E091E0892F48
:100D90008F9380E091E08F930E9455020F900F9007
:100DA0008C819D81FC018081082E000C990B84367A
:100DB000910559F08D36910569F08336910579F4E6
:100DC000888599850E94C20315C08A859B850E94EB
:100DD000C20310C08C859D850E94C2030BC081E4B4
:100DE00091E0892F8F9381E491E08F930E945502C7
:100DF0000F900F9009CFFB01DC0102C001900D9212
:100E000041505040D8F70895DC0101C06D93415026
:100E10005040E0F70895AEE0B0E0E1E1F7E00C9477
:100E2000C3098C01CA0146E04C831A83098377FF0A
:100E300002C060E070E8FB013197FE83ED83A901F9
:100E4000BC01CE0101960E9437074D815E8157FD9E
:100E50000AC02F813885421753070CF49A01F80114
:100E6000E20FF31F10822E96E4E00C94DF09ACE051
:100E7000B0E0EDE3F7E00C94B5097C016B018A0169
:100E8000FC0117821682838181FFBDC1CE010196CC
:100E90004C01F7019381F60193FD859193FF8191B8
:100EA0006F01882309F4ABC1853239F493FD859134
:100EB00093FF81916F01853229F4B70190E00E9480
:100EC0001F09E7CF512C312C20E02032A0F48B32C7
:100ED00069F030F4803259F0833269F420612CC01B
:100EE0008D3239F0803339F4216026C022602460CD
:100EF00023C0286021C027FD27C030ED380F3A30CD
:100F000078F426FF06C0FAE05F9E300D1124532EC0
:100F100013C08AE0389E300D1124332E20620CC09D
:100F20008E3221F426FD6BC1206406C08C3611F48C
:100F3000206802C0883641F4F60193FD859193FF45
:100F400081916F018111C1CF982F9F7D955493306E
:100F500028F40C5F1F4FFFE3F9830DC0833631F097
:100F6000833771F0833509F05BC022C0F8018081BE
:100F700089830E5F1F4F44244394512C540115C0A4
:100F80003801F2E06F0E711CF801A080B18026FFDD
:100F900003C0652D70E002C06FEF7FEFC5012C87A5
:100FA0000E9414092C0183012C852F77222E17C053
:100FB0003801F2E06F0E711CF801A080B18026FFAD
:100FC00003C0652D70E002C06FEF7FEFC5012C8775
:100FD0000E9409092C012C852068222E830123FC04
:100FE0001BC0832D90E048165906B0F4B70180E28B
:100FF00090E00E941F093A94F4CFF50127FC8591F7
:1010000027FE81915F01B70190E00E941F09311016
:101010003A94F1E04F1A51084114510471F7E5C0B8
:10102000843611F0893639F5F80127FF07C0608151
:101030007181828193810C5F1F4F08C06081718133
:10104000072E000C880B990B0E5F1F4F2F76722E08
:1010500097FF09C090958095709561957F4F8F4F50
:101060009F4F2068722E2AE030E0A4010E945709A9
:10107000A82EA81844C0853729F42F7EB22E2AE066
:1010800030E025C0F22FF97FBF2E8F36C1F018F463
:10109000883579F0B4C0803719F0883721F0AFC0B7
:1010A0002F2F2061B22EB4FE0DC08B2D8460B82E80
:1010B00009C024FF0AC09F2F9660B92E06C028E001
:1010C00030E005C020E130E002C020E132E0F8016C
:1010D000B7FE07C060817181828193810C5F1F4FD1
:1010E00006C06081718180E090E00E5F1F4FA40117
:1010F0000E945709A82EA818FB2DFF777F2E76FE99
:101100000BC0372D3E7FA51450F474FE0AC072FC4C
:1011100008C0372D3E7E05C0BA2C372D03C0BA2C2F
:1011200001C0B52C34FF0DC0FE01EA0DF11D808118
:10113000803311F4397E09C032FF06C0B394B394F2
:1011400004C0832F867809F0B39433FD13C030FFB9
:1011500006C05A2CB31418F4530C5B18B32CB314F8
:1011600068F4B70180E290E03C870E941F09B394C5
:101170003C85F5CFB31410F43B1801C0312C34FF7B
:1011800012C0B70180E390E03C870E941F093C85B4
:1011900032FF17C031FD03C088E790E002C088E548
:1011A00090E0B7010CC0832F867859F031FF02C060
:1011B0008BE201C080E237FD8DE2B70190E00E9432
:1011C0001F09A51438F4B70180E390E00E941F09BD
:1011D0005A94F7CFAA94F401EA0DF11D8081B7016A
:1011E00090E00E941F09A110F5CF332009F451CEE1
:1011F000B70180E290E00E941F093A94F6CFF70110
:101200008681978102C08FEF9FEF2C96E2E10C94CC
:10121000D109FC010590615070400110D8F780950C
:1012200090958E0F9F1F0895FC01615070400190B2
:101230000110D8F7809590958E0F9F1F08950F93FA
:101240001F93CF93DF93FB01238121FD03C08FEF19
:101250009FEF28C022FF16C0468157812481358127
:101260004217530744F4A081B1819D012F5F3F4F86
:10127000318320838C93268137812F5F3F4F3783C3
:10128000268310C0EB01092F182F0084F185E02D73
:101290000995892BE1F68E819F8101969F838E832C
:1012A000812F902FDF91CF911F910F910895FA0117
:1012B000AA27283051F1203181F1E8946F936E7F95
:1012C0006E5F7F4F8F4F9F4FAF4FB1E03ED0B4E086
:1012D0003CD0670F781F891F9A1FA11D680F791FC7
:1012E0008A1F911DA11D6A0F711D811D911DA11DD8
:1012F00020D009F468943F912AE0269F11243019E8
:10130000305D3193DEF6CF010895462F4770405D82
:101310004193B3E00FD0C9F7F6CF462F4F70405D31
:101320004A3318F0495D31FD4052419302D0A9F78C
:10133000EACFB4E0A6959795879577956795BA9586
:10134000C9F700976105710508959B01AC010A2E4C
:1013500006945795479537952795BA95C9F7620F23
:10136000731F841F951FA01D08952F923F924F92C7
:101370005F926F927F928F929F92AF92BF92CF9225
:10138000DF92EF92FF920F931F93CF93DF93CDB72E
:10139000DEB7CA1BDB0B0FB6F894DEBF0FBECDBFA6
:1013A00009942A88398848885F846E847D848C8477
:1013B0009B84AA84B984C884DF80EE80FD800C8180
:1013C0001B81AA81B981CE0FD11D0FB6F894DEBF63
:0C13D0000FBECDBFED010895F894FFCFD3
:1013DC000D0A000D0A53686F77206D652061200D92
:1013EC000A0D0A00205B635D61740D0A00205B64CA
:1013FC005D6F670D0A00205B6D5D6F7573650D0A7F
:10140C00000D0A3E3E005468697320697320612008
:10141C00003F3F3F3F0D0A00000000002C0500007C
:10142C000000EB0400000000AA04000000006904A6
:06143C000000000089031E
:00000001FF
