:100000000C943A010C9457010C9457010C9457012D
:100010000C9457010C9457010C9457010C94570100
:100020000C9457010C9457010C9457010C945701F0
:100030000C9457010C9457010C9457010C945701E0
:100040000C9457010C9457010C9457010C945701D0
:100050000C9457010C9457010C9457010C945701C0
:100060000C9457010C945701637C777BF26B6FC53E
:100070003001672BFED7AB76CA82C97DFA5947F0AB
:10008000ADD4A2AF9CA472C0B7FD9326363FF7CC87
:1000900034A5E5F171D8311504C723C31896059A24
:1000A000071280E2EB27B27509832C1A1B6E5AA047
:1000B000523BD6B329E32F8453D100ED20FCB15B32
:1000C0006ACBBE394A4C58CFD0EFAAFB434D33859B
:1000D00045F9027F503C9FA851A3408F929D38F56F
:1000E000BCB6DA2110FFF3D2CD0C13EC5F974417A6
:1000F000C4A77E3D645D197360814FDC222A90881D
:1001000046EEB814DE5E0BDBE0323A0A4906245CA8
:10011000C2D3AC629195E479E7C8376D8DD54EA90D
:100120006C56F4EA657AAE08BA78252E1CA6B4C6D9
:10013000E8DD741F4BBD8B8A703EB5664803F60E32
:10014000613557B986C11D9EE1F8981169D98E9421
:100150009B1E87E9CE5528DF8CA1890DBFE642683A
:1001600041992D0FB054BB1652096AD53036A538C7
:10017000BF40A39E81F3D7FB7CE339829B2FFF878F
:10018000348E4344C4DEE9CB547B9432A6C2233D73
:10019000EE4C950B42FAC34E082EA16628D924B224
:1001A000765BA2496D8BD12572F8F6648668981645
:1001B000D4A45CCC5D65B6926C704850FDEDB9DAA4
:1001C0005E154657A78D9D8490D8AB008CBCD30A92
:1001D000F7E45805B8B34506D02C1E8FCA3F0F026E
:1001E000C1AFBD0301138A6B3A9111414F67DCEA3D
:1001F00097F2CFCEF0B4E67396AC7422E7AD3585B6
:10020000E2F937E81C75DF6E47F11A711D29C589BF
:100210006FB7620EAA18BE1BFC563E4BC6D27920A1
:100220009ADBC0FE78CD5AF41FDDA8338807C731AA
:10023000B11210592780EC5F60517FA919B54A0DA2
:100240002DE57A9F93C99CEFA0E03B4DAE2AF5B017
:10025000C8EBBB3C83539961172B047EBA77D62633
:10026000E169146355210C7D8D01020408102040C2
:10027000801B366C11241FBECFEFD8E0DEBFCDBF90
:1002800021E0A4E0B1E001C01D92A53CB207E1F776
:1002900011E0A0E0B1E0E2EEF7E102C005900D92BE
:1002A000A430B107D9F70E94CA0A0C94EF0B0C9442
:1002B0000000782F8827769531F008F48627660F9E
:1002C00008F46427F8CF08F486270895CF93DF93C6
:1002D00000D0CDB7DEB783E390E09A83898385ECC5
:1002E00090E029813A81232F3327FC01208384EC7D
:1002F00090E02981FC01208381EC90E028E1FC0161
:10030000208382EC90E026E0FC0120830F900F9088
:10031000DF91CF910895CF93DF931F92CDB7DEB7D2
:100320008983000080EC90E0FC018081882F90E0C0
:1003300080729927892BB1F386EC90E02981FC012A
:1003400020830F90DF91CF910895CF93DF93CDB7A6
:10035000DEB780EC90E0FC018081882314F481E01A
:1003600001C080E0DF91CF910895CF93DF93CDB7A7
:10037000DEB700000E94A5018823E1F386EC90E03F
:10038000FC018081DF91CF910895CF93DF93CDB7AA
:10039000DEB76B970FB6F894DEBF0FBECDBF998F57
:1003A000888F84E08A8384E08B838AE08C838B81CE
:1003B0008983A2C08981882F90E08150904C880F5A
:1003C000991F880F991F288D398D820F931FFC016B
:1003D00080819181A281B3818C8B9D8BAE8BBF8BF1
:1003E00089819B81692F0E94F30A892F882309F054
:1003F00050C0CE0144960E949C028C89882F90E0C8
:1004000088599F4F9E838D838D819E81FC018491AD
:100410008F838F818C8B8D89882F90E088599F4F97
:100420009987888788859985FC0184918A878A8540
:100430008D8B8E89882F90E088599F4F9C878B8762
:100440008B859C85FC0184918D878D858E8B8F8912
:10045000882F90E088599F4F9F878E878E859F8534
:10046000FC018491888B88898F8B89819B81692F7E
:100470000E94F30A882F90E088599D4F9A8B898BB0
:1004800089899A89FC0184918B8B8B899C89892726
:100490008C8B8981882F90E0880F991F880F991F76
:1004A000288D398DB901680F791F8981282F30E097
:1004B0008B81882F90E0A901481B590BCA01880F36
:1004C000991F880F991F288D398D820F931FFC016A
:1004D00020813181428153818C899D89AE89BF8978
:1004E00082279327A427B527FB0180839183A283CA
:1004F000B38389818F5F89838981282F30E08A8146
:10050000682F70E08C81882F90E0AC014F5F5F4FC7
:10051000649FC001659F900D749F900D1124281752
:1005200039070CF447CF6B960FB6F894DEBF0FBEB9
:10053000CDBFDF91CF910895CF93DF9300D01F926D
:10054000CDB7DEB79B838A838A819B81FC01808142
:1005500089838A819B81FC0121818A819B81FC01A5
:1005600020838A819B8101962A813B81F901228126
:10057000FC0120838A819B8102962A813B81F901BB
:100580002381FC0120838A819B8103962981FC01C0
:1005900020830F900F900F90DF91CF910895CF930C
:1005A000DF9300D000D000D0CDB7DEB79C838B8323
:1005B0007E836D838AE08A838FE790E00E94AB0997
:1005C00019821FC08981882F90E02B813C81820F86
:1005D000931F2981222F30E04B815C81240F351F2E
:1005E000F90160812981222F30E04D815E81240F45
:1005F000351FF90120812627FC01208389818F5F27
:10060000898389818031F0F281E0898320C08FE77E
:1006100090E00E94AB098981882F90E082959295A5
:10062000907F9827807F98279C018D819E81280F3D
:10063000391F8B819C81A901BC0189E693E00E944E
:10064000D10989818F5F89838A8181508A838A81D8
:100650008230E8F68FE790E00E94AB098981882F0D
:1006600090E082959295907F9827807F98279C01B3
:100670008D819E81280F391F8B819C81A901BC012E
:1006800082E495E00E94D1098FE790E00E94AB09D7
:1006900026960FB6F894DEBF0FBECDBFDF91CF9187
:1006A0000895CF93DF9300D000D0CDB7DEB79A8303
:1006B00089837C836B832B813C8189819A81B901F9
:1006C0000E94CF020F900F900F900F90DF91CF916B
:1006D00008950F931F93CF93DF93CDB7DEB769973C
:1006E0000FB6F894DEBF0FBECDBF9F8B8E8B798F78
:1006F000688F198222C08981882F90E02981222F5A
:1007000030E04E895F89240F351FF9012081222FA7
:1007100030E028593F4F3B832A832A813B81F901EE
:1007200024912C834C819E012A5F3F4F820F931F9F
:10073000FC01408389818F5F898389818031D8F270
:10074000CE010696019661E00E94B505CE0106969F
:10075000029662E00E94B505CE010696039663E01C
:100760000E94B50519825BC18981882F90E0880FAE
:10077000991F880F991F9E012A5F3F4F820F931F79
:10078000FC0140818981882F90E0880F991F880F94
:10079000991F01969E012A5F3F4F820F931FFC0114
:1007A000808148278981882F90E0880F991F880FC2
:1007B000991F02969E012A5F3F4F820F931FFC01F3
:1007C000808148278981882F90E0880F991F880FA2
:1007D000991F03969E012A5F3F4F820F931FFC01D2
:1007E000808184278D838981882F90E0880F991FCD
:1007F000880F991F9C018E899F898C01020F131FFE
:100800008981882F90E0880F991F880F991F9E017A
:100810002A5F3F4F820F931FFC0140818981882FFF
:1008200090E0880F991F880F991F01969E012A5FFB
:100830003F4F820F931FFC01808184274BE1682F7B
:1008400082E00E945901482F8981882F90E0880F0B
:10085000991F880F991F9E012A5F3F4F820F931F98
:10086000FC018081942F98278D818927F80180834E
:100870008981882F90E0880F991F880F991F019612
:100880002E893F898901080F191F8981882F90E0DF
:10089000880F991F880F991F01969E012A5F3F4F6D
:1008A000820F931FFC0140818981882F90E0880F7F
:1008B000991F880F991F02969E012A5F3F4F820F52
:1008C000931FFC01808184274BE1682F82E00E9406
:1008D0005901482F8981882F90E0880F991F880F30
:1008E000991F01969E012A5F3F4F820F931FFC01C3
:1008F0008081942F98278D818927F80180838981B1
:10090000882F90E0880F991F880F991F02962E89D3
:100910003F898901080F191F8981882F90E0880F6E
:10092000991F880F991F02969E012A5F3F4F820FE1
:10093000931FFC0140818981882F90E0880F991FC7
:10094000880F991F03969E012A5F3F4F820F931FC6
:10095000FC01808184274BE1682F82E00E945901CD
:10096000482F8981882F90E0880F991F880F991F41
:1009700002969E012A5F3F4F820F931FFC018081E8
:10098000942F98278D818927F80180838981882F6A
:1009900090E0880F991F880F991F03962E893F8931
:1009A0008901080F191F8981882F90E0880F991FEE
:1009B000880F991F03969E012A5F3F4F820F931F56
:1009C000FC0140818981882F90E0880F991F880F52
:1009D000991F9E012A5F3F4F820F931FFC01808168
:1009E00084274BE1682F82E00E945901482F8981BA
:1009F000882F90E0880F991F880F991F03969E01FA
:100A00002A5F3F4F820F931FFC018081942F98270C
:100A10008D818927F801808389818F5F898389810E
:100A2000843008F4A1CE19821FC08981882F90E0FC
:100A30002E893F89820F931F2981222F30E04E8912
:100A40005F89240F351FF90160812981222F30E051
:100A5000488D598D240F351FF90120812627FC016F
:100A6000208389818F5F898389818031F0F2699643
:100A70000FB6F894DEBF0FBECDBFDF91CF911F91AF
:100A80000F910895CF93DF93CDB7DEB728970FB6B8
:100A9000F894DEBF0FBECDBF9E838D8378876F83B2
:100AA000198221C08981882F90E02D813E81820F9B
:100AB000931F2981222F30E04D815E81240F351F45
:100AC000F9012081222F30E028593F4F3B832A83B0
:100AD0002A813B81F90124912C832C81FC01208304
:100AE00089818F5F898389818031E0F28D819E8148
:100AF000019661E00E94B5058D819E81029662E0BB
:100B00000E94B5058D819E81039663E00E94B50524
:100B100019821FC08981882F90E02D813E81820F2C
:100B2000931F2981222F30E04D815E81240F351FD4
:100B3000F90160812981222F30E04F815885240FEF
:100B4000351FF90120812627FC01208389818F5FD1
:100B5000898389818031F0F228960FB6F894DEBF40
:100B60000FBECDBFDF91CF910895CF93DF93CDB767
:100B7000DEB727970FB6F894DEBF0FBECDBF9E83BA
:100B80008D836F838D819E81FC01808189838D811E
:100B90009E81FC0184818A838D819E81FC018085F8
:100BA0008B838D819E81FC0184858C838F81882F2E
:100BB00090E0837099279E012F5F3F4F820F931F14
:100BC000FC0120818D819E81FC0120838D819E818D
:100BD00004962F81222F30E02F5F3F4F2370332761
:100BE000AE014F5F5F4F240F351FF9012081FC01DB
:100BF00020838D819E8108962F81222F30E02E5FE9
:100C00003F4F23703327AE014F5F5F4F240F351FD7
:100C1000F9012081FC0120838D819E810C962F811A
:100C2000222F30E02D5F3F4F23703327AE014F5FFF
:100C30005F4F240F351FF9012081FC012083279687
:100C40000FB6F894DEBF0FBECDBFDF91CF910895F0
:100C5000CF93DF9300D000D000D0CDB7DEB79C8318
:100C60008B837E836D838AE08A838A8189838FE781
:100C700090E00E94AB098981882F90E0829592953F
:100C8000907F9827807F98279C018D819E81280FD7
:100C9000391F8B819C81A901BC0182EC96E00E94E6
:100CA000D10920C08981815089838FE790E00E941B
:100CB000AB098981882F90E082959295907F982743
:100CC000807F98279C018D819E81280F391F8B8101
:100CD0009C81A901BC0185E397E00E94D1098A812A
:100CE00081508A838A818230E8F68FE790E00E9403
:100CF000AB0919821FC08981882F90E02B813C812C
:100D0000820F931F2981222F30E04B815C81240FB9
:100D1000351FF90160812981222F30E04D815E81EC
:100D2000240F351FF90120812627FC0120838981AA
:100D30008F5F898389818031F0F28FE790E00E9494
:100D4000AB0926960FB6F894DEBF0FBECDBFDF917C
:100D5000CF910895CF93DF9300D000D0CDB7DEB709
:100D60009A8389837C836B832B813C8189819A81DF
:100D7000B9010E9428060F900F900F900F90DF91FD
:100D8000CF910895CF93DF93CDB7DEB728970FB6F5
:100D9000F894DEBF0FBECDBF9E838D8378876F83AF
:100DA00019821FC08981882F90E02D813E81820F9A
:100DB000931F2981222F30E04D815E81240F351F42
:100DC000F90160812981222F30E04F815885240F5D
:100DD000351FF90120812627FC01208389818F5F3F
:100DE000898389818031F0F28D819E81019661E055
:100DF0000E9429098D819E81029662E00E94290944
:100E00008D819E81039663E00E942909198221C089
:100E10008981882F90E02D813E81820F931F298147
:100E2000222F30E04D815E81240F351FF901208192
:100E3000222F30E028593E4F3B832A832A813B8171
:100E4000F90124912C832C81FC01208389818F5FFF
:100E5000898389818031E0F228960FB6F894DEBF4D
:100E60000FBECDBFDF91CF910895FF920F931F93D7
:100E7000CF93DF93CDB7DEB76C970FB6F894DEBF94
:100E80000FBECDBF9A8F898F7C8F6B8F198221C047
:100E90008981882F90E02981222F30E0498D5A8D59
:100EA000240F351FF90160812981222F30E04B8DFD
:100EB0005C8D240F351FF9012081462F42279E01AA
:100EC000275F3F4F820F931FFC01408389818F5F13
:100ED000898389818031E0F2198273C18981882FE9
:100EE00090E0880F991F880F991F03969E01275F36
:100EF0003F4F820F931FFC0140818981882F90E032
:100F0000880F991F880F991F02969E01275F3F4FF8
:100F1000820F931FFC01808184278A838981882F17
:100F200090E0880F991F880F991F01969E01275FF7
:100F30003F4F820F931FFC0140818981882F90E0F1
:100F4000880F991F880F991F9E01275F3F4F820FBF
:100F5000931FFC01808184278B839A818B81892751
:100F60008C834BE16C8189E00E9459018C838981DB
:100F7000882F90E0880F991F880F991F02969E0175
:100F8000275F3F4F820F931FFC0140818981882F8B
:100F900090E0880F991F880F991F9E01275F3F4F90
:100FA000820F931FFC01808184274BE1682F84E02E
:100FB0000E945901982F8C8189278D838981882FE0
:100FC00090E0880F991F880F991F03969E01275F55
:100FD0003F4F820F931FFC0140818981882F90E051
:100FE000880F991F880F991F01969E01275F3F4F19
:100FF000820F931FFC01808184274BE1682F84E0DE
:101000000E945901982F8C8189278C838981882F90
:1010100090E0880F991F880F991F0396298D3A8DAC
:101020008901080F191F8981882F90E0880F991F67
:10103000880F991F03969E01275F3F4F820F931FD2
:10104000FC0190818C81F92EF8268981882F90E00F
:10105000880F991F880F991F9E01275F3F4F820FAE
:10106000931FFC0140818981882F90E0880F991F90
:10107000880F991F03969E01275F3F4F820F931F92
:10108000FC01808184274BE1682F82E00E94590196
:101090008F25F80180838981882F90E0880F991F20
:1010A000880F991F0296298D3A8D8901080F191F03
:1010B0008981882F90E0880F991F880F991F0296C9
:1010C0009E01275F3F4F820F931FFC0190818D810E
:1010D000F92EF8264BE16A8182E00E9459018F25A2
:1010E000F80180838981882F90E0880F991F880FED
:1010F000991F0196298D3A8D8901080F191F898141
:10110000882F90E0880F991F880F991F01969E01E4
:10111000275F3F4F820F931FFC0190818C81F92E36
:10112000F8268981882F90E0880F991F880F991FD2
:1011300002969E01275F3F4F820F931FFC01408163
:101140008981882F90E0880F991F880F991F019639
:101150009E01275F3F4F820F931FFC0180818427F0
:101160004BE1682F82E00E9459018F25F8018083AE
:101170008981882F90E0880F991F880F991F9C0103
:10118000898D9A8D8C01020F131F8981882F90E021
:10119000880F991F880F991F9E01275F3F4F820F6D
:1011A000931FFC0190818D81F92EF8264BE16B8114
:1011B00082E00E9459018F25F801808389818F5F29
:1011C00089838981843008F489CE898D9A8D01962E
:1011D00061E00E942909898D9A8D029662E00E9441
:1011E0002909898D9A8D039663E00E942909198245
:1011F00021C08981882F90E0298D3A8D820F931F1D
:101200002981222F30E0498D5A8D240F351FF90195
:101210002081222F30E028593E4F3F832E832E819C
:101220003F81F901249128872885FC012083898149
:101230008F5F898389818031E0F26C960FB6F894D4
:10124000DEBF0FBECDBFDF91CF911F910F91FF90F9
:101250000895CF93DF93CDB7DEB727970FB6F894F5
:10126000DEBF0FBECDBF9E838D836F838D819E8138
:10127000FC01808189838D819E81FC0184818A8328
:101280008D819E81FC0180858B838D819E81FC01F7
:1012900084858C838F81882F90E091958195910929
:1012A000837099279E012F5F3F4F820F931FFC0190
:1012B00020818D819E81FC0120838D819E810496F9
:1012C0002F81222F30E045E050E0BA01621B730B02
:1012D0009B0123703327AE014F5F5F4F240F351FF3
:1012E000F9012081FC0120838D819E8108962F8148
:1012F000222F30E046E050E0BA01621B730B9B01E5
:1013000023703327AE014F5F5F4F240F351FF90164
:101310002081FC0120838D819E810C962F81222FBC
:1013200030E047E050E0BA01621B730B9B01237071
:101330003327AE014F5F5F4F240F351FF901208126
:10134000FC01208327960FB6F894DEBF0FBECDBFF9
:10135000DF91CF910895CF93DF9300D000D000D0DC
:10136000CDB7DEB79C838B830E945F0B2B813C81C2
:10137000B9010E94FF0A9A83898306C0000089810F
:101380009A8101979A83898389819A81892BB1F700
:1013900026960FB6F894DEBF0FBECDBFDF91CF917A
:1013A0000895CF93DF9300D000D000D0CDB7DEB743
:1013B0009A8389837C836B835E834D834D815E81B9
:1013C0008B819C8129813A81BA01F9010995269680
:1013D0000FB6F894DEBF0FBECDBFDF91CF91089559
:1013E0000F931F93CF93DF931F92CDB7DEB7198270
:1013F0000EC08981082F10E00E94B501282FC80176
:101400008B549E4FFC01208389818F5F8983898162
:10141000803178F30F90DF91CF911F910F91089554
:10142000CF93DF931F92CDB7DEB719820CC08981AD
:10143000882F90E08B549E4FFC0180810E948B018D
:1014400089818F5F89838981803188F30F90DF9153
:10145000CF910895CF93DF93CDB7DEB765E071E00C
:1014600085EB91E00E945103DF91CF910895CF93D6
:10147000DF93CDB7DEB765E071E085EB91E00E94C8
:10148000AA06DF91CF910895CF93DF93CDB7DEB752
:10149000A2970FB6F894DEBF0FBECDBF20E2CE01FB
:1014A0000396FC01322F11923A95E9F789E88B8374
:1014B00082E38C8380ED8D8388EB8E8380E18F8344
:1014C00086E1888785E8898784E18A8783E58B8739
:1014D0008BE48C8783E98D878EEB8E8788E48F87FA
:1014E0008CE2888B8FED898B81E28A8B1A8219823C
:1014F00014C09E012D5F3F4F89819A81820F931FF7
:10150000FC01208189819A818B5F9E4FFC012083A1
:1015100089819A8101969A83898389819A81803B06
:1015200091053CF3CE01039640E250E060E070E0AC
:101530000E946F0B85E091E00E94C501A2960FB654
:10154000F894DEBF0FBECDBFDF91CF910895CF934A
:10155000DF93CDB7DEB7809104018823C1F480E02A
:1015600090E00E94760BAC018091B501882F90E04D
:10157000382F22278091B601882F90E0822B932B61
:10158000842795270E94640B81E080930401DF91FA
:10159000CF910895CF93DF931F92CDB7DEB70E940E
:1015A00066010E94440A0E94B50189838981882FBF
:1015B00090E08436910569F08536910509F012C0F6
:1015C0000E94F0090E94A70A0E942A0A0E94100A9B
:1015D00009C00E94F0090E94A70A0E94370A0E94CF
:1015E000100A0000E0CF991B79E004C0991F9617FC
:1015F00008F0961B881F7A95C9F780950895AA1B55
:10160000BB1B51E107C0AA1FBB1FA617B70710F0ED
:10161000A61BB70B881F991F5A95A9F7809590951F
:10162000BC01CD0108958F929F92AF92BF92CF924D
:10163000DF92EF92FF92CF93DF93EC016881798183
:101640008A819B81611571058105910521F464E210
:1016500079ED8BE597E02DE133EF41E050E00E941A
:101660008C0B49015A019B01AC01A7EAB1E40E942D
:10167000AB0B6B017C01ACEEB4EFA50194010E94B1
:10168000B90BDC01CB018C0D9D1DAE1DBF1DB7FF3D
:1016900003C00197A109B04888839983AA83BB83BB
:1016A0009F77DF91CF91FF90EF90DF90CF90BF9029
:1016B000AF909F908F9008950E94130B089580E043
:1016C00091E00E94130B0895A0E0B0E08093000128
:1016D00090930101A0930201B09303010895DC01EE
:1016E00001C06D9341505040E0F70895A8E1B0E08B
:1016F00042E050E00C947E0BDC01CB01FC01F99937
:10170000FECF06C0F2BDE1BDF89A319600B40D924D
:1017100041505040B8F70895052E97FB1EF40094F1
:101720000E94A30B57FD07D00E94BE0B07FC03D0FD
:101730004EF40C94A30B50954095309521953F4F56
:101740004F4F5F4F089590958095709561957F4FAD
:101750008F4F9F4F08950E94E00BA59F900DB49F5F
:10176000900DA49F800D911D11240895B7FF0C9436
:10177000AB0B0E94AB0B821B930B0895A1E21A2EB8
:10178000AA1BBB1BFD010DC0AA1FBB1FEE1FFF1F25
:10179000A217B307E407F50720F0A21BB30BE40B75
:1017A000F50B661F771F881F991F1A9469F76095BC
:1017B0007095809590959B01AC01BD01CF01089576
:1017C000A29FB001B39FC001A39F700D811D112482
:1017D000911DB29F700D811D1124911D0895F894E3
:0217E000FFCF39
:0417E2000100000002
:00000001FF
